{
  "transactions": [
    {
      "hash": "0x2b74d5a7544b6488bb06695e0331b4977a527e621832c76972bcb235130d910b",
      "transactionType": "CALL",
      "contractName": null,
      "contractAddress": "0x00626ed5fe6bf77ae13bea79e304cf6a5554903b",
      "function": "setMinter(address)",
      "arguments": [
        "0xd2A7029baCCd24799ba497174859580Cd25e4E7F"
      ],
      "transaction": {
        "from": "0x75bbff2206b6ad50786ee3ce8a81edb72f3e381b",
        "to": "0x00626ed5fe6bf77ae13bea79e304cf6a5554903b",
        "gas": "0xb0b1",
        "value": "0x0",
        "input": "0xfca3b5aa000000000000000000000000d2a7029baccd24799ba497174859580cd25e4e7f",
        "nonce": "0x4a",
        "chainId": "0xaa37dc"
      },
      "additionalContracts": [],
      "isFixedGasLimit": false
    }
  ],
  "receipts": [
    {
      "status": "0x1",
      "cumulativeGasUsed": "0xe05eb5",
      "logs": [
        {
          "address": "0x00626ed5fe6bf77ae13bea79e304cf6a5554903b",
          "topics": [
            "0x1cf2de25c5bf439ac0287061c3a0fa69b3b02867d0ccfd2ded34e42577050b73",
            "0x00000000000000000000000075bbff2206b6ad50786ee3ce8a81edb72f3e381b",
            "0x000000000000000000000000d2a7029baccd24799ba497174859580cd25e4e7f"
          ],
          "data": "0x",
          "blockHash": "0xe7b332510017bbd60fe22ebc86778cd26b70456aa106c301362fae542899d350",
          "blockNumber": "0x1ca2bd1",
          "transactionHash": "0x2b74d5a7544b6488bb06695e0331b4977a527e621832c76972bcb235130d910b",
          "transactionIndex": "0x3",
          "logIndex": "0x195",
          "removed": false
        }
      ],
      "logsBloom": "0x00000000000000200000000000000000000000000000000000000000000000000000000000000000000000000000000020000000000000000400000000000000000000000200000000000010000300000000000000000000000001000000000000000000000000000000000000000000000000000000000000000000000000000000000000000000000000000000000000000000000000000000000000000000000000000000000000000001000000000000000000000000000000000000000000000000004000200000000000000000000000000000000000000000000000000000000000000000000000000000000000000000000000000000020000000000",
      "type": "0x2",
      "transactionHash": "0x2b74d5a7544b6488bb06695e0331b4977a527e621832c76972bcb235130d910b",
      "transactionIndex": "0x3",
      "blockHash": "0xe7b332510017bbd60fe22ebc86778cd26b70456aa106c301362fae542899d350",
      "blockNumber": "0x1ca2bd1",
      "gasUsed": "0x78d1",
      "effectiveGasPrice": "0xf433b",
      "from": "0x75bbff2206b6ad50786ee3ce8a81edb72f3e381b",
      "to": "0x00626ed5fe6bf77ae13bea79e304cf6a5554903b",
      "contractAddress": null,
      "l1BaseFeeScalar": "0x1db0",
      "l1BlobBaseFee": "0x1",
      "l1BlobBaseFeeScalar": "0xd2730",
      "l1Fee": "0xb31af2",
      "l1GasPrice": "0xeba9c",
      "l1GasUsed": "0x640"
    }
  ],
  "libraries": [],
  "pending": [],
  "returns": {},
  "timestamp": 1751855951,
  "chain": 11155420,
  "commit": "a88e290"
}