{
  "transactions": [
    {
      "hash": "0x54499989060d38b4bf026840d5d279e2e2b0a925cc0d9932672914f5afd085fc",
      "transactionType": "CALL",
      "contractName": null,
      "contractAddress": "0xf059c386ba88da3c3919ede0e6209b66c4d3dee1",
      "function": "setPeer(uint32,bytes32)",
      "arguments": [
        "40245",
        "0x000000000000000000000000802ea91b5aaf53d067b0bb72bad4cc714e1855be"
      ],
      "transaction": {
        "from": "0x75bbff2206b6ad50786ee3ce8a81edb72f3e381b",
        "to": "0xf059c386ba88da3c3919ede0e6209b66c4d3dee1",
        "gas": "0x1037e",
        "value": "0x0",
        "input": "0x3400288b0000000000000000000000000000000000000000000000000000000000009d35000000000000000000000000802ea91b5aaf53d067b0bb72bad4cc714e1855be",
        "nonce": "0x2b",
        "chainId": "0xaa36a7"
      },
      "additionalContracts": [],
      "isFixedGasLimit": false
    },
    {
      "hash": "0xc15816c08714e56d265e108ed8cb053fee964b6ce2b6f176ee2265ad0f5fb578",
      "transactionType": "CALL",
      "contractName": null,
      "contractAddress": "0xf059c386ba88da3c3919ede0e6209b66c4d3dee1",
      "function": "setPeer(uint32,bytes32)",
      "arguments": [
        "40232",
        "0x00000000000000000000000000626ed5fe6bf77ae13bea79e304cf6a5554903b"
      ],
      "transaction": {
        "from": "0x75bbff2206b6ad50786ee3ce8a81edb72f3e381b",
        "to": "0xf059c386ba88da3c3919ede0e6209b66c4d3dee1",
        "gas": "0x112b0",
        "value": "0x0",
        "input": "0x3400288b0000000000000000000000000000000000000000000000000000000000009d2800000000000000000000000000626ed5fe6bf77ae13bea79e304cf6a5554903b",
        "nonce": "0x2c",
        "chainId": "0xaa36a7"
      },
      "additionalContracts": [],
      "isFixedGasLimit": false
    }
  ],
  "receipts": [
    {
      "status": "0x1",
      "cumulativeGasUsed": "0x2c9a0af",
      "logs": [
        {
          "address": "0xf059c386ba88da3c3919ede0e6209b66c4d3dee1",
          "topics": [
            "0x238399d427b947898edb290f5ff0f9109849b1c3ba196a42e35f00c50a54b98b"
          ],
          "data": "0x0000000000000000000000000000000000000000000000000000000000009d35000000000000000000000000802ea91b5aaf53d067b0bb72bad4cc714e1855be",
          "blockHash": "0x48ff525a2e08acd8abeed23ab19ab455072e081980279d3abb1965ab9f8ddb6b",
          "blockNumber": "0x84e216",
          "transactionHash": "0x54499989060d38b4bf026840d5d279e2e2b0a925cc0d9932672914f5afd085fc",
          "transactionIndex": "0x1fc",
          "logIndex": "0x21a",
          "removed": false
        }
      ],
      "logsBloom": "0x00000000000000000000000000000000000000000000000000000000000000000000000000000000000000000000000000000000000000400800000000000000000000000000000000000000000000000000000000000000000000000000000000000000000000000000000000000000000000000000000000000000000000000000000000000000000000000100000000000000000000000000000000000000000000000000000000000000000000000000000000000000000002000000000001000000000000000000000000000000000000000000000000040000000000000000000000000000000000000000000000000000000000000000000000000000",
      "type": "0x2",
      "transactionHash": "0x54499989060d38b4bf026840d5d279e2e2b0a925cc0d9932672914f5afd085fc",
      "transactionIndex": "0x1fc",
      "blockHash": "0x48ff525a2e08acd8abeed23ab19ab455072e081980279d3abb1965ab9f8ddb6b",
      "blockNumber": "0x84e216",
      "gasUsed": "0xbbdf",
      "effectiveGasPrice": "0x1a457a",
      "from": "0x75bbff2206b6ad50786ee3ce8a81edb72f3e381b",
      "to": "0xf059c386ba88da3c3919ede0e6209b66c4d3dee1",
      "contractAddress": null
    },
    {
      "status": "0x1",
      "cumulativeGasUsed": "0x2ca5c82",
      "logs": [
        {
          "address": "0xf059c386ba88da3c3919ede0e6209b66c4d3dee1",
          "topics": [
            "0x238399d427b947898edb290f5ff0f9109849b1c3ba196a42e35f00c50a54b98b"
          ],
          "data": "0x0000000000000000000000000000000000000000000000000000000000009d2800000000000000000000000000626ed5fe6bf77ae13bea79e304cf6a5554903b",
          "blockHash": "0x48ff525a2e08acd8abeed23ab19ab455072e081980279d3abb1965ab9f8ddb6b",
          "blockNumber": "0x84e216",
          "transactionHash": "0xc15816c08714e56d265e108ed8cb053fee964b6ce2b6f176ee2265ad0f5fb578",
          "transactionIndex": "0x1fd",
          "logIndex": "0x21b",
          "removed": false
        }
      ],
      "logsBloom": "0x00000000000000000000000000000000000000000000000000000000000000000000000000000000000000000000000000000000000000400800000000000000000000000000000000000000000000000000000000000000000000000000000000000000000000000000000000000000000000000000000000000000000000000000000000000000000000000100000000000000000000000000000000000000000000000000000000000000000000000000000000000000000002000000000001000000000000000000000000000000000000000000000000040000000000000000000000000000000000000000000000000000000000000000000000000000",
      "type": "0x2",
      "transactionHash": "0xc15816c08714e56d265e108ed8cb053fee964b6ce2b6f176ee2265ad0f5fb578",
      "transactionIndex": "0x1fd",
      "blockHash": "0x48ff525a2e08acd8abeed23ab19ab455072e081980279d3abb1965ab9f8ddb6b",
      "blockNumber": "0x84e216",
      "gasUsed": "0xbbd3",
      "effectiveGasPrice": "0x1a457a",
      "from": "0x75bbff2206b6ad50786ee3ce8a81edb72f3e381b",
      "to": "0xf059c386ba88da3c3919ede0e6209b66c4d3dee1",
      "contractAddress": null
    }
  ],
  "libraries": [],
  "pending": [],
  "returns": {},
  "timestamp": 1751850674,
  "chain": 11155111,
  "commit": "a88e290"
}