{
  "transactions": [
    {
      "hash": "0xcb89486c26a3a31e4953871d4e87edfe0595b6dc08a35f8eabc78e3ad6e91344",
      "transactionType": "CALL",
      "contractName": null,
      "contractAddress": "0x0a3745b48f350949ef5d024a01ee143741ea2ce0",
      "function": "approve(address,uint256)",
      "arguments": [
        "0xA73550548804cFf5dD23F1C67e360C3a22433f53",
        "100000000000"
      ],
      "transaction": {
        "from": "0xf09494dda63f062856d3f166af4f2629c0ead56e",
        "to": "0x0a3745b48f350949ef5d024a01ee143741ea2ce0",
        "gas": "0x10151",
        "value": "0x0",
        "input": "0x095ea7b3000000000000000000000000a73550548804cff5dd23f1c67e360c3a22433f53000000000000000000000000000000000000000000000000000000174876e800",
        "nonce": "0x7",
        "chainId": "0x14a34"
      },
      "additionalContracts": [],
      "isFixedGasLimit": false
    },
    {
      "hash": "0xf751f1a359d2a6a36033b2944f05994aa0e04a15e91df1a5c6b19168c7c50789",
      "transactionType": "CALL",
      "contractName": null,
      "contractAddress": "0x7087eb81f647448f1bd76e936a9f9a39775bc4dc",
      "function": "approve(address,uint256)",
      "arguments": [
        "0xA73550548804cFf5dD23F1C67e360C3a22433f53",
        "100000000000"
      ],
      "transaction": {
        "from": "0xf09494dda63f062856d3f166af4f2629c0ead56e",
        "to": "0x7087eb81f647448f1bd76e936a9f9a39775bc4dc",
        "gas": "0x10151",
        "value": "0x0",
        "input": "0x095ea7b3000000000000000000000000a73550548804cff5dd23f1c67e360c3a22433f53000000000000000000000000000000000000000000000000000000174876e800",
        "nonce": "0x8",
        "chainId": "0x14a34"
      },
      "additionalContracts": [],
      "isFixedGasLimit": false
    },
    {
      "hash": "0x1dcfd7616b0476b5e61edbc3b624b6d5cf7ecec5fff2b78d78c3be91bc8482f1",
      "transactionType": "CALL",
      "contractName": null,
      "contractAddress": "0x52ba51f41713270e8071218058c3e37e1c2d4f20",
      "function": "approve(address,uint256)",
      "arguments": [
        "0xA73550548804cFf5dD23F1C67e360C3a22433f53",
        "1000000000"
      ],
      "transaction": {
        "from": "0xf09494dda63f062856d3f166af4f2629c0ead56e",
        "to": "0x52ba51f41713270e8071218058c3e37e1c2d4f20",
        "gas": "0x10142",
        "value": "0x0",
        "input": "0x095ea7b3000000000000000000000000a73550548804cff5dd23f1c67e360c3a22433f53000000000000000000000000000000000000000000000000000000003b9aca00",
        "nonce": "0x9",
        "chainId": "0x14a34"
      },
      "additionalContracts": [],
      "isFixedGasLimit": false
    }
  ],
  "receipts": [
    {
      "status": "0x1",
      "cumulativeGasUsed": "0x311cf5",
      "logs": [
        {
          "address": "0x0a3745b48f350949ef5d024a01ee143741ea2ce0",
          "topics": [
            "0x8c5be1e5ebec7d5bd14f71427d1e84f3dd0314c0f7b2291e5b200ac8c7c3b925",
            "0x000000000000000000000000f09494dda63f062856d3f166af4f2629c0ead56e",
            "0x000000000000000000000000a73550548804cff5dd23f1c67e360c3a22433f53"
          ],
          "data": "0x000000000000000000000000000000000000000000000000000000174876e800",
          "blockHash": "0xd571bae42f6e8ef26ab24730143a57d5c8a84900c950f7d70e5dd55f1ebea1fb",
          "blockNumber": "0x1ac6fbd",
          "blockTimestamp": "0x686c3e5a",
          "transactionHash": "0xcb89486c26a3a31e4953871d4e87edfe0595b6dc08a35f8eabc78e3ad6e91344",
          "transactionIndex": "0x8",
          "logIndex": "0x85",
          "removed": false
        }
      ],
      "logsBloom": "0x00000000000000000000000000000000000000000000000000010000000000000000000000000000000002000000000000080000000000000000000000200000000000000000000200000000008000000000000020000000000000000000000000000000000000000000000000000000000000000000000000000000000000000000000000000000000000000000000000000000000000000000000080000000020040000000000000000001000000000000000000000000000000000000000000000000000000000000000000000000000000000000000000000000000000000010000000000000000000000000000000000000000000000000000000000000",
      "type": "0x2",
      "transactionHash": "0xcb89486c26a3a31e4953871d4e87edfe0595b6dc08a35f8eabc78e3ad6e91344",
      "transactionIndex": "0x8",
      "blockHash": "0xd571bae42f6e8ef26ab24730143a57d5c8a84900c950f7d70e5dd55f1ebea1fb",
      "blockNumber": "0x1ac6fbd",
      "gasUsed": "0xba4c",
      "effectiveGasPrice": "0xf42b6",
      "from": "0xf09494dda63f062856d3f166af4f2629c0ead56e",
      "to": "0x0a3745b48f350949ef5d024a01ee143741ea2ce0",
      "contractAddress": null,
      "l1BaseFeeScalar": "0x44d",
      "l1BlobBaseFee": "0x1",
      "l1BlobBaseFeeScalar": "0xa118b",
      "l1Fee": "0x7495",
      "l1GasPrice": "0x4209",
      "l1GasUsed": "0x640"
    },
    {
      "status": "0x1",
      "cumulativeGasUsed": "0x48c492",
      "logs": [
        {
          "address": "0x7087eb81f647448f1bd76e936a9f9a39775bc4dc",
          "topics": [
            "0x8c5be1e5ebec7d5bd14f71427d1e84f3dd0314c0f7b2291e5b200ac8c7c3b925",
            "0x000000000000000000000000f09494dda63f062856d3f166af4f2629c0ead56e",
            "0x000000000000000000000000a73550548804cff5dd23f1c67e360c3a22433f53"
          ],
          "data": "0x000000000000000000000000000000000000000000000000000000174876e800",
          "blockHash": "0xd571bae42f6e8ef26ab24730143a57d5c8a84900c950f7d70e5dd55f1ebea1fb",
          "blockNumber": "0x1ac6fbd",
          "blockTimestamp": "0x686c3e5a",
          "transactionHash": "0xf751f1a359d2a6a36033b2944f05994aa0e04a15e91df1a5c6b19168c7c50789",
          "transactionIndex": "0xa",
          "logIndex": "0xb4",
          "removed": false
        }
      ],
      "logsBloom": "0x00000000000000000000000000000000000000000000000000010000000000000000000000000000000000000000000000000000000000000000000000200000000000000000000200000000008000000000000000000000000000000000000000000000000000000000000000000000000000000000000000000000000000000000000000000000000000000000000000000000000000000000000080000000020040000000000000000001000000000000000000000000000000000000000000000000000000000000000000000000004000000040000000000000000000000010000000000000000000000000020000000000000000000000000000000000",
      "type": "0x2",
      "transactionHash": "0xf751f1a359d2a6a36033b2944f05994aa0e04a15e91df1a5c6b19168c7c50789",
      "transactionIndex": "0xa",
      "blockHash": "0xd571bae42f6e8ef26ab24730143a57d5c8a84900c950f7d70e5dd55f1ebea1fb",
      "blockNumber": "0x1ac6fbd",
      "gasUsed": "0xba4c",
      "effectiveGasPrice": "0xf42b6",
      "from": "0xf09494dda63f062856d3f166af4f2629c0ead56e",
      "to": "0x7087eb81f647448f1bd76e936a9f9a39775bc4dc",
      "contractAddress": null,
      "l1BaseFeeScalar": "0x44d",
      "l1BlobBaseFee": "0x1",
      "l1BlobBaseFeeScalar": "0xa118b",
      "l1Fee": "0x7495",
      "l1GasPrice": "0x4209",
      "l1GasUsed": "0x640"
    },
    {
      "status": "0x1",
      "cumulativeGasUsed": "0x497ed2",
      "logs": [
        {
          "address": "0x52ba51f41713270e8071218058c3e37e1c2d4f20",
          "topics": [
            "0x8c5be1e5ebec7d5bd14f71427d1e84f3dd0314c0f7b2291e5b200ac8c7c3b925",
            "0x000000000000000000000000f09494dda63f062856d3f166af4f2629c0ead56e",
            "0x000000000000000000000000a73550548804cff5dd23f1c67e360c3a22433f53"
          ],
          "data": "0x000000000000000000000000000000000000000000000000000000003b9aca00",
          "blockHash": "0xd571bae42f6e8ef26ab24730143a57d5c8a84900c950f7d70e5dd55f1ebea1fb",
          "blockNumber": "0x1ac6fbd",
          "blockTimestamp": "0x686c3e5a",
          "transactionHash": "0x1dcfd7616b0476b5e61edbc3b624b6d5cf7ecec5fff2b78d78c3be91bc8482f1",
          "transactionIndex": "0xb",
          "logIndex": "0xb5",
          "removed": false
        }
      ],
      "logsBloom": "0x00000000000000000000000000000000000000000000000000010000000000000080000000000000000000000000000000000000000000000000000000200000000000000000000200000000008000000000000000000000000000000000000000000000000000000000000000000000000000000000000000000000000000000000000000000001000000000000000000000000000000000000000080000000020040000000000000000001000000000000000000000000000000000000000080000000000000000000000000000000000000000000000000000000000000000010000000000000000000000000000000000000000000000000000000000000",
      "type": "0x2",
      "transactionHash": "0x1dcfd7616b0476b5e61edbc3b624b6d5cf7ecec5fff2b78d78c3be91bc8482f1",
      "transactionIndex": "0xb",
      "blockHash": "0xd571bae42f6e8ef26ab24730143a57d5c8a84900c950f7d70e5dd55f1ebea1fb",
      "blockNumber": "0x1ac6fbd",
      "gasUsed": "0xba40",
      "effectiveGasPrice": "0xf42b6",
      "from": "0xf09494dda63f062856d3f166af4f2629c0ead56e",
      "to": "0x52ba51f41713270e8071218058c3e37e1c2d4f20",
      "contractAddress": null,
      "l1BaseFeeScalar": "0x44d",
      "l1BlobBaseFee": "0x1",
      "l1BlobBaseFeeScalar": "0xa118b",
      "l1Fee": "0x7495",
      "l1GasPrice": "0x4209",
      "l1GasUsed": "0x640"
    }
  ],
  "libraries": [],
  "pending": [],
  "returns": {},
  "timestamp": 1751924312,
  "chain": 84532,
  "commit": "ceedac3"
}