{
  "transactions": [
    {
      "hash": "0x00d088415d6ab5fe307af1442ad9b18eefa686a9fa46ecf8f44239d77b5decbd",
      "transactionType": "CALL",
      "contractName": null,
      "contractAddress": "0x0a3745b48f350949ef5d024a01ee143741ea2ce0",
      "function": "approve(address,uint256)",
      "arguments": [
        "0xA73550548804cFf5dD23F1C67e360C3a22433f53",
        "100000000000"
      ],
      "transaction": {
        "from": "0x75bbff2206b6ad50786ee3ce8a81edb72f3e381b",
        "to": "0x0a3745b48f350949ef5d024a01ee143741ea2ce0",
        "gas": "0x10151",
        "value": "0x0",
        "input": "0x095ea7b3000000000000000000000000a73550548804cff5dd23f1c67e360c3a22433f53000000000000000000000000000000000000000000000000000000174876e800",
        "nonce": "0xcf",
        "chainId": "0x14a34"
      },
      "additionalContracts": [],
      "isFixedGasLimit": false
    },
    {
      "hash": "0xd66f9809cbebd5e757339b9039c81d9be1a7a79e7b543776278e3d268c837b41",
      "transactionType": "CALL",
      "contractName": null,
      "contractAddress": "0x7087eb81f647448f1bd76e936a9f9a39775bc4dc",
      "function": "approve(address,uint256)",
      "arguments": [
        "0xA73550548804cFf5dD23F1C67e360C3a22433f53",
        "100000000000"
      ],
      "transaction": {
        "from": "0x75bbff2206b6ad50786ee3ce8a81edb72f3e381b",
        "to": "0x7087eb81f647448f1bd76e936a9f9a39775bc4dc",
        "gas": "0x10151",
        "value": "0x0",
        "input": "0x095ea7b3000000000000000000000000a73550548804cff5dd23f1c67e360c3a22433f53000000000000000000000000000000000000000000000000000000174876e800",
        "nonce": "0xd0",
        "chainId": "0x14a34"
      },
      "additionalContracts": [],
      "isFixedGasLimit": false
    },
    {
      "hash": "0x27aa06a7bb18f27f84e5bf751f81baf17a57a6b169826859445fc42e67fdf35a",
      "transactionType": "CALL",
      "contractName": null,
      "contractAddress": "0x52ba51f41713270e8071218058c3e37e1c2d4f20",
      "function": "approve(address,uint256)",
      "arguments": [
        "0xA73550548804cFf5dD23F1C67e360C3a22433f53",
        "1000000000"
      ],
      "transaction": {
        "from": "0x75bbff2206b6ad50786ee3ce8a81edb72f3e381b",
        "to": "0x52ba51f41713270e8071218058c3e37e1c2d4f20",
        "gas": "0x10142",
        "value": "0x0",
        "input": "0x095ea7b3000000000000000000000000a73550548804cff5dd23f1c67e360c3a22433f53000000000000000000000000000000000000000000000000000000003b9aca00",
        "nonce": "0xd1",
        "chainId": "0x14a34"
      },
      "additionalContracts": [],
      "isFixedGasLimit": false
    }
  ],
  "receipts": [
    {
      "status": "0x1",
      "cumulativeGasUsed": "0x16e80",
      "logs": [
        {
          "address": "0x0a3745b48f350949ef5d024a01ee143741ea2ce0",
          "topics": [
            "0x8c5be1e5ebec7d5bd14f71427d1e84f3dd0314c0f7b2291e5b200ac8c7c3b925",
            "0x00000000000000000000000075bbff2206b6ad50786ee3ce8a81edb72f3e381b",
            "0x000000000000000000000000a73550548804cff5dd23f1c67e360c3a22433f53"
          ],
          "data": "0x000000000000000000000000000000000000000000000000000000174876e800",
          "blockHash": "0x4dd7f2ad7d2935994bad9d480d82fb278560b5d4526c4a870549740c95223285",
          "blockNumber": "0x1abe4a5",
          "transactionHash": "0x00d088415d6ab5fe307af1442ad9b18eefa686a9fa46ecf8f44239d77b5decbd",
          "transactionIndex": "0x1",
          "logIndex": "0x0",
          "removed": false
        }
      ],
      "logsBloom": "0x00000000000000000000000000000000000000000000000000010000000000000000000000000000000002000000000000080000000000000000000000200000000000000000000200000000008100000000000020000000000000000000000000000000000000000000000000000000000000000000000000000000000000000000000000000000000000000000000000000000000000000000000000000000020000000000000000000001000000000000000000000000000000000000000000000000004000000000000000000000000000000000000000000000000000000010000000000000000000000000000000000000000000000000000000000000",
      "type": "0x2",
      "transactionHash": "0x00d088415d6ab5fe307af1442ad9b18eefa686a9fa46ecf8f44239d77b5decbd",
      "transactionIndex": "0x1",
      "blockHash": "0x4dd7f2ad7d2935994bad9d480d82fb278560b5d4526c4a870549740c95223285",
      "blockNumber": "0x1abe4a5",
      "gasUsed": "0xba4c",
      "effectiveGasPrice": "0xf4287",
      "from": "0x75bbff2206b6ad50786ee3ce8a81edb72f3e381b",
      "to": "0x0a3745b48f350949ef5d024a01ee143741ea2ce0",
      "contractAddress": null,
      "l1BaseFeeScalar": "0x44d",
      "l1BlobBaseFee": "0x1",
      "l1BlobBaseFeeScalar": "0xa118b",
      "l1Fee": "0x3a2798",
      "l1GasPrice": "0x210308",
      "l1GasUsed": "0x640"
    },
    {
      "status": "0x1",
      "cumulativeGasUsed": "0x228cc",
      "logs": [
        {
          "address": "0x7087eb81f647448f1bd76e936a9f9a39775bc4dc",
          "topics": [
            "0x8c5be1e5ebec7d5bd14f71427d1e84f3dd0314c0f7b2291e5b200ac8c7c3b925",
            "0x00000000000000000000000075bbff2206b6ad50786ee3ce8a81edb72f3e381b",
            "0x000000000000000000000000a73550548804cff5dd23f1c67e360c3a22433f53"
          ],
          "data": "0x000000000000000000000000000000000000000000000000000000174876e800",
          "blockHash": "0x4dd7f2ad7d2935994bad9d480d82fb278560b5d4526c4a870549740c95223285",
          "blockNumber": "0x1abe4a5",
          "transactionHash": "0xd66f9809cbebd5e757339b9039c81d9be1a7a79e7b543776278e3d268c837b41",
          "transactionIndex": "0x2",
          "logIndex": "0x1",
          "removed": false
        }
      ],
      "logsBloom": "0x00000000000000000000000000000000000000000000000000010000000000000000000000000000000000000000000000000000000000000000000000200000000000000000000200000000008100000000000000000000000000000000000000000000000000000000000000000000000000000000000000000000000000000000000000000000000000000000000000000000000000000000000000000000020000000000000000000001000000000000000000000000000000000000000000000000004000000000000000000000004000000040000000000000000000000010000000000000000000000000020000000000000000000000000000000000",
      "type": "0x2",
      "transactionHash": "0xd66f9809cbebd5e757339b9039c81d9be1a7a79e7b543776278e3d268c837b41",
      "transactionIndex": "0x2",
      "blockHash": "0x4dd7f2ad7d2935994bad9d480d82fb278560b5d4526c4a870549740c95223285",
      "blockNumber": "0x1abe4a5",
      "gasUsed": "0xba4c",
      "effectiveGasPrice": "0xf4287",
      "from": "0x75bbff2206b6ad50786ee3ce8a81edb72f3e381b",
      "to": "0x7087eb81f647448f1bd76e936a9f9a39775bc4dc",
      "contractAddress": null,
      "l1BaseFeeScalar": "0x44d",
      "l1BlobBaseFee": "0x1",
      "l1BlobBaseFeeScalar": "0xa118b",
      "l1Fee": "0x3a2798",
      "l1GasPrice": "0x210308",
      "l1GasUsed": "0x640"
    },
    {
      "status": "0x1",
      "cumulativeGasUsed": "0x2e30c",
      "logs": [
        {
          "address": "0x52ba51f41713270e8071218058c3e37e1c2d4f20",
          "topics": [
            "0x8c5be1e5ebec7d5bd14f71427d1e84f3dd0314c0f7b2291e5b200ac8c7c3b925",
            "0x00000000000000000000000075bbff2206b6ad50786ee3ce8a81edb72f3e381b",
            "0x000000000000000000000000a73550548804cff5dd23f1c67e360c3a22433f53"
          ],
          "data": "0x000000000000000000000000000000000000000000000000000000003b9aca00",
          "blockHash": "0x4dd7f2ad7d2935994bad9d480d82fb278560b5d4526c4a870549740c95223285",
          "blockNumber": "0x1abe4a5",
          "transactionHash": "0x27aa06a7bb18f27f84e5bf751f81baf17a57a6b169826859445fc42e67fdf35a",
          "transactionIndex": "0x3",
          "logIndex": "0x2",
          "removed": false
        }
      ],
      "logsBloom": "0x00000000000000000000000000000000000000000000000000010000000000000080000000000000000000000000000000000000000000000000000000200000000000000000000200000000008100000000000000000000000000000000000000000000000000000000000000000000000000000000000000000000000000000000000000000001000000000000000000000000000000000000000000000000020000000000000000000001000000000000000000000000000000000000000080000000004000000000000000000000000000000000000000000000000000000010000000000000000000000000000000000000000000000000000000000000",
      "type": "0x2",
      "transactionHash": "0x27aa06a7bb18f27f84e5bf751f81baf17a57a6b169826859445fc42e67fdf35a",
      "transactionIndex": "0x3",
      "blockHash": "0x4dd7f2ad7d2935994bad9d480d82fb278560b5d4526c4a870549740c95223285",
      "blockNumber": "0x1abe4a5",
      "gasUsed": "0xba40",
      "effectiveGasPrice": "0xf4287",
      "from": "0x75bbff2206b6ad50786ee3ce8a81edb72f3e381b",
      "to": "0x52ba51f41713270e8071218058c3e37e1c2d4f20",
      "contractAddress": null,
      "l1BaseFeeScalar": "0x44d",
      "l1BlobBaseFee": "0x1",
      "l1BlobBaseFeeScalar": "0xa118b",
      "l1Fee": "0x3a2798",
      "l1GasPrice": "0x210308",
      "l1GasUsed": "0x640"
    }
  ],
  "libraries": [],
  "pending": [],
  "returns": {},
  "timestamp": 1751853099,
  "chain": 84532,
  "commit": "a88e290"
}