{
  "transactions": [
    {
      "hash": "0x046447c31d27c5349ffd99f9ffe3a02e748095d167f5bbd4fe81aa13012d904a",
      "transactionType": "CALL",
      "contractName": null,
      "contractAddress": "0x00626ed5fe6bf77ae13bea79e304cf6a5554903b",
      "function": "setMinter(address)",
      "arguments": [
        "0xd6ea412149B7cbb80f9A81c0a99e5BDa0434fBC7"
      ],
      "transaction": {
        "from": "0x75bbff2206b6ad50786ee3ce8a81edb72f3e381b",
        "to": "0x00626ed5fe6bf77ae13bea79e304cf6a5554903b",
        "gas": "0xb0b1",
        "value": "0x0",
        "input": "0xfca3b5aa000000000000000000000000d6ea412149b7cbb80f9a81c0a99e5bda0434fbc7",
        "nonce": "0x4e",
        "chainId": "0xaa37dc"
      },
      "additionalContracts": [],
      "isFixedGasLimit": false
    }
  ],
  "receipts": [
    {
      "status": "0x1",
      "cumulativeGasUsed": "0x81ab9",
      "logs": [
        {
          "address": "0x00626ed5fe6bf77ae13bea79e304cf6a5554903b",
          "topics": [
            "0x1cf2de25c5bf439ac0287061c3a0fa69b3b02867d0ccfd2ded34e42577050b73",
            "0x000000000000000000000000d2a7029baccd24799ba497174859580cd25e4e7f",
            "0x000000000000000000000000d6ea412149b7cbb80f9a81c0a99e5bda0434fbc7"
          ],
          "data": "0x",
          "blockHash": "0x4b66fbbc6b4a808f4392a56a3acf6bd3eabbb8f2c4a091d3b0e432274c00b723",
          "blockNumber": "0x1ca2d90",
          "transactionHash": "0x046447c31d27c5349ffd99f9ffe3a02e748095d167f5bbd4fe81aa13012d904a",
          "transactionIndex": "0x3",
          "logIndex": "0x15",
          "removed": false
        }
      ],
      "logsBloom": "0x00000000000000240000000000000000000000000000000000000000000000000000000000000000000000000000000020000000000000000400000000000000100000000200000000000010000200000000000000000000000001000000000000000000000000000000000000000000000000000000000000000000000000000000000000000000000000000000000000000000000000000000000000000000000000000000000000000800000000000000000000000000000000000000000000000000000000200000000000000000000000000000000000000000000000000000000000000000000000000000000000000000000000000000020000000000",
      "type": "0x2",
      "transactionHash": "0x046447c31d27c5349ffd99f9ffe3a02e748095d167f5bbd4fe81aa13012d904a",
      "transactionIndex": "0x3",
      "blockHash": "0x4b66fbbc6b4a808f4392a56a3acf6bd3eabbb8f2c4a091d3b0e432274c00b723",
      "blockNumber": "0x1ca2d90",
      "gasUsed": "0x78d1",
      "effectiveGasPrice": "0xf433b",
      "from": "0x75bbff2206b6ad50786ee3ce8a81edb72f3e381b",
      "to": "0x00626ed5fe6bf77ae13bea79e304cf6a5554903b",
      "contractAddress": null,
      "l1BaseFeeScalar": "0x1db0",
      "l1BlobBaseFee": "0x1",
      "l1BlobBaseFeeScalar": "0xd2730",
      "l1Fee": "0xba3626",
      "l1GasPrice": "0xf5037",
      "l1GasUsed": "0x640"
    }
  ],
  "libraries": [],
  "pending": [],
  "returns": {},
  "timestamp": 1751856844,
  "chain": 11155420,
  "commit": "a88e290"
}