{
  "transactions": [
    {
      "hash": "0x06a7e52d7c0caa94948b102fbad4ffb783b91a78175ff5c9f4c5836a790942d1",
      "transactionType": "CALL",
      "contractName": null,
      "contractAddress": "0x43a8a1ff7b7bc32acbcca638b2b40cadf45cd82d",
      "function": "setEnforcedOptions((uint32,uint16,bytes)[])",
      "arguments": [
        "[(40232, 1, 0x00030100110100000000000000000000000186a0)]"
      ],
      "transaction": {
        "from": "0xf09494dda63f062856d3f166af4f2629c0ead56e",
        "to": "0x43a8a1ff7b7bc32acbcca638b2b40cadf45cd82d",
        "gas": "0x11b9d",
        "value": "0x0",
        "input": "0xb98bd0700000000000000000000000000000000000000000000000000000000000000020000000000000000000000000000000000000000000000000000000000000000100000000000000000000000000000000000000000000000000000000000000200000000000000000000000000000000000000000000000000000000000009d2800000000000000000000000000000000000000000000000000000000000000010000000000000000000000000000000000000000000000000000000000000060000000000000000000000000000000000000000000000000000000000000001400030100110100000000000000000000000186a0000000000000000000000000",
        "nonce": "0x30",
        "chainId": "0x14a34"
      },
      "additionalContracts": [],
      "isFixedGasLimit": false
    }
  ],
  "receipts": [
    {
      "status": "0x1",
      "cumulativeGasUsed": "0x1347ed",
      "logs": [
        {
          "address": "0x43a8a1ff7b7bc32acbcca638b2b40cadf45cd82d",
          "topics": [
            "0xbe4864a8e820971c0247f5992e2da559595f7bf076a21cb5928d443d2a13b674"
          ],
          "data": "0x0000000000000000000000000000000000000000000000000000000000000020000000000000000000000000000000000000000000000000000000000000000100000000000000000000000000000000000000000000000000000000000000200000000000000000000000000000000000000000000000000000000000009d2800000000000000000000000000000000000000000000000000000000000000010000000000000000000000000000000000000000000000000000000000000060000000000000000000000000000000000000000000000000000000000000001400030100110100000000000000000000000186a0000000000000000000000000",
          "blockHash": "0xb7024876013407cbeef6320653d816ca9abcb2da41185911ffe19ca90207b7c2",
          "blockNumber": "0x1ac8bf0",
          "blockTimestamp": "0x686c76c0",
          "transactionHash": "0x06a7e52d7c0caa94948b102fbad4ffb783b91a78175ff5c9f4c5836a790942d1",
          "transactionIndex": "0xa",
          "logIndex": "0x21",
          "removed": false
        }
      ],
      "logsBloom": "0x00000000000000000000000000000000000000000000000000000000000000000000000000000000000000000000000000000000000000000000400000000000000000000000000000000000000000000000000000000200000000000000000000000000000000000000000000000000000000000000000000000000000000000000000000000000000000000000000000000000000000000000000000080000000000000000000000000000000000000000000000000000000000000000000000000000000000000000008002000000000000000000000000000000000000000000000000000000000000000000000000000001000000000000000000000000",
      "type": "0x2",
      "transactionHash": "0x06a7e52d7c0caa94948b102fbad4ffb783b91a78175ff5c9f4c5836a790942d1",
      "transactionIndex": "0xa",
      "blockHash": "0xb7024876013407cbeef6320653d816ca9abcb2da41185911ffe19ca90207b7c2",
      "blockNumber": "0x1ac8bf0",
      "gasUsed": "0xcd55",
      "effectiveGasPrice": "0xf42bc",
      "from": "0xf09494dda63f062856d3f166af4f2629c0ead56e",
      "to": "0x43a8a1ff7b7bc32acbcca638b2b40cadf45cd82d",
      "contractAddress": null,
      "l1BaseFeeScalar": "0x44d",
      "l1BlobBaseFee": "0x1",
      "l1BlobBaseFeeScalar": "0xa118b",
      "l1Fee": "0x148c35",
      "l1GasPrice": "0xaf89f",
      "l1GasUsed": "0x6a4"
    }
  ],
  "libraries": [],
  "pending": [],
  "returns": {},
  "timestamp": 1751938752,
  "chain": 84532,
  "commit": "b0335c7"
}