{
  "transactions": [
    {
      "hash": "0xea81be7a8a079b509ca52ef5dabbf49adad279fdfb8b6a7a9d8085ddc93af2e7",
      "transactionType": "CALL",
      "contractName": "SovaBTCOFT",
      "contractAddress": "0x1b7227a7a6bcae6c64907b1b51dd0801c3e8ba30",
      "function": "addMinter(address)",
      "arguments": [
        "0x43a8a1FF7b7bC32aCbcCA638b2b40CADf45CD82d"
      ],
      "transaction": {
        "from": "0xf09494dda63f062856d3f166af4f2629c0ead56e",
        "to": "0x1b7227a7a6bcae6c64907b1b51dd0801c3e8ba30",
        "gas": "0xff85",
        "value": "0x0",
        "input": "0x983b2d5600000000000000000000000043a8a1ff7b7bc32acbcca638b2b40cadf45cd82d",
        "nonce": "0xe",
        "chainId": "0xaa37dc"
      },
      "additionalContracts": [],
      "isFixedGasLimit": false
    },
    {
      "hash": "0xda210867709ed772cdcf00c77483b6cb3337af5a0641b2c95cb5fc363cfa5772",
      "transactionType": "CALL",
      "contractName": "SovaBTCOFT",
      "contractAddress": "0x1b7227a7a6bcae6c64907b1b51dd0801c3e8ba30",
      "function": "addMinter(address)",
      "arguments": [
        "0x3793FaA1bD71258336c877427b105B2E74e8C030"
      ],
      "transaction": {
        "from": "0xf09494dda63f062856d3f166af4f2629c0ead56e",
        "to": "0x1b7227a7a6bcae6c64907b1b51dd0801c3e8ba30",
        "gas": "0xff85",
        "value": "0x0",
        "input": "0x983b2d560000000000000000000000003793faa1bd71258336c877427b105b2e74e8c030",
        "nonce": "0xf",
        "chainId": "0xaa37dc"
      },
      "additionalContracts": [],
      "isFixedGasLimit": false
    }
  ],
  "receipts": [
    {
      "status": "0x1",
      "cumulativeGasUsed": "0x16d27",
      "logs": [
        {
          "address": "0x1b7227a7a6bcae6c64907b1b51dd0801c3e8ba30",
          "topics": [
            "0x6ae172837ea30b801fbfcdd4108aa1d5bf8ff775444fd70256b44e6bf3dfc3f6",
            "0x00000000000000000000000043a8a1ff7b7bc32acbcca638b2b40cadf45cd82d"
          ],
          "data": "0x",
          "blockHash": "0x506d4127209b2e393d1e0919bd38af4e784ba28cd4d7d66f8ba9f615dc184ba8",
          "blockNumber": "0x1cab5e3",
          "transactionHash": "0xea81be7a8a079b509ca52ef5dabbf49adad279fdfb8b6a7a9d8085ddc93af2e7",
          "transactionIndex": "0x1",
          "logIndex": "0x0",
          "removed": false
        }
      ],
      "logsBloom": "0x20800000000000000000000000000000000000000000000000000000000000000000000000000000000000000000000000000000410000000000000000000000000000000000000000000000000000000000000000040000000000000000000000000000000000000400000000000000000000008000000000000000000000000000000000000000000000008000000000000000000000000000000000000000000000000000000000000000000000000000000000000000000000000000000000000000000000000000000000000000000000000000400000000000000000000000000000000000000000000000000000000000000000000000000000000000",
      "type": "0x2",
      "transactionHash": "0xea81be7a8a079b509ca52ef5dabbf49adad279fdfb8b6a7a9d8085ddc93af2e7",
      "transactionIndex": "0x1",
      "blockHash": "0x506d4127209b2e393d1e0919bd38af4e784ba28cd4d7d66f8ba9f615dc184ba8",
      "blockNumber": "0x1cab5e3",
      "gasUsed": "0xb8ff",
      "effectiveGasPrice": "0xf433a",
      "from": "0xf09494dda63f062856d3f166af4f2629c0ead56e",
      "to": "0x1b7227a7a6bcae6c64907b1b51dd0801c3e8ba30",
      "contractAddress": null,
      "l1BaseFeeScalar": "0x1db0",
      "l1BlobBaseFee": "0x1",
      "l1BlobBaseFeeScalar": "0xd2730",
      "l1Fee": "0x2d262",
      "l1GasPrice": "0x3b61",
      "l1GasUsed": "0x640"
    },
    {
      "status": "0x1",
      "cumulativeGasUsed": "0x22626",
      "logs": [
        {
          "address": "0x1b7227a7a6bcae6c64907b1b51dd0801c3e8ba30",
          "topics": [
            "0x6ae172837ea30b801fbfcdd4108aa1d5bf8ff775444fd70256b44e6bf3dfc3f6",
            "0x0000000000000000000000003793faa1bd71258336c877427b105b2e74e8c030"
          ],
          "data": "0x",
          "blockHash": "0x506d4127209b2e393d1e0919bd38af4e784ba28cd4d7d66f8ba9f615dc184ba8",
          "blockNumber": "0x1cab5e3",
          "transactionHash": "0xda210867709ed772cdcf00c77483b6cb3337af5a0641b2c95cb5fc363cfa5772",
          "transactionIndex": "0x2",
          "logIndex": "0x1",
          "removed": false
        }
      ],
      "logsBloom": "0x00800000000000000000000000000000000000000000000000000000000000000000000000000000000000000000000000000000010000000000000000000000000000000000000000000010000000000000000000040000000000000000000000000000000000000000000000000000000000008000000000000000000000000000000000000000000000008000000000000000000000000000000000000000000000000000000000000000000000000000000000000000000000000000000000000000000000000020000000000000000000000000400000000004000000000000000000000000000000000000000000000000000000000000000000000000",
      "type": "0x2",
      "transactionHash": "0xda210867709ed772cdcf00c77483b6cb3337af5a0641b2c95cb5fc363cfa5772",
      "transactionIndex": "0x2",
      "blockHash": "0x506d4127209b2e393d1e0919bd38af4e784ba28cd4d7d66f8ba9f615dc184ba8",
      "blockNumber": "0x1cab5e3",
      "gasUsed": "0xb8ff",
      "effectiveGasPrice": "0xf433a",
      "from": "0xf09494dda63f062856d3f166af4f2629c0ead56e",
      "to": "0x1b7227a7a6bcae6c64907b1b51dd0801c3e8ba30",
      "contractAddress": null,
      "l1BaseFeeScalar": "0x1db0",
      "l1BlobBaseFee": "0x1",
      "l1BlobBaseFeeScalar": "0xd2730",
      "l1Fee": "0x2d262",
      "l1GasPrice": "0x3b61",
      "l1GasUsed": "0x640"
    }
  ],
  "libraries": [],
  "pending": [],
  "returns": {},
  "timestamp": 1751926642,
  "chain": 11155420,
  "commit": "ceedac3"
}