{
  "transactions": [
    {
      "hash": "0xdd5fcfe936b13e253a6d84f34f2d050020809e8108e955b9f7f0b5cb0dbea3e9",
      "transactionType": "CALL",
      "contractName": null,
      "contractAddress": "0x43a8a1ff7b7bc32acbcca638b2b40cadf45cd82d",
      "function": "setEnforcedOptions((uint32,uint16,bytes)[])",
      "arguments": [
        "[(40232, 1, 0x0003)]"
      ],
      "transaction": {
        "from": "0xf09494dda63f062856d3f166af4f2629c0ead56e",
        "to": "0x43a8a1ff7b7bc32acbcca638b2b40cadf45cd82d",
        "gas": "0xca32",
        "value": "0x0",
        "input": "0xb98bd0700000000000000000000000000000000000000000000000000000000000000020000000000000000000000000000000000000000000000000000000000000000100000000000000000000000000000000000000000000000000000000000000200000000000000000000000000000000000000000000000000000000000009d280000000000000000000000000000000000000000000000000000000000000001000000000000000000000000000000000000000000000000000000000000006000000000000000000000000000000000000000000000000000000000000000020003000000000000000000000000000000000000000000000000000000000000",
        "nonce": "0x34",
        "chainId": "0x14a34"
      },
      "additionalContracts": [],
      "isFixedGasLimit": false
    }
  ],
  "receipts": [
    {
      "status": "0x1",
      "cumulativeGasUsed": "0x44f9b9",
      "logs": [
        {
          "address": "0x43a8a1ff7b7bc32acbcca638b2b40cadf45cd82d",
          "topics": [
            "0xbe4864a8e820971c0247f5992e2da559595f7bf076a21cb5928d443d2a13b674"
          ],
          "data": "0x0000000000000000000000000000000000000000000000000000000000000020000000000000000000000000000000000000000000000000000000000000000100000000000000000000000000000000000000000000000000000000000000200000000000000000000000000000000000000000000000000000000000009d280000000000000000000000000000000000000000000000000000000000000001000000000000000000000000000000000000000000000000000000000000006000000000000000000000000000000000000000000000000000000000000000020003000000000000000000000000000000000000000000000000000000000000",
          "blockHash": "0xb41ace2e1930244d6ac62965b029cd36993ff32e69eb98cc77535d9df8944df9",
          "blockNumber": "0x1ac9018",
          "transactionHash": "0xdd5fcfe936b13e253a6d84f34f2d050020809e8108e955b9f7f0b5cb0dbea3e9",
          "transactionIndex": "0xe",
          "logIndex": "0xd3",
          "removed": false
        }
      ],
      "logsBloom": "0x00000000000000000000000000000000000000000000000000000000000000000000000000000000000000000000000000000000000000000000400000000000000000000000000000000000000000000000000000000200000000000000000000000000000000000000000000000000000000000000000000000000000000000000000000000000000000000000000000000000000000000000000000080000000000000000000000000000000000000000000000000000000000000000000000000000000000000000008002000000000000000000000000000000000000000000000000000000000000000000000000000001000000000000000000000000",
      "type": "0x2",
      "transactionHash": "0xdd5fcfe936b13e253a6d84f34f2d050020809e8108e955b9f7f0b5cb0dbea3e9",
      "transactionIndex": "0xe",
      "blockHash": "0xb41ace2e1930244d6ac62965b029cd36993ff32e69eb98cc77535d9df8944df9",
      "blockNumber": "0x1ac9018",
      "gasUsed": "0x8a41",
      "effectiveGasPrice": "0xe9557",
      "from": "0xf09494dda63f062856d3f166af4f2629c0ead56e",
      "to": "0x43a8a1ff7b7bc32acbcca638b2b40cadf45cd82d",
      "contractAddress": null,
      "l1BaseFeeScalar": "0x44d",
      "l1BlobBaseFee": "0x1",
      "l1BlobBaseFeeScalar": "0xa118b",
      "l1Fee": "0x1ad4ec",
      "l1GasPrice": "0xf3b1b",
      "l1GasUsed": "0x640"
    }
  ],
  "libraries": [],
  "pending": [],
  "returns": {},
  "timestamp": 1751940881,
  "chain": 84532,
  "commit": "b0335c7"
}