{
  "transactions": [
    {
      "hash": "0x9c3eb01b6d99c41240ad3ae1a3e3dc1341c62fbb7901fd0be2ad612af26e5bd5",
      "transactionType": "CALL",
      "contractName": null,
      "contractAddress": "0x00626ed5fe6bf77ae13bea79e304cf6a5554903b",
      "function": "simulateReceive(uint32,address,uint256)",
      "arguments": [
        "40245",
        "0x75BbFf2206b6Ad50786Ee3ce8A81eDb72f3e381b",
        "500000"
      ],
      "transaction": {
        "from": "0x75bbff2206b6ad50786ee3ce8a81edb72f3e381b",
        "to": "0x00626ed5fe6bf77ae13bea79e304cf6a5554903b",
        "gas": "0x1c1b9",
        "value": "0x0",
        "input": "0xdde0443b0000000000000000000000000000000000000000000000000000000000009d3500000000000000000000000075bbff2206b6ad50786ee3ce8a81edb72f3e381b000000000000000000000000000000000000000000000000000000000007a120",
        "nonce": "0x37",
        "chainId": "0xaa37dc"
      },
      "additionalContracts": [],
      "isFixedGasLimit": false
    }
  ],
  "receipts": [
    {
      "status": "0x1",
      "cumulativeGasUsed": "0x1e7a9",
      "logs": [
        {
          "address": "0x00626ed5fe6bf77ae13bea79e304cf6a5554903b",
          "topics": [
            "0xddf252ad1be2c89b69c2b068fc378daa952ba7f163c4a11628f55a4df523b3ef",
            "0x0000000000000000000000000000000000000000000000000000000000000000",
            "0x00000000000000000000000075bbff2206b6ad50786ee3ce8a81edb72f3e381b"
          ],
          "data": "0x000000000000000000000000000000000000000000000000000000000007a120",
          "blockHash": "0x9e1df3447a19baa051d26291250bc8b5635b480aa20795ccba033eeeb856996a",
          "blockNumber": "0x1ca1f53",
          "transactionHash": "0x9c3eb01b6d99c41240ad3ae1a3e3dc1341c62fbb7901fd0be2ad612af26e5bd5",
          "transactionIndex": "0x1",
          "logIndex": "0x0",
          "removed": false
        },
        {
          "address": "0x00626ed5fe6bf77ae13bea79e304cf6a5554903b",
          "topics": [
            "0xefed6d3500546b29533b128a29e3a94d70788727f0507505ac12eaf2e578fd9c",
            "0x5b96ca611f784bfb6dbf14af92d5b293acd0dc7f9c3e24055f5a87fd34b53b37",
            "0x00000000000000000000000075bbff2206b6ad50786ee3ce8a81edb72f3e381b"
          ],
          "data": "0x0000000000000000000000000000000000000000000000000000000000009d35000000000000000000000000000000000000000000000000000000000007a120",
          "blockHash": "0x9e1df3447a19baa051d26291250bc8b5635b480aa20795ccba033eeeb856996a",
          "blockNumber": "0x1ca1f53",
          "transactionHash": "0x9c3eb01b6d99c41240ad3ae1a3e3dc1341c62fbb7901fd0be2ad612af26e5bd5",
          "transactionIndex": "0x1",
          "logIndex": "0x1",
          "removed": false
        },
        {
          "address": "0x00626ed5fe6bf77ae13bea79e304cf6a5554903b",
          "topics": [
            "0x9aa55f7729f334a13b7303599a2f0d3970f1fff7eed3f0e630874ae59922d10a",
            "0x0000000000000000000000000000000000000000000000000000000000009d35",
            "0x00000000000000000000000075bbff2206b6ad50786ee3ce8a81edb72f3e381b"
          ],
          "data": "0x000000000000000000000000000000000000000000000000000000000007a120",
          "blockHash": "0x9e1df3447a19baa051d26291250bc8b5635b480aa20795ccba033eeeb856996a",
          "blockNumber": "0x1ca1f53",
          "transactionHash": "0x9c3eb01b6d99c41240ad3ae1a3e3dc1341c62fbb7901fd0be2ad612af26e5bd5",
          "transactionIndex": "0x1",
          "logIndex": "0x2",
          "removed": false
        }
      ],
      "logsBloom": "0x00000000000000000000000000000000000000000000404000000000400000000000000000000000000000000000000020000000000200000000000040000000000000000200000000000008000100000000000000000400080000000000000000000000020000000000000000000800000000000000000000000010000000000000000000000000000000000000000000000000000000000000000000200000000000000000000000000001000000000000400000000000000000000000000000000002004000200000000000000000000000000000000000000000000020000000000000000000000000000000000000000000000000300000000002000000",
      "type": "0x2",
      "transactionHash": "0x9c3eb01b6d99c41240ad3ae1a3e3dc1341c62fbb7901fd0be2ad612af26e5bd5",
      "transactionIndex": "0x1",
      "blockHash": "0x9e1df3447a19baa051d26291250bc8b5635b480aa20795ccba033eeeb856996a",
      "blockNumber": "0x1ca1f53",
      "gasUsed": "0x13381",
      "effectiveGasPrice": "0xf433a",
      "from": "0x75bbff2206b6ad50786ee3ce8a81edb72f3e381b",
      "to": "0x00626ed5fe6bf77ae13bea79e304cf6a5554903b",
      "contractAddress": null,
      "l1BaseFeeScalar": "0x1db0",
      "l1BlobBaseFee": "0x1",
      "l1BlobBaseFeeScalar": "0xd2730",
      "l1Fee": "0x894698",
      "l1GasPrice": "0xb49fd",
      "l1GasUsed": "0x640"
    }
  ],
  "libraries": [],
  "pending": [],
  "returns": {},
  "timestamp": 1751849554,
  "chain": 11155420,
  "commit": "a88e290"
}