{
  "transactions": [
    {
      "hash": "0xdd32a658cb0a97da66c8561695357cd2a5010663879561cd68be79a9299c5bdf",
      "transactionType": "CALL",
      "contractName": null,
      "contractAddress": "0x802ea91b5aaf53d067b0bb72bad4cc714e1855be",
      "function": "setPeer(uint32,bytes32)",
      "arguments": [
        "40161",
        "0x000000000000000000000000f059c386ba88da3c3919ede0e6209b66c4d3dee1"
      ],
      "transaction": {
        "from": "0x75bbff2206b6ad50786ee3ce8a81edb72f3e381b",
        "to": "0x802ea91b5aaf53d067b0bb72bad4cc714e1855be",
        "gas": "0xa112",
        "value": "0x0",
        "input": "0x3400288b0000000000000000000000000000000000000000000000000000000000009ce1000000000000000000000000f059c386ba88da3c3919ede0e6209b66c4d3dee1",
        "nonce": "0xe3",
        "chainId": "0x14a34"
      },
      "additionalContracts": [],
      "isFixedGasLimit": false
    },
    {
      "hash": "0xd711bfb82b352948094078aef36477faec68dd048d49b30b0b6791516219cf00",
      "transactionType": "CALL",
      "contractName": null,
      "contractAddress": "0x802ea91b5aaf53d067b0bb72bad4cc714e1855be",
      "function": "setPeer(uint32,bytes32)",
      "arguments": [
        "40232",
        "0x00000000000000000000000000626ed5fe6bf77ae13bea79e304cf6a5554903b"
      ],
      "transaction": {
        "from": "0x75bbff2206b6ad50786ee3ce8a81edb72f3e381b",
        "to": "0x802ea91b5aaf53d067b0bb72bad4cc714e1855be",
        "gas": "0x980f",
        "value": "0x0",
        "input": "0x3400288b0000000000000000000000000000000000000000000000000000000000009d2800000000000000000000000000626ed5fe6bf77ae13bea79e304cf6a5554903b",
        "nonce": "0xe4",
        "chainId": "0x14a34"
      },
      "additionalContracts": [],
      "isFixedGasLimit": false
    }
  ],
  "receipts": [
    {
      "status": "0x1",
      "cumulativeGasUsed": "0x59752d",
      "logs": [
        {
          "address": "0x802ea91b5aaf53d067b0bb72bad4cc714e1855be",
          "topics": [
            "0x238399d427b947898edb290f5ff0f9109849b1c3ba196a42e35f00c50a54b98b"
          ],
          "data": "0x0000000000000000000000000000000000000000000000000000000000009ce1000000000000000000000000f059c386ba88da3c3919ede0e6209b66c4d3dee1",
          "blockHash": "0x5275c6a6cf3bc0fc275ab2b9ddb9f32d2efb258a8e884e4f5f4b7401d57ed0bd",
          "blockNumber": "0x1ac4623",
          "transactionHash": "0xdd32a658cb0a97da66c8561695357cd2a5010663879561cd68be79a9299c5bdf",
          "transactionIndex": "0x16",
          "logIndex": "0xe9",
          "removed": false
        }
      ],
      "logsBloom": "0x00000000000000000000000000000000000000000000000000000000000000000000000000000000000000000000000000000000000000000800000000000000000000000000000000000000000000000000000000000000000000000000000000000000000001000000000000000000000000000000000000000000000000000000000000000000000000000000000000000000000000000000000000000000008000000000000000000000000000000000000000000000000002000000000000000000000000000000000004000000000000000000000000040000000000000000000000000000000000000000000000000000000000000000000000000000",
      "type": "0x0",
      "transactionHash": "0xdd32a658cb0a97da66c8561695357cd2a5010663879561cd68be79a9299c5bdf",
      "transactionIndex": "0x16",
      "blockHash": "0x5275c6a6cf3bc0fc275ab2b9ddb9f32d2efb258a8e884e4f5f4b7401d57ed0bd",
      "blockNumber": "0x1ac4623",
      "gasUsed": "0x6e23",
      "effectiveGasPrice": "0xf42aa",
      "from": "0x75bbff2206b6ad50786ee3ce8a81edb72f3e381b",
      "to": "0x802ea91b5aaf53d067b0bb72bad4cc714e1855be",
      "contractAddress": null,
      "l1BaseFeeScalar": "0x44d",
      "l1BlobBaseFee": "0x2",
      "l1BlobBaseFeeScalar": "0xa118b",
      "l1Fee": "0xe2d26a10",
      "l1GasPrice": "0x80c25061",
      "l1GasUsed": "0x640"
    },
    {
      "status": "0x1",
      "cumulativeGasUsed": "0x59e344",
      "logs": [
        {
          "address": "0x802ea91b5aaf53d067b0bb72bad4cc714e1855be",
          "topics": [
            "0x238399d427b947898edb290f5ff0f9109849b1c3ba196a42e35f00c50a54b98b"
          ],
          "data": "0x0000000000000000000000000000000000000000000000000000000000009d2800000000000000000000000000626ed5fe6bf77ae13bea79e304cf6a5554903b",
          "blockHash": "0x5275c6a6cf3bc0fc275ab2b9ddb9f32d2efb258a8e884e4f5f4b7401d57ed0bd",
          "blockNumber": "0x1ac4623",
          "transactionHash": "0xd711bfb82b352948094078aef36477faec68dd048d49b30b0b6791516219cf00",
          "transactionIndex": "0x17",
          "logIndex": "0xea",
          "removed": false
        }
      ],
      "logsBloom": "0x00000000000000000000000000000000000000000000000000000000000000000000000000000000000000000000000000000000000000000800000000000000000000000000000000000000000000000000000000000000000000000000000000000000000001000000000000000000000000000000000000000000000000000000000000000000000000000000000000000000000000000000000000000000008000000000000000000000000000000000000000000000000002000000000000000000000000000000000004000000000000000000000000040000000000000000000000000000000000000000000000000000000000000000000000000000",
      "type": "0x0",
      "transactionHash": "0xd711bfb82b352948094078aef36477faec68dd048d49b30b0b6791516219cf00",
      "transactionIndex": "0x17",
      "blockHash": "0x5275c6a6cf3bc0fc275ab2b9ddb9f32d2efb258a8e884e4f5f4b7401d57ed0bd",
      "blockNumber": "0x1ac4623",
      "gasUsed": "0x6e17",
      "effectiveGasPrice": "0xf42aa",
      "from": "0x75bbff2206b6ad50786ee3ce8a81edb72f3e381b",
      "to": "0x802ea91b5aaf53d067b0bb72bad4cc714e1855be",
      "contractAddress": null,
      "l1BaseFeeScalar": "0x44d",
      "l1BlobBaseFee": "0x2",
      "l1BlobBaseFeeScalar": "0xa118b",
      "l1Fee": "0xe2d26a10",
      "l1GasPrice": "0x80c25061",
      "l1GasUsed": "0x640"
    }
  ],
  "libraries": [],
  "pending": [],
  "returns": {},
  "timestamp": 1751903015,
  "chain": 84532,
  "commit": "ceedac3"
}