{
  "transactions": [
    {
      "hash": "0x2b833f812c79f4ea9b5fd593c042a720233fd833e2953b2792eeaa8fe93d3a96",
      "transactionType": "CALL",
      "contractName": null,
      "contractAddress": "0xf059c386ba88da3c3919ede0e6209b66c4d3dee1",
      "function": "setPeer(uint32,bytes32)",
      "arguments": [
        "40245",
        "0x000000000000000000000000802ea91b5aaf53d067b0bb72bad4cc714e1855be"
      ],
      "transaction": {
        "from": "0x75bbff2206b6ad50786ee3ce8a81edb72f3e381b",
        "to": "0xf059c386ba88da3c3919ede0e6209b66c4d3dee1",
        "gas": "0xa112",
        "value": "0x0",
        "input": "0x3400288b0000000000000000000000000000000000000000000000000000000000009d35000000000000000000000000802ea91b5aaf53d067b0bb72bad4cc714e1855be",
        "nonce": "0x2d",
        "chainId": "0xaa36a7"
      },
      "additionalContracts": [],
      "isFixedGasLimit": false
    },
    {
      "hash": "0xa1c48060d9846bbb17cdaf6f2c2790e380a5600a58634c485559c6eebecf41d3",
      "transactionType": "CALL",
      "contractName": null,
      "contractAddress": "0xf059c386ba88da3c3919ede0e6209b66c4d3dee1",
      "function": "setPeer(uint32,bytes32)",
      "arguments": [
        "40232",
        "0x00000000000000000000000000626ed5fe6bf77ae13bea79e304cf6a5554903b"
      ],
      "transaction": {
        "from": "0x75bbff2206b6ad50786ee3ce8a81edb72f3e381b",
        "to": "0xf059c386ba88da3c3919ede0e6209b66c4d3dee1",
        "gas": "0x980f",
        "value": "0x0",
        "input": "0x3400288b0000000000000000000000000000000000000000000000000000000000009d2800000000000000000000000000626ed5fe6bf77ae13bea79e304cf6a5554903b",
        "nonce": "0x2e",
        "chainId": "0xaa36a7"
      },
      "additionalContracts": [],
      "isFixedGasLimit": false
    }
  ],
  "receipts": [
    {
      "status": "0x1",
      "cumulativeGasUsed": "0x116611d",
      "logs": [
        {
          "address": "0xf059c386ba88da3c3919ede0e6209b66c4d3dee1",
          "topics": [
            "0x238399d427b947898edb290f5ff0f9109849b1c3ba196a42e35f00c50a54b98b"
          ],
          "data": "0x0000000000000000000000000000000000000000000000000000000000009d35000000000000000000000000802ea91b5aaf53d067b0bb72bad4cc714e1855be",
          "blockHash": "0xd793fb5efb7d47f19d153039721b1aead5de27901022aa6c5aab480dae52d445",
          "blockNumber": "0x84f31e",
          "transactionHash": "0x2b833f812c79f4ea9b5fd593c042a720233fd833e2953b2792eeaa8fe93d3a96",
          "transactionIndex": "0xc6",
          "logIndex": "0x189",
          "removed": false
        }
      ],
      "logsBloom": "0x00000000000000000000000000000000000000000000000000000000000000000000000000000000000000000000000000000000000000400800000000000000000000000000000000000000000000000000000000000000000000000000000000000000000000000000000000000000000000000000000000000000000000000000000000000000000000000100000000000000000000000000000000000000000000000000000000000000000000000000000000000000000002000000000001000000000000000000000000000000000000000000000000040000000000000000000000000000000000000000000000000000000000000000000000000000",
      "type": "0x0",
      "transactionHash": "0x2b833f812c79f4ea9b5fd593c042a720233fd833e2953b2792eeaa8fe93d3a96",
      "transactionIndex": "0xc6",
      "blockHash": "0xd793fb5efb7d47f19d153039721b1aead5de27901022aa6c5aab480dae52d445",
      "blockNumber": "0x84f31e",
      "gasUsed": "0x6e23",
      "effectiveGasPrice": "0x72f319a6",
      "from": "0x75bbff2206b6ad50786ee3ce8a81edb72f3e381b",
      "to": "0xf059c386ba88da3c3919ede0e6209b66c4d3dee1",
      "contractAddress": null
    },
    {
      "status": "0x1",
      "cumulativeGasUsed": "0x116cf34",
      "logs": [
        {
          "address": "0xf059c386ba88da3c3919ede0e6209b66c4d3dee1",
          "topics": [
            "0x238399d427b947898edb290f5ff0f9109849b1c3ba196a42e35f00c50a54b98b"
          ],
          "data": "0x0000000000000000000000000000000000000000000000000000000000009d2800000000000000000000000000626ed5fe6bf77ae13bea79e304cf6a5554903b",
          "blockHash": "0xd793fb5efb7d47f19d153039721b1aead5de27901022aa6c5aab480dae52d445",
          "blockNumber": "0x84f31e",
          "transactionHash": "0xa1c48060d9846bbb17cdaf6f2c2790e380a5600a58634c485559c6eebecf41d3",
          "transactionIndex": "0xc7",
          "logIndex": "0x18a",
          "removed": false
        }
      ],
      "logsBloom": "0x00000000000000000000000000000000000000000000000000000000000000000000000000000000000000000000000000000000000000400800000000000000000000000000000000000000000000000000000000000000000000000000000000000000000000000000000000000000000000000000000000000000000000000000000000000000000000000100000000000000000000000000000000000000000000000000000000000000000000000000000000000000000002000000000001000000000000000000000000000000000000000000000000040000000000000000000000000000000000000000000000000000000000000000000000000000",
      "type": "0x0",
      "transactionHash": "0xa1c48060d9846bbb17cdaf6f2c2790e380a5600a58634c485559c6eebecf41d3",
      "transactionIndex": "0xc7",
      "blockHash": "0xd793fb5efb7d47f19d153039721b1aead5de27901022aa6c5aab480dae52d445",
      "blockNumber": "0x84f31e",
      "gasUsed": "0x6e17",
      "effectiveGasPrice": "0x72f319a6",
      "from": "0x75bbff2206b6ad50786ee3ce8a81edb72f3e381b",
      "to": "0xf059c386ba88da3c3919ede0e6209b66c4d3dee1",
      "contractAddress": null
    }
  ],
  "libraries": [],
  "pending": [],
  "returns": {},
  "timestamp": 1751903090,
  "chain": 11155111,
  "commit": "ceedac3"
}