{
  "transactions": [
    {
      "hash": "0xf9cb306dbb6960c60c68dad3962069d2f2814648f0a3a8453c66224d66006f4a",
      "transactionType": "CALL",
      "contractName": null,
      "contractAddress": "0x6cdd3cd1c677abbc347a0bde0eaf350311403638",
      "function": "setCustodian(address,bool)",
      "arguments": [
        "0x75BbFf2206b6Ad50786Ee3ce8A81eDb72f3e381b",
        "true"
      ],
      "transaction": {
        "from": "0x75bbff2206b6ad50786ee3ce8a81edb72f3e381b",
        "to": "0x6cdd3cd1c677abbc347a0bde0eaf350311403638",
        "gas": "0x1047b",
        "value": "0x0",
        "input": "0x1f49d1f100000000000000000000000075bbff2206b6ad50786ee3ce8a81edb72f3e381b0000000000000000000000000000000000000000000000000000000000000001",
        "nonce": "0x94",
        "chainId": "0x14a34"
      },
      "additionalContracts": [],
      "isFixedGasLimit": false
    }
  ],
  "receipts": [
    {
      "status": "0x1",
      "cumulativeGasUsed": "0x82cc06",
      "logs": [
        {
          "address": "0x6cdd3cd1c677abbc347a0bde0eaf350311403638",
          "topics": [
            "0x521b78128fea3cb75141ebc51da253ea47db9f81535838c850c2356037c4cc8b",
            "0x00000000000000000000000075bbff2206b6ad50786ee3ce8a81edb72f3e381b"
          ],
          "data": "0x0000000000000000000000000000000000000000000000000000000000000001",
          "blockHash": "0x7780a77c218275fd5760b83da373f4de1c30723b1f29c4fe8d9f1d3be62ef817",
          "blockNumber": "0x1ab92ac",
          "transactionHash": "0xf9cb306dbb6960c60c68dad3962069d2f2814648f0a3a8453c66224d66006f4a",
          "transactionIndex": "0x16",
          "logIndex": "0x10d",
          "removed": false
        }
      ],
      "logsBloom": "0x00000000000000000000000000000000000000000000000000000000000000000000000000000000000000000000000000000000000000000000000000000000000000000008000040000000000100000000000000000000000000000000000000000000000000000000000000000000000000000000000000000000000000000000000000000000000000000000000000000000000000000000000000000000000000000200400000000001000000000000000000000000000000000000000000000000004000000000000000000000000000000000000000000010000000000000000000000000000000000000000000000000000000000000000000000100",
      "type": "0x2",
      "transactionHash": "0xf9cb306dbb6960c60c68dad3962069d2f2814648f0a3a8453c66224d66006f4a",
      "transactionIndex": "0x16",
      "blockHash": "0x7780a77c218275fd5760b83da373f4de1c30723b1f29c4fe8d9f1d3be62ef817",
      "blockNumber": "0x1ab92ac",
      "gasUsed": "0xbc96",
      "effectiveGasPrice": "0xf4296",
      "from": "0x75bbff2206b6ad50786ee3ce8a81edb72f3e381b",
      "to": "0x6cdd3cd1c677abbc347a0bde0eaf350311403638",
      "contractAddress": null,
      "l1BaseFeeScalar": "0x44d",
      "l1BlobBaseFee": "0x1",
      "l1BlobBaseFeeScalar": "0xa118b",
      "l1Fee": "0x42c266a6",
      "l1GasPrice": "0x25e5a286",
      "l1GasUsed": "0x640"
    }
  ],
  "libraries": [],
  "pending": [],
  "returns": {},
  "timestamp": 1751811129,
  "chain": 84532,
  "commit": "64f3194"
}