{
  "transactions": [
    {
      "hash": "0xdf9296fb4473a9e71586c3b94b8bd3931ce7bbc715573593907ec861b4dc9da3",
      "transactionType": "CALL",
      "contractName": null,
      "contractAddress": "0xb386ef9d4c9fef67058dbc00b31126afe8d7600d",
      "function": "addAllowedToken(address)",
      "arguments": [
        "0x6f5249F8507445F1F0178eD162097bc4a262404E"
      ],
      "transaction": {
        "from": "0xf09494dda63f062856d3f166af4f2629c0ead56e",
        "to": "0xb386ef9d4c9fef67058dbc00b31126afe8d7600d",
        "gas": "0x1af16",
        "value": "0x0",
        "input": "0x4178617f0000000000000000000000006f5249f8507445f1f0178ed162097bc4a262404e",
        "nonce": "0x10",
        "chainId": "0xaa37dc"
      },
      "additionalContracts": [],
      "isFixedGasLimit": false
    },
    {
      "hash": "0xa97e6844c135c9d8d0dae34b49e51581cb08867c14884235764d5b0f5c3a087d",
      "transactionType": "CALL",
      "contractName": null,
      "contractAddress": "0xb386ef9d4c9fef67058dbc00b31126afe8d7600d",
      "function": "addAllowedToken(address)",
      "arguments": [
        "0xBc2945fa12bF06fC292dac00BbbaF1e52eFD5A22"
      ],
      "transaction": {
        "from": "0xf09494dda63f062856d3f166af4f2629c0ead56e",
        "to": "0xb386ef9d4c9fef67058dbc00b31126afe8d7600d",
        "gas": "0x19712",
        "value": "0x0",
        "input": "0x4178617f000000000000000000000000bc2945fa12bf06fc292dac00bbbaf1e52efd5a22",
        "nonce": "0x11",
        "chainId": "0xaa37dc"
      },
      "additionalContracts": [],
      "isFixedGasLimit": false
    },
    {
      "hash": "0xe6bf52afd4a585f6ed60d9997015695d9f64e4492f44dae94434d289dcb63d71",
      "transactionType": "CALL",
      "contractName": null,
      "contractAddress": "0xb386ef9d4c9fef67058dbc00b31126afe8d7600d",
      "function": "addAllowedToken(address)",
      "arguments": [
        "0xA57484Ac87b23668A19f388eB5812cCc5A8D1EEe"
      ],
      "transaction": {
        "from": "0xf09494dda63f062856d3f166af4f2629c0ead56e",
        "to": "0xb386ef9d4c9fef67058dbc00b31126afe8d7600d",
        "gas": "0x1af16",
        "value": "0x0",
        "input": "0x4178617f000000000000000000000000a57484ac87b23668a19f388eb5812ccc5a8d1eee",
        "nonce": "0x12",
        "chainId": "0xaa37dc"
      },
      "additionalContracts": [],
      "isFixedGasLimit": false
    },
    {
      "hash": "0xe7adcdc19c6d03bd42df6557ca944f7b3ca75157fc6374f1fce373b23adf8a8a",
      "transactionType": "CALL",
      "contractName": null,
      "contractAddress": "0x6f5249f8507445f1f0178ed162097bc4a262404e",
      "function": "approve(address,uint256)",
      "arguments": [
        "0x43a8a1FF7b7bC32aCbcCA638b2b40CADf45CD82d",
        "115792089237316195423570985008687907853269984665640564039457584007913129639935"
      ],
      "transaction": {
        "from": "0xf09494dda63f062856d3f166af4f2629c0ead56e",
        "to": "0x6f5249f8507445f1f0178ed162097bc4a262404e",
        "gas": "0xfaaf",
        "value": "0x0",
        "input": "0x095ea7b300000000000000000000000043a8a1ff7b7bc32acbcca638b2b40cadf45cd82dffffffffffffffffffffffffffffffffffffffffffffffffffffffffffffffff",
        "nonce": "0x13",
        "chainId": "0xaa37dc"
      },
      "additionalContracts": [],
      "isFixedGasLimit": false
    },
    {
      "hash": "0x41aca775f85ca718936bda2a9097cd19a0154955064acbd5f8de1db7422b2f4c",
      "transactionType": "CALL",
      "contractName": null,
      "contractAddress": "0xbc2945fa12bf06fc292dac00bbbaf1e52efd5a22",
      "function": "approve(address,uint256)",
      "arguments": [
        "0x43a8a1FF7b7bC32aCbcCA638b2b40CADf45CD82d",
        "115792089237316195423570985008687907853269984665640564039457584007913129639935"
      ],
      "transaction": {
        "from": "0xf09494dda63f062856d3f166af4f2629c0ead56e",
        "to": "0xbc2945fa12bf06fc292dac00bbbaf1e52efd5a22",
        "gas": "0xfaaf",
        "value": "0x0",
        "input": "0x095ea7b300000000000000000000000043a8a1ff7b7bc32acbcca638b2b40cadf45cd82dffffffffffffffffffffffffffffffffffffffffffffffffffffffffffffffff",
        "nonce": "0x14",
        "chainId": "0xaa37dc"
      },
      "additionalContracts": [],
      "isFixedGasLimit": false
    },
    {
      "hash": "0xe011e5a1195987107b862ca1b7058cf4f0535512ab695f6bb57794083f68c924",
      "transactionType": "CALL",
      "contractName": null,
      "contractAddress": "0xa57484ac87b23668a19f388eb5812ccc5a8d1eee",
      "function": "approve(address,uint256)",
      "arguments": [
        "0x43a8a1FF7b7bC32aCbcCA638b2b40CADf45CD82d",
        "115792089237316195423570985008687907853269984665640564039457584007913129639935"
      ],
      "transaction": {
        "from": "0xf09494dda63f062856d3f166af4f2629c0ead56e",
        "to": "0xa57484ac87b23668a19f388eb5812ccc5a8d1eee",
        "gas": "0xfaaf",
        "value": "0x0",
        "input": "0x095ea7b300000000000000000000000043a8a1ff7b7bc32acbcca638b2b40cadf45cd82dffffffffffffffffffffffffffffffffffffffffffffffffffffffffffffffff",
        "nonce": "0x15",
        "chainId": "0xaa37dc"
      },
      "additionalContracts": [],
      "isFixedGasLimit": false
    }
  ],
  "receipts": [
    {
      "status": "0x1",
      "cumulativeGasUsed": "0x1daeb",
      "logs": [
        {
          "address": "0xb386ef9d4c9fef67058dbc00b31126afe8d7600d",
          "topics": [
            "0xd9fe501fcbbaa721051d1c2bc6497e776b709b8d347939bc7ae3eb4ddf6208e8",
            "0x0000000000000000000000006f5249f8507445f1f0178ed162097bc4a262404e"
          ],
          "data": "0x00000000000000000000000000000000000000000000000000000000000000010000000000000000000000000000000000000000000000000000000000000008",
          "blockHash": "0x71ce79e5e0250fce4f69ada836501334ed1300232e32263bd2a3a35146f5eb07",
          "blockNumber": "0x1cab5e9",
          "transactionHash": "0xdf9296fb4473a9e71586c3b94b8bd3931ce7bbc715573593907ec861b4dc9da3",
          "transactionIndex": "0x1",
          "logIndex": "0x0",
          "removed": false
        }
      ],
      "logsBloom": "0x00000000001000000000000000002000000000000000000000000000000000000000000000000000000000000000000000000000000000000000000000000000000000000000000000000000000000000000000000000000000000000000000000000000000000000000000000000000000000000000000000000000000000000000000000000000000000000000000080000800000000000000000000000000000000000000000000004000000000000200000000400000000000000000000000000000000000000000000000000000000000000000000000000000000000000000000000000080000000000000000000000000000000000000000080000000",
      "type": "0x2",
      "transactionHash": "0xdf9296fb4473a9e71586c3b94b8bd3931ce7bbc715573593907ec861b4dc9da3",
      "transactionIndex": "0x1",
      "blockHash": "0x71ce79e5e0250fce4f69ada836501334ed1300232e32263bd2a3a35146f5eb07",
      "blockNumber": "0x1cab5e9",
      "gasUsed": "0x126c3",
      "effectiveGasPrice": "0xf433a",
      "from": "0xf09494dda63f062856d3f166af4f2629c0ead56e",
      "to": "0xb386ef9d4c9fef67058dbc00b31126afe8d7600d",
      "contractAddress": null,
      "l1BaseFeeScalar": "0x1db0",
      "l1BlobBaseFee": "0x1",
      "l1BlobBaseFeeScalar": "0xd2730",
      "l1Fee": "0x2a759",
      "l1GasPrice": "0x37d7",
      "l1GasUsed": "0x640"
    },
    {
      "status": "0x1",
      "cumulativeGasUsed": "0x301a2",
      "logs": [
        {
          "address": "0xb386ef9d4c9fef67058dbc00b31126afe8d7600d",
          "topics": [
            "0xd9fe501fcbbaa721051d1c2bc6497e776b709b8d347939bc7ae3eb4ddf6208e8",
            "0x000000000000000000000000bc2945fa12bf06fc292dac00bbbaf1e52efd5a22"
          ],
          "data": "0x00000000000000000000000000000000000000000000000000000000000000010000000000000000000000000000000000000000000000000000000000000008",
          "blockHash": "0x71ce79e5e0250fce4f69ada836501334ed1300232e32263bd2a3a35146f5eb07",
          "blockNumber": "0x1cab5e9",
          "blockTimestamp": "0x686c477e",
          "transactionHash": "0xa97e6844c135c9d8d0dae34b49e51581cb08867c14884235764d5b0f5c3a087d",
          "transactionIndex": "0x2",
          "logIndex": "0x1",
          "removed": false
        }
      ],
      "logsBloom": "0x00000000000000000000000000002000000000000000000000000000000000000000000000000000000000000000000000000000000000000000000000000000000000000000000000000000000000000000000000000000000000000000000000000000000000000000000000002000000000000000000000000000000000000000000000000000000000000000000000000800000000000000000000000000000000000000000000000000000000000200000000400000000000000000000000000000000000000000000000000000000000000000000000000000000000000000000000000180000000000000000000000100000000000000000080000000",
      "type": "0x2",
      "transactionHash": "0xa97e6844c135c9d8d0dae34b49e51581cb08867c14884235764d5b0f5c3a087d",
      "transactionIndex": "0x2",
      "blockHash": "0x71ce79e5e0250fce4f69ada836501334ed1300232e32263bd2a3a35146f5eb07",
      "blockNumber": "0x1cab5e9",
      "gasUsed": "0x126b7",
      "effectiveGasPrice": "0xf433a",
      "from": "0xf09494dda63f062856d3f166af4f2629c0ead56e",
      "to": "0xb386ef9d4c9fef67058dbc00b31126afe8d7600d",
      "contractAddress": null,
      "l1BaseFeeScalar": "0x1db0",
      "l1BlobBaseFee": "0x1",
      "l1BlobBaseFeeScalar": "0xd2730",
      "l1Fee": "0x2a759",
      "l1GasPrice": "0x37d7",
      "l1GasUsed": "0x640"
    },
    {
      "status": "0x1",
      "cumulativeGasUsed": "0x42865",
      "logs": [
        {
          "address": "0xb386ef9d4c9fef67058dbc00b31126afe8d7600d",
          "topics": [
            "0xd9fe501fcbbaa721051d1c2bc6497e776b709b8d347939bc7ae3eb4ddf6208e8",
            "0x000000000000000000000000a57484ac87b23668a19f388eb5812ccc5a8d1eee"
          ],
          "data": "0x00000000000000000000000000000000000000000000000000000000000000010000000000000000000000000000000000000000000000000000000000000006",
          "blockHash": "0x71ce79e5e0250fce4f69ada836501334ed1300232e32263bd2a3a35146f5eb07",
          "blockNumber": "0x1cab5e9",
          "transactionHash": "0xe6bf52afd4a585f6ed60d9997015695d9f64e4492f44dae94434d289dcb63d71",
          "transactionIndex": "0x3",
          "logIndex": "0x2",
          "removed": false
        }
      ],
      "logsBloom": "0x00000000000000000000000000002000000000000000000000000000000000000000000000000000000000000000000000000000000000000000000000000008000000000000000000000000000000000000000000000000000000000000000000000000000000000000000000000000000000000000000000000000000000000000000000000040000000000000000000000800000000000000000000000000000000000000000000000000000000000200000000400000000000000000000000000000000800000000000000000000000000000000000000000000000000000000000000000080000000000000000000000000000000000000000080000000",
      "type": "0x2",
      "transactionHash": "0xe6bf52afd4a585f6ed60d9997015695d9f64e4492f44dae94434d289dcb63d71",
      "transactionIndex": "0x3",
      "blockHash": "0x71ce79e5e0250fce4f69ada836501334ed1300232e32263bd2a3a35146f5eb07",
      "blockNumber": "0x1cab5e9",
      "gasUsed": "0x126c3",
      "effectiveGasPrice": "0xf433a",
      "from": "0xf09494dda63f062856d3f166af4f2629c0ead56e",
      "to": "0xb386ef9d4c9fef67058dbc00b31126afe8d7600d",
      "contractAddress": null,
      "l1BaseFeeScalar": "0x1db0",
      "l1BlobBaseFee": "0x1",
      "l1BlobBaseFeeScalar": "0xd2730",
      "l1Fee": "0x2a759",
      "l1GasPrice": "0x37d7",
      "l1GasUsed": "0x640"
    },
    {
      "status": "0x1",
      "cumulativeGasUsed": "0x4dde4",
      "logs": [
        {
          "address": "0x6f5249f8507445f1f0178ed162097bc4a262404e",
          "topics": [
            "0x8c5be1e5ebec7d5bd14f71427d1e84f3dd0314c0f7b2291e5b200ac8c7c3b925",
            "0x000000000000000000000000f09494dda63f062856d3f166af4f2629c0ead56e",
            "0x00000000000000000000000043a8a1ff7b7bc32acbcca638b2b40cadf45cd82d"
          ],
          "data": "0xffffffffffffffffffffffffffffffffffffffffffffffffffffffffffffffff",
          "blockHash": "0x71ce79e5e0250fce4f69ada836501334ed1300232e32263bd2a3a35146f5eb07",
          "blockNumber": "0x1cab5e9",
          "transactionHash": "0xe7adcdc19c6d03bd42df6557ca944f7b3ca75157fc6374f1fce373b23adf8a8a",
          "transactionIndex": "0x4",
          "logIndex": "0x3",
          "removed": false
        }
      ],
      "logsBloom": "0x20000100000000000000000000000000000000000000000040000000000000000000000000000000000000000000000000000000400000000000000000200000000000100000000000000000000000000000000000000000000000000000000000000000000000000400000000000000000000000000000000000000000000000000000000000000000000000000000000000000000000000000000080000000020040000000000000000001000000000000000000000000000000000000000000000000000000000000000000000000000000000000000000000000000000000010000000000000000000000000000000000000000000000000000000000000",
      "type": "0x2",
      "transactionHash": "0xe7adcdc19c6d03bd42df6557ca944f7b3ca75157fc6374f1fce373b23adf8a8a",
      "transactionIndex": "0x4",
      "blockHash": "0x71ce79e5e0250fce4f69ada836501334ed1300232e32263bd2a3a35146f5eb07",
      "blockNumber": "0x1cab5e9",
      "gasUsed": "0xb57f",
      "effectiveGasPrice": "0xf433a",
      "from": "0xf09494dda63f062856d3f166af4f2629c0ead56e",
      "to": "0x6f5249f8507445f1f0178ed162097bc4a262404e",
      "contractAddress": null,
      "l1BaseFeeScalar": "0x1db0",
      "l1BlobBaseFee": "0x1",
      "l1BlobBaseFeeScalar": "0xd2730",
      "l1Fee": "0x2a759",
      "l1GasPrice": "0x37d7",
      "l1GasUsed": "0x640"
    },
    {
      "status": "0x1",
      "cumulativeGasUsed": "0x59363",
      "logs": [
        {
          "address": "0xbc2945fa12bf06fc292dac00bbbaf1e52efd5a22",
          "topics": [
            "0x8c5be1e5ebec7d5bd14f71427d1e84f3dd0314c0f7b2291e5b200ac8c7c3b925",
            "0x000000000000000000000000f09494dda63f062856d3f166af4f2629c0ead56e",
            "0x00000000000000000000000043a8a1ff7b7bc32acbcca638b2b40cadf45cd82d"
          ],
          "data": "0xffffffffffffffffffffffffffffffffffffffffffffffffffffffffffffffff",
          "blockHash": "0x71ce79e5e0250fce4f69ada836501334ed1300232e32263bd2a3a35146f5eb07",
          "blockNumber": "0x1cab5e9",
          "blockTimestamp": "0x686c477e",
          "transactionHash": "0x41aca775f85ca718936bda2a9097cd19a0154955064acbd5f8de1db7422b2f4c",
          "transactionIndex": "0x5",
          "logIndex": "0x4",
          "removed": false
        }
      ],
      "logsBloom": "0x20000080000000000004000000000000000000000000000000000000000000000000000000000000000000000000000000000000400000000000000000200000000000000000000000000000000000000000000000000000000000000008000000000000000000000400000000000000000000000000000000000000000000000000000000000000000000000000000000000000000000000000000080000000020040000000000000000001000000000000000000000000000000000000000000000000000000000000000000000000000000000000000000000000000000000010000000000000000000000000000000000000000000000000000000000000",
      "type": "0x2",
      "transactionHash": "0x41aca775f85ca718936bda2a9097cd19a0154955064acbd5f8de1db7422b2f4c",
      "transactionIndex": "0x5",
      "blockHash": "0x71ce79e5e0250fce4f69ada836501334ed1300232e32263bd2a3a35146f5eb07",
      "blockNumber": "0x1cab5e9",
      "gasUsed": "0xb57f",
      "effectiveGasPrice": "0xf433a",
      "from": "0xf09494dda63f062856d3f166af4f2629c0ead56e",
      "to": "0xbc2945fa12bf06fc292dac00bbbaf1e52efd5a22",
      "contractAddress": null,
      "l1BaseFeeScalar": "0x1db0",
      "l1BlobBaseFee": "0x1",
      "l1BlobBaseFeeScalar": "0xd2730",
      "l1Fee": "0x2a759",
      "l1GasPrice": "0x37d7",
      "l1GasUsed": "0x640"
    },
    {
      "status": "0x1",
      "cumulativeGasUsed": "0x648e2",
      "logs": [
        {
          "address": "0xa57484ac87b23668a19f388eb5812ccc5a8d1eee",
          "topics": [
            "0x8c5be1e5ebec7d5bd14f71427d1e84f3dd0314c0f7b2291e5b200ac8c7c3b925",
            "0x000000000000000000000000f09494dda63f062856d3f166af4f2629c0ead56e",
            "0x00000000000000000000000043a8a1ff7b7bc32acbcca638b2b40cadf45cd82d"
          ],
          "data": "0xffffffffffffffffffffffffffffffffffffffffffffffffffffffffffffffff",
          "blockHash": "0x71ce79e5e0250fce4f69ada836501334ed1300232e32263bd2a3a35146f5eb07",
          "blockNumber": "0x1cab5e9",
          "blockTimestamp": "0x686c477e",
          "transactionHash": "0xe011e5a1195987107b862ca1b7058cf4f0535512ab695f6bb57794083f68c924",
          "transactionIndex": "0x6",
          "logIndex": "0x5",
          "removed": false
        }
      ],
      "logsBloom": "0x20000000000000000000000000000000000800000000000000000000000000000000000000000000000000000000000000000000400000000000000000200000000000000000000000000000000000000000000000000000000000000000000000000000000000000400000000000000000000000000000000000000000000000000000000000000000000000000000000000000000000000000000080000000020040000000000000000081000000000000000000000000000000000000000000000000000000000000000000000000000000000000000000000000000000000010000000000000000000000000000000000000000100000000000000000000",
      "type": "0x2",
      "transactionHash": "0xe011e5a1195987107b862ca1b7058cf4f0535512ab695f6bb57794083f68c924",
      "transactionIndex": "0x6",
      "blockHash": "0x71ce79e5e0250fce4f69ada836501334ed1300232e32263bd2a3a35146f5eb07",
      "blockNumber": "0x1cab5e9",
      "gasUsed": "0xb57f",
      "effectiveGasPrice": "0xf433a",
      "from": "0xf09494dda63f062856d3f166af4f2629c0ead56e",
      "to": "0xa57484ac87b23668a19f388eb5812ccc5a8d1eee",
      "contractAddress": null,
      "l1BaseFeeScalar": "0x1db0",
      "l1BlobBaseFee": "0x1",
      "l1BlobBaseFeeScalar": "0xd2730",
      "l1Fee": "0x2a759",
      "l1GasPrice": "0x37d7",
      "l1GasUsed": "0x640"
    }
  ],
  "libraries": [],
  "pending": [],
  "returns": {},
  "timestamp": 1751926655,
  "chain": 11155420,
  "commit": "ceedac3"
}