{
  "transactions": [
    {
      "hash": "0x92bd6e0df5995b9b7e01c619e786970101163cfd110eb75de8f1500e38b50206",
      "transactionType": "CALL",
      "contractName": null,
      "contractAddress": "0xad36450e98e3aea8d79fbc6d55c47c85ebcbb807",
      "function": "send((uint32,bytes32,uint256,uint256,bytes,bytes,bytes),(uint256,uint256),address)",
      "arguments": [
        "(40232, 0x000000000000000000000000f09494dda63f062856d3f166af4f2629c0ead56e, 100000000, 100000000, 0x0003010011010000000000000000000000000007a120, 0x, 0x)",
        "(500000000000000, 0)",
        "0xF09494DDA63F062856d3f166Af4F2629C0eAd56e"
      ],
      "transaction": {
        "from": "0xf09494dda63f062856d3f166af4f2629c0ead56e",
        "to": "0xad36450e98e3aea8d79fbc6d55c47c85ebcbb807",
        "gas": "0x55377",
        "value": "0x1c6bf52634000",
        "input": "0xc7c7f5b300000000000000000000000000000000000000000000000000000000000000800000000000000000000000000000000000000000000000000001c6bf526340000000000000000000000000000000000000000000000000000000000000000000000000000000000000000000f09494dda63f062856d3f166af4f2629c0ead56e0000000000000000000000000000000000000000000000000000000000009d28000000000000000000000000f09494dda63f062856d3f166af4f2629c0ead56e0000000000000000000000000000000000000000000000000000000005f5e1000000000000000000000000000000000000000000000000000000000005f5e10000000000000000000000000000000000000000000000000000000000000000e00000000000000000000000000000000000000000000000000000000000000120000000000000000000000000000000000000000000000000000000000000014000000000000000000000000000000000000000000000000000000000000000160003010011010000000000000000000000000007a1200000000000000000000000000000000000000000000000000000000000000000000000000000000000000000000000000000000000000000000000000000000000000000000000000000",
        "nonce": "0x3e",
        "chainId": "0x14a34"
      },
      "additionalContracts": [],
      "isFixedGasLimit": false
    }
  ],
  "receipts": [
    {
      "status": "0x1",
      "cumulativeGasUsed": "0x396f64",
      "logs": [
        {
          "address": "0xad36450e98e3aea8d79fbc6d55c47c85ebcbb807",
          "topics": [
            "0xddf252ad1be2c89b69c2b068fc378daa952ba7f163c4a11628f55a4df523b3ef",
            "0x000000000000000000000000f09494dda63f062856d3f166af4f2629c0ead56e",
            "0x0000000000000000000000000000000000000000000000000000000000000000"
          ],
          "data": "0x0000000000000000000000000000000000000000000000000000000005f5e100",
          "blockHash": "0x91120e4b78298384af873d53c3c4b8f2c287c156ef1606822f4559e77eef9ab0",
          "blockNumber": "0x1acf28e",
          "blockTimestamp": "0x686d43fc",
          "transactionHash": "0x92bd6e0df5995b9b7e01c619e786970101163cfd110eb75de8f1500e38b50206",
          "transactionIndex": "0x10",
          "logIndex": "0x7d",
          "removed": false
        },
        {
          "address": "0xc1868e054425d378095a003ecba3823a5d0135c9",
          "topics": [
            "0x61ed099e74a97a1d7f8bb0952a88ca8b7b8ebd00c126ea04671f92a81213318a"
          ],
          "data": "0x0000000000000000000000008a3d588d9f6ac041476b094f97ff94ec30169d3d00000000000000000000000000000000000000000000000000004ceb5181ea1b",
          "blockHash": "0x91120e4b78298384af873d53c3c4b8f2c287c156ef1606822f4559e77eef9ab0",
          "blockNumber": "0x1acf28e",
          "blockTimestamp": "0x686d43fc",
          "transactionHash": "0x92bd6e0df5995b9b7e01c619e786970101163cfd110eb75de8f1500e38b50206",
          "transactionIndex": "0x10",
          "logIndex": "0x7e",
          "removed": false
        },
        {
          "address": "0xc1868e054425d378095a003ecba3823a5d0135c9",
          "topics": [
            "0x07ea52d82345d6e838192107d8fd7123d9c2ec8e916cd0aad13fd2b60db24644"
          ],
          "data": "0x000000000000000000000000000000000000000000000000000000000000006000000000000000000000000000000000000000000000000000000000000000a000000000000000000000000000000000000000000000000000000000000000c00000000000000000000000000000000000000000000000000000000000000001000000000000000000000000e1a12515f9ab2764b887bf60b923ca494ebbb2d600000000000000000000000000000000000000000000000000000000000000000000000000000000000000000000000000000000000000000000000000000001000000000000000000000000000000000000000000000000000003e8a1209c03",
          "blockHash": "0x91120e4b78298384af873d53c3c4b8f2c287c156ef1606822f4559e77eef9ab0",
          "blockNumber": "0x1acf28e",
          "blockTimestamp": "0x686d43fc",
          "transactionHash": "0x92bd6e0df5995b9b7e01c619e786970101163cfd110eb75de8f1500e38b50206",
          "transactionIndex": "0x10",
          "logIndex": "0x7f",
          "removed": false
        },
        {
          "address": "0x6edce65403992e310a62460808c4b910d972f10f",
          "topics": [
            "0x1ab700d4ced0c005b164c0f789fd09fcbb0156d4c2041b8a3bfbcd961cd1567f"
          ],
          "data": "0x00000000000000000000000000000000000000000000000000000000000000600000000000000000000000000000000000000000000000000000000000000120000000000000000000000000c1868e054425d378095a003ecba3823a5d0135c9000000000000000000000000000000000000000000000000000000000000009901000000000000000100009d35000000000000000000000000ad36450e98e3aea8d79fbc6d55c47c85ebcbb80700009d280000000000000000000000004ffde609b6655e66299d97d347a8dc7fb26ae06205c87398a13ea6c2d0799632153a4d6f8679fe8d8dab173172ad2ea0e7a8e03f000000000000000000000000f09494dda63f062856d3f166af4f2629c0ead56e00000000000f42400000000000000000000000000000000000000000000000000000000000000000000000000000160003010011010000000000000000000000000007a12000000000000000000000",
          "blockHash": "0x91120e4b78298384af873d53c3c4b8f2c287c156ef1606822f4559e77eef9ab0",
          "blockNumber": "0x1acf28e",
          "blockTimestamp": "0x686d43fc",
          "transactionHash": "0x92bd6e0df5995b9b7e01c619e786970101163cfd110eb75de8f1500e38b50206",
          "transactionIndex": "0x10",
          "logIndex": "0x80",
          "removed": false
        },
        {
          "address": "0xad36450e98e3aea8d79fbc6d55c47c85ebcbb807",
          "topics": [
            "0x85496b760a4b7f8d66384b9df21b381f5d1b1e79f229a47aaf4c232edc2fe59a",
            "0x05c87398a13ea6c2d0799632153a4d6f8679fe8d8dab173172ad2ea0e7a8e03f",
            "0x000000000000000000000000f09494dda63f062856d3f166af4f2629c0ead56e"
          ],
          "data": "0x0000000000000000000000000000000000000000000000000000000000009d280000000000000000000000000000000000000000000000000000000005f5e1000000000000000000000000000000000000000000000000000000000005f5e100",
          "blockHash": "0x91120e4b78298384af873d53c3c4b8f2c287c156ef1606822f4559e77eef9ab0",
          "blockNumber": "0x1acf28e",
          "blockTimestamp": "0x686d43fc",
          "transactionHash": "0x92bd6e0df5995b9b7e01c619e786970101163cfd110eb75de8f1500e38b50206",
          "transactionIndex": "0x10",
          "logIndex": "0x81",
          "removed": false
        }
      ],
      "logsBloom": "0x00000000000000000000000000000000000000000000000000000000000000000000000000000200200000000000000000000000000000000080000000000000000002000000000000000008000004000000000000000000000000020000000000000000020000008200000000000800000000000008000000000011000000000000000000000020000000080000000000000000000000008000000080000000000040008000000000100001000000000000000000400000000440000000000080000002000000000000000080000000000000000000000000000000000020000000040000000000000000000000002000000000008000000000000000000000",
      "type": "0x2",
      "transactionHash": "0x92bd6e0df5995b9b7e01c619e786970101163cfd110eb75de8f1500e38b50206",
      "transactionIndex": "0x10",
      "blockHash": "0x91120e4b78298384af873d53c3c4b8f2c287c156ef1606822f4559e77eef9ab0",
      "blockNumber": "0x1acf28e",
      "gasUsed": "0x3db20",
      "effectiveGasPrice": "0xf42b2",
      "from": "0xf09494dda63f062856d3f166af4f2629c0ead56e",
      "to": "0xad36450e98e3aea8d79fbc6d55c47c85ebcbb807",
      "contractAddress": null,
      "l1BaseFeeScalar": "0x44d",
      "l1BlobBaseFee": "0x2",
      "l1BlobBaseFeeScalar": "0xa118b",
      "l1Fee": "0x3d93f0026",
      "l1GasPrice": "0x16d2dacbf",
      "l1GasUsed": "0x992"
    }
  ],
  "libraries": [],
  "pending": [],
  "returns": {},
  "timestamp": 1751991290,
  "chain": 84532,
  "commit": "b0335c7"
}