{
  "transactions": [
    {
      "hash": "0xf221e38eda7e05a06ca3fe576870595257643a4a7139f8ccca69755277fb48db",
      "transactionType": "CALL",
      "contractName": null,
      "contractAddress": "0x6edce65403992e310a62460808c4b910d972f10f",
      "function": "setConfig(address,address,(uint32,uint32,bytes)[])",
      "arguments": [
        "0x43a8a1FF7b7bC32aCbcCA638b2b40CADf45CD82d",
        "0xC1868e054425D378095A003EcbA3823a5D0135C9",
        "[(40232, 1, 0x00000000000000000000000000000000000000000000000000000000000027100000000000000000000000004208d6e27538189bb48e603d6123a94b8abe0a0b), (40232, 2, 0x0000000000000000000000000000000000000000000000000000000000000020000000000000000000000000000000000000000000000000000000000000000100000000000000000000000000000000000000000000000000000000000000010000000000000000000000000000000000000000000000000000000000000000000000000000000000000000000000000000000000000000000000000000000000000000000000000000000000000000000000000000000000000000000000c00000000000000000000000000000000000000000000000000000000000000100000000000000000000000000000000000000000000000000000000000000000100000000000000000000000088b27057a9e00c5f05dda29241027aff63f9e6e00000000000000000000000000000000000000000000000000000000000000000)]"
      ],
      "transaction": {
        "from": "0xf09494dda63f062856d3f166af4f2629c0ead56e",
        "to": "0x6edce65403992e310a62460808c4b910d972f10f",
        "gas": "0x33382",
        "value": "0x0",
        "input": "0x6dbd9f9000000000000000000000000043a8a1ff7b7bc32acbcca638b2b40cadf45cd82d000000000000000000000000c1868e054425d378095a003ecba3823a5d0135c900000000000000000000000000000000000000000000000000000000000000600000000000000000000000000000000000000000000000000000000000000002000000000000000000000000000000000000000000000000000000000000004000000000000000000000000000000000000000000000000000000000000001000000000000000000000000000000000000000000000000000000000000009d2800000000000000000000000000000000000000000000000000000000000000010000000000000000000000000000000000000000000000000000000000000060000000000000000000000000000000000000000000000000000000000000004000000000000000000000000000000000000000000000000000000000000027100000000000000000000000004208d6e27538189bb48e603d6123a94b8abe0a0b0000000000000000000000000000000000000000000000000000000000009d280000000000000000000000000000000000000000000000000000000000000002000000000000000000000000000000000000000000000000000000000000006000000000000000000000000000000000000000000000000000000000000001400000000000000000000000000000000000000000000000000000000000000020000000000000000000000000000000000000000000000000000000000000000100000000000000000000000000000000000000000000000000000000000000010000000000000000000000000000000000000000000000000000000000000000000000000000000000000000000000000000000000000000000000000000000000000000000000000000000000000000000000000000000000000000000000c00000000000000000000000000000000000000000000000000000000000000100000000000000000000000000000000000000000000000000000000000000000100000000000000000000000088b27057a9e00c5f05dda29241027aff63f9e6e00000000000000000000000000000000000000000000000000000000000000000",
        "nonce": "0x2f",
        "chainId": "0x14a34"
      },
      "additionalContracts": [],
      "isFixedGasLimit": false
    }
  ],
  "receipts": [
    {
      "status": "0x1",
      "cumulativeGasUsed": "0x34ec41",
      "logs": [
        {
          "address": "0xc1868e054425d378095a003ecba3823a5d0135c9",
          "topics": [
            "0x779cb2dd9d2bb1be1737d05435d744facbfb84a2a4912e21379d39beddcdc805"
          ],
          "data": "0x00000000000000000000000043a8a1ff7b7bc32acbcca638b2b40cadf45cd82d0000000000000000000000000000000000000000000000000000000000009d2800000000000000000000000000000000000000000000000000000000000027100000000000000000000000004208d6e27538189bb48e603d6123a94b8abe0a0b",
          "blockHash": "0x2ddcc70014e4e20d595159d988978f31a01fddf9169b8b15638eb8398a0d9c23",
          "blockNumber": "0x1ac8927",
          "transactionHash": "0xf221e38eda7e05a06ca3fe576870595257643a4a7139f8ccca69755277fb48db",
          "transactionIndex": "0xd",
          "logIndex": "0x77",
          "removed": false
        },
        {
          "address": "0xc1868e054425d378095a003ecba3823a5d0135c9",
          "topics": [
            "0x82118522aa536ac0e96cc5c689407ae42b89d592aa133890a01f1509842f5081"
          ],
          "data": "0x00000000000000000000000043a8a1ff7b7bc32acbcca638b2b40cadf45cd82d0000000000000000000000000000000000000000000000000000000000009d280000000000000000000000000000000000000000000000000000000000000060000000000000000000000000000000000000000000000000000000000000000100000000000000000000000000000000000000000000000000000000000000010000000000000000000000000000000000000000000000000000000000000000000000000000000000000000000000000000000000000000000000000000000000000000000000000000000000000000000000000000000000000000000000c00000000000000000000000000000000000000000000000000000000000000100000000000000000000000000000000000000000000000000000000000000000100000000000000000000000088b27057a9e00c5f05dda29241027aff63f9e6e00000000000000000000000000000000000000000000000000000000000000000",
          "blockHash": "0x2ddcc70014e4e20d595159d988978f31a01fddf9169b8b15638eb8398a0d9c23",
          "blockNumber": "0x1ac8927",
          "transactionHash": "0xf221e38eda7e05a06ca3fe576870595257643a4a7139f8ccca69755277fb48db",
          "transactionIndex": "0xd",
          "logIndex": "0x78",
          "removed": false
        }
      ],
      "logsBloom": "0x00000000000000000000000000000000000000000000000000000000000000000000000000000200000000000000000000000000000000000000000000000000000000000000000000000040000000000000000000000000002000020000000000000000000000000000000000000000000000000000000000000000000000000000000000000000000000000000000000000000000000000000000000000000000000000000000000000002000000000000000000000000000000000000000280000000000000000000000000000000000000000000000000000000000000000008000000000000000000000000000000000000000000000000000000000010",
      "type": "0x2",
      "transactionHash": "0xf221e38eda7e05a06ca3fe576870595257643a4a7139f8ccca69755277fb48db",
      "transactionIndex": "0xd",
      "blockHash": "0x2ddcc70014e4e20d595159d988978f31a01fddf9169b8b15638eb8398a0d9c23",
      "blockNumber": "0x1ac8927",
      "gasUsed": "0x23059",
      "effectiveGasPrice": "0xf07e8",
      "from": "0xf09494dda63f062856d3f166af4f2629c0ead56e",
      "to": "0x6edce65403992e310a62460808c4b910d972f10f",
      "contractAddress": null,
      "l1BaseFeeScalar": "0x44d",
      "l1BlobBaseFee": "0x1",
      "l1BlobBaseFeeScalar": "0xa118b",
      "l1Fee": "0x68e90",
      "l1GasPrice": "0x19f73",
      "l1GasUsed": "0xe54"
    }
  ],
  "libraries": [],
  "pending": [],
  "returns": {},
  "timestamp": 1751937328,
  "chain": 84532,
  "commit": "b0335c7"
}