{
  "transactions": [
    {
      "hash": "0x34469979d345fadcd04679d0025ba0ed7306ce2f418fc6f9d208aa6b5771eff1",
      "transactionType": "CALL",
      "contractName": null,
      "contractAddress": "0x802ea91b5aaf53d067b0bb72bad4cc714e1855be",
      "function": "setMinter(address)",
      "arguments": [
        "0xA73550548804cFf5dD23F1C67e360C3a22433f53"
      ],
      "transaction": {
        "from": "0x75bbff2206b6ad50786ee3ce8a81edb72f3e381b",
        "to": "0x802ea91b5aaf53d067b0bb72bad4cc714e1855be",
        "gas": "0xb0b1",
        "value": "0x0",
        "input": "0xfca3b5aa000000000000000000000000a73550548804cff5dd23f1c67e360c3a22433f53",
        "nonce": "0xce",
        "chainId": "0x14a34"
      },
      "additionalContracts": [],
      "isFixedGasLimit": false
    }
  ],
  "receipts": [
    {
      "status": "0x1",
      "cumulativeGasUsed": "0x3fa929",
      "logs": [
        {
          "address": "0x802ea91b5aaf53d067b0bb72bad4cc714e1855be",
          "topics": [
            "0x1cf2de25c5bf439ac0287061c3a0fa69b3b02867d0ccfd2ded34e42577050b73",
            "0x00000000000000000000000030cc05366cc687c0ab75e3908fe2b2c5bb679db8",
            "0x000000000000000000000000a73550548804cff5dd23f1c67e360c3a22433f53"
          ],
          "data": "0x",
          "blockHash": "0x1aac1841a131a45df0879cde93ab955e456348a1c4c9dfbd708b433a5f9815bc",
          "blockNumber": "0x1abe354",
          "blockTimestamp": "0x686b2588",
          "transactionHash": "0x34469979d345fadcd04679d0025ba0ed7306ce2f418fc6f9d208aa6b5771eff1",
          "transactionIndex": "0x17",
          "logIndex": "0x7c",
          "removed": false
        }
      ],
      "logsBloom": "0x00000000000000200000000000000000000000000000000000010000000000000000000000000000000000000000000000000000000000000000000000000000000800000000000200000010008000000000000000000000000001000000000000000000000001000000000000000000000000080000000000000000000000000000000000000000000000000000000000000000000000000000000000800000008000000000000000000000000000000000000000000000000000000000000000000000000000000000000004000000000000000000000000000000000000000000000000000000000000000000000000000000000000000000000000000000",
      "type": "0x2",
      "transactionHash": "0x34469979d345fadcd04679d0025ba0ed7306ce2f418fc6f9d208aa6b5771eff1",
      "transactionIndex": "0x17",
      "blockHash": "0x1aac1841a131a45df0879cde93ab955e456348a1c4c9dfbd708b433a5f9815bc",
      "blockNumber": "0x1abe354",
      "gasUsed": "0x78d1",
      "effectiveGasPrice": "0xf42d4",
      "from": "0x75bbff2206b6ad50786ee3ce8a81edb72f3e381b",
      "to": "0x802ea91b5aaf53d067b0bb72bad4cc714e1855be",
      "contractAddress": null,
      "l1BaseFeeScalar": "0x44d",
      "l1BlobBaseFee": "0x1",
      "l1BlobBaseFeeScalar": "0xa118b",
      "l1Fee": "0x418737",
      "l1GasPrice": "0x253292",
      "l1GasUsed": "0x640"
    }
  ],
  "libraries": [],
  "pending": [],
  "returns": {},
  "timestamp": 1751852424,
  "chain": 84532,
  "commit": "a88e290"
}