{
  "transactions": [
    {
      "hash": "0x34ace4cefb6493424f04c407c14d8641b7ee00699ed65ec9bce8bfe9db9af8bf",
      "transactionType": "CALL",
      "contractName": null,
      "contractAddress": "0xb34227f992e4ec3aa8d6937eb2c9ed92e2650acd",
      "function": "setPeer(uint32,bytes32)",
      "arguments": [
        "40161",
        "0x0000000000000000000000001101036be784e8a879729b0932be751ea4302010"
      ],
      "transaction": {
        "from": "0x75bbff2206b6ad50786ee3ce8a81edb72f3e381b",
        "to": "0xb34227f992e4ec3aa8d6937eb2c9ed92e2650acd",
        "gas": "0x10654",
        "value": "0x0",
        "input": "0x3400288b0000000000000000000000000000000000000000000000000000000000009ce10000000000000000000000001101036be784e8a879729b0932be751ea4302010",
        "nonce": "0x34",
        "chainId": "0xaa37dc"
      },
      "additionalContracts": [],
      "isFixedGasLimit": false
    },
    {
      "hash": "0x25dd590a4579b00e2bcb552a3e94791f9b93346d50136b0a15b463604ffdc725",
      "transactionType": "CALL",
      "contractName": null,
      "contractAddress": "0xb34227f992e4ec3aa8d6937eb2c9ed92e2650acd",
      "function": "setPeer(uint32,bytes32)",
      "arguments": [
        "40245",
        "0x00000000000000000000000080c0ee2cb545b9e9c739b5fda17578b1f0340004"
      ],
      "transaction": {
        "from": "0x75bbff2206b6ad50786ee3ce8a81edb72f3e381b",
        "to": "0xb34227f992e4ec3aa8d6937eb2c9ed92e2650acd",
        "gas": "0x115b2",
        "value": "0x0",
        "input": "0x3400288b0000000000000000000000000000000000000000000000000000000000009d3500000000000000000000000080c0ee2cb545b9e9c739b5fda17578b1f0340004",
        "nonce": "0x35",
        "chainId": "0xaa37dc"
      },
      "additionalContracts": [],
      "isFixedGasLimit": false
    }
  ],
  "receipts": [
    {
      "status": "0x1",
      "cumulativeGasUsed": "0x17215",
      "logs": [
        {
          "address": "0xb34227f992e4ec3aa8d6937eb2c9ed92e2650acd",
          "topics": [
            "0x238399d427b947898edb290f5ff0f9109849b1c3ba196a42e35f00c50a54b98b"
          ],
          "data": "0x0000000000000000000000000000000000000000000000000000000000009ce10000000000000000000000001101036be784e8a879729b0932be751ea4302010",
          "blockHash": "0xf6946157620a971d99e05541658249d7b55b37c62158bfbb3c56a4a5ed7c7204",
          "blockNumber": "0x1ca0c3f",
          "transactionHash": "0x34ace4cefb6493424f04c407c14d8641b7ee00699ed65ec9bce8bfe9db9af8bf",
          "transactionIndex": "0x1",
          "logIndex": "0x0",
          "removed": false
        }
      ],
      "logsBloom": "0x00000000000000000000000002000000000000000000000000000000000000000000000000000000000000000000000000000000000000000800000000000000000000000000000000000000000000000000000000000000000000000000000000000000000000000000000000000000000000000000000000000000000000000000000000040000000000000000000000000000000000000000000000000000000000000000000000000000000000000001000000000000000002000000000000000000000000000000000000000000000000000000000000040000000000000000000000000000000000000000000000000000000000000000000000000000",
      "type": "0x2",
      "transactionHash": "0x34ace4cefb6493424f04c407c14d8641b7ee00699ed65ec9bce8bfe9db9af8bf",
      "transactionIndex": "0x1",
      "blockHash": "0xf6946157620a971d99e05541658249d7b55b37c62158bfbb3c56a4a5ed7c7204",
      "blockNumber": "0x1ca0c3f",
      "gasUsed": "0xbded",
      "effectiveGasPrice": "0x10c9da",
      "from": "0x75bbff2206b6ad50786ee3ce8a81edb72f3e381b",
      "to": "0xb34227f992e4ec3aa8d6937eb2c9ed92e2650acd",
      "contractAddress": null,
      "l1BaseFeeScalar": "0x1db0",
      "l1BlobBaseFee": "0x1",
      "l1BlobBaseFeeScalar": "0xd2730",
      "l1Fee": "0x9f5a24",
      "l1GasPrice": "0xd1ac1",
      "l1GasUsed": "0x640"
    },
    {
      "status": "0x1",
      "cumulativeGasUsed": "0x22ff6",
      "logs": [
        {
          "address": "0xb34227f992e4ec3aa8d6937eb2c9ed92e2650acd",
          "topics": [
            "0x238399d427b947898edb290f5ff0f9109849b1c3ba196a42e35f00c50a54b98b"
          ],
          "data": "0x0000000000000000000000000000000000000000000000000000000000009d3500000000000000000000000080c0ee2cb545b9e9c739b5fda17578b1f0340004",
          "blockHash": "0xf6946157620a971d99e05541658249d7b55b37c62158bfbb3c56a4a5ed7c7204",
          "blockNumber": "0x1ca0c3f",
          "transactionHash": "0x25dd590a4579b00e2bcb552a3e94791f9b93346d50136b0a15b463604ffdc725",
          "transactionIndex": "0x2",
          "logIndex": "0x1",
          "removed": false
        }
      ],
      "logsBloom": "0x00000000000000000000000002000000000000000000000000000000000000000000000000000000000000000000000000000000000000000800000000000000000000000000000000000000000000000000000000000000000000000000000000000000000000000000000000000000000000000000000000000000000000000000000000040000000000000000000000000000000000000000000000000000000000000000000000000000000000000001000000000000000002000000000000000000000000000000000000000000000000000000000000040000000000000000000000000000000000000000000000000000000000000000000000000000",
      "type": "0x2",
      "transactionHash": "0x25dd590a4579b00e2bcb552a3e94791f9b93346d50136b0a15b463604ffdc725",
      "transactionIndex": "0x2",
      "blockHash": "0xf6946157620a971d99e05541658249d7b55b37c62158bfbb3c56a4a5ed7c7204",
      "blockNumber": "0x1ca0c3f",
      "gasUsed": "0xbde1",
      "effectiveGasPrice": "0x10c9da",
      "from": "0x75bbff2206b6ad50786ee3ce8a81edb72f3e381b",
      "to": "0xb34227f992e4ec3aa8d6937eb2c9ed92e2650acd",
      "contractAddress": null,
      "l1BaseFeeScalar": "0x1db0",
      "l1BlobBaseFee": "0x1",
      "l1BlobBaseFeeScalar": "0xd2730",
      "l1Fee": "0x9f5a24",
      "l1GasPrice": "0xd1ac1",
      "l1GasUsed": "0x640"
    }
  ],
  "libraries": [],
  "pending": [],
  "returns": {},
  "timestamp": 1751839786,
  "chain": 11155420,
  "commit": "a88e290"
}