{
  "transactions": [
    {
      "hash": "0x1a1dc79d763fd3adc461755a68578e0fe95bd21d2a30ff0c642ce4fc81edfc6f",
      "transactionType": "CALL",
      "contractName": null,
      "contractAddress": "0x43a8a1ff7b7bc32acbcca638b2b40cadf45cd82d",
      "function": "addMinter(address)",
      "arguments": [
        "0x3a0E701323156753bC0AD2979263F3D782Dfd81c"
      ],
      "transaction": {
        "from": "0xf09494dda63f062856d3f166af4f2629c0ead56e",
        "to": "0x43a8a1ff7b7bc32acbcca638b2b40cadf45cd82d",
        "gas": "0xff85",
        "value": "0x0",
        "input": "0x983b2d560000000000000000000000003a0e701323156753bc0ad2979263f3d782dfd81c",
        "nonce": "0x2d",
        "chainId": "0x14a34"
      },
      "additionalContracts": [],
      "isFixedGasLimit": false
    }
  ],
  "receipts": [
    {
      "status": "0x1",
      "cumulativeGasUsed": "0x5a7723",
      "logs": [
        {
          "address": "0x43a8a1ff7b7bc32acbcca638b2b40cadf45cd82d",
          "topics": [
            "0x6ae172837ea30b801fbfcdd4108aa1d5bf8ff775444fd70256b44e6bf3dfc3f6",
            "0x0000000000000000000000003a0e701323156753bc0ad2979263f3d782dfd81c"
          ],
          "data": "0x",
          "blockHash": "0x5eaa50e8faef76193e051c4db8942aea0affb389710fa0f8b19d3a5fd6183f4f",
          "blockNumber": "0x1ac864e",
          "transactionHash": "0x1a1dc79d763fd3adc461755a68578e0fe95bd21d2a30ff0c642ce4fc81edfc6f",
          "transactionIndex": "0x12",
          "logIndex": "0x10d",
          "removed": false
        }
      ],
      "logsBloom": "0x00800000000000000000000000000000000000000000000000000000000000000000000000000000000000000000000000000000000000000000000000000000000020000000000000000000000000000000000000040200000000000000000000000000000000000000000000000000000000008000000000200000000100000000000000000000000000000000000000000000000000000000000000000000000000000000000000000000000000000000000000000000000000000000000000000000000000000000008000000000000000000000000000000000000000000000000000000000000000000000000000000001000000000000000000000000",
      "type": "0x2",
      "transactionHash": "0x1a1dc79d763fd3adc461755a68578e0fe95bd21d2a30ff0c642ce4fc81edfc6f",
      "transactionIndex": "0x12",
      "blockHash": "0x5eaa50e8faef76193e051c4db8942aea0affb389710fa0f8b19d3a5fd6183f4f",
      "blockNumber": "0x1ac864e",
      "gasUsed": "0xb8ff",
      "effectiveGasPrice": "0xd8679",
      "from": "0xf09494dda63f062856d3f166af4f2629c0ead56e",
      "to": "0x43a8a1ff7b7bc32acbcca638b2b40cadf45cd82d",
      "contractAddress": null,
      "l1BaseFeeScalar": "0x44d",
      "l1BlobBaseFee": "0x2",
      "l1BlobBaseFeeScalar": "0xa118b",
      "l1Fee": "0x22844",
      "l1GasPrice": "0x13936",
      "l1GasUsed": "0x640"
    }
  ],
  "libraries": [],
  "pending": [],
  "returns": {},
  "timestamp": 1751935868,
  "chain": 84532,
  "commit": "ceedac3"
}