{
  "transactions": [
    {
      "hash": "0xe5e059aeba7f5fec2a81d6941475269d1b676c4317edc78dad4032e341d72f9b",
      "transactionType": "CALL",
      "contractName": null,
      "contractAddress": "0x8da7de3d18747ba6b8a788eb07dd40cd660ec860",
      "function": "approve(address,uint256)",
      "arguments": [
        "0x58c969172fa3A1D8379Eb942Bae4693d3b9cd58c",
        "100000000"
      ],
      "transaction": {
        "from": "0x75bbff2206b6ad50786ee3ce8a81edb72f3e381b",
        "to": "0x8da7de3d18747ba6b8a788eb07dd40cd660ec860",
        "gas": "0x9075",
        "value": "0x0",
        "input": "0x095ea7b300000000000000000000000058c969172fa3a1d8379eb942bae4693d3b9cd58c0000000000000000000000000000000000000000000000000000000005f5e100",
        "nonce": "0x8b",
        "chainId": "0x14a34"
      },
      "additionalContracts": [],
      "isFixedGasLimit": false
    },
    {
      "hash": "0xa5dc11d0d0a4dd147faa52deae925a92c9cf6fcbd8228bf3cfeacff8dc60d9e0",
      "transactionType": "CALL",
      "contractName": null,
      "contractAddress": "0x58c969172fa3a1d8379eb942bae4693d3b9cd58c",
      "function": "deposit(address,uint256)",
      "arguments": [
        "0x8dA7DE3D18747ba6b8A788Eb07dD40cD660eC860",
        "100000000"
      ],
      "transaction": {
        "from": "0x75bbff2206b6ad50786ee3ce8a81edb72f3e381b",
        "to": "0x58c969172fa3a1d8379eb942bae4693d3b9cd58c",
        "gas": "0x2351f",
        "value": "0x0",
        "input": "0x47e7ef240000000000000000000000008da7de3d18747ba6b8a788eb07dd40cd660ec8600000000000000000000000000000000000000000000000000000000005f5e100",
        "nonce": "0x8c",
        "chainId": "0x14a34"
      },
      "additionalContracts": [],
      "isFixedGasLimit": false
    }
  ],
  "receipts": [
    {
      "status": "0x1",
      "cumulativeGasUsed": "0x68b52c",
      "logs": [
        {
          "address": "0x8da7de3d18747ba6b8a788eb07dd40cd660ec860",
          "topics": [
            "0x8c5be1e5ebec7d5bd14f71427d1e84f3dd0314c0f7b2291e5b200ac8c7c3b925",
            "0x00000000000000000000000075bbff2206b6ad50786ee3ce8a81edb72f3e381b",
            "0x00000000000000000000000058c969172fa3a1d8379eb942bae4693d3b9cd58c"
          ],
          "data": "0x0000000000000000000000000000000000000000000000000000000005f5e100",
          "blockHash": "0xc60752042f27d19e9a4d5d19a2afc66b1221fb92a0d1c9cb2649f2bac961bde6",
          "blockNumber": "0x1ab8f42",
          "transactionHash": "0xe5e059aeba7f5fec2a81d6941475269d1b676c4317edc78dad4032e341d72f9b",
          "transactionIndex": "0x16",
          "logIndex": "0x123",
          "removed": false
        }
      ],
      "logsBloom": "0x00000000000000000000000000000000000000000000000000000000000000000000000000000000000000000010000000000000000000000000000000200000000000000000000000000000000100000000000000000000000000000000000000000000000000000000000000000000000000000000000000000000000000000000000000000000000000200000020000000000000000000000000000000000020000000001000000000001000000000000000000000000001000000000000000000000004000000000000000800000000000000000000000000000000000000010000000000000000000000000000000000000000000000000000000000000",
      "type": "0x2",
      "transactionHash": "0xe5e059aeba7f5fec2a81d6941475269d1b676c4317edc78dad4032e341d72f9b",
      "transactionIndex": "0x16",
      "blockHash": "0xc60752042f27d19e9a4d5d19a2afc66b1221fb92a0d1c9cb2649f2bac961bde6",
      "blockNumber": "0x1ab8f42",
      "gasUsed": "0x6896",
      "effectiveGasPrice": "0xf07fc",
      "from": "0x75bbff2206b6ad50786ee3ce8a81edb72f3e381b",
      "to": "0x8da7de3d18747ba6b8a788eb07dd40cd660ec860",
      "contractAddress": null,
      "l1BaseFeeScalar": "0x44d",
      "l1BlobBaseFee": "0x1",
      "l1BlobBaseFeeScalar": "0xa118b",
      "l1Fee": "0x262b8937",
      "l1GasPrice": "0x15aaf740",
      "l1GasUsed": "0x640"
    },
    {
      "status": "0x1",
      "cumulativeGasUsed": "0x6a4e50",
      "logs": [
        {
          "address": "0x8da7de3d18747ba6b8a788eb07dd40cd660ec860",
          "topics": [
            "0xddf252ad1be2c89b69c2b068fc378daa952ba7f163c4a11628f55a4df523b3ef",
            "0x00000000000000000000000075bbff2206b6ad50786ee3ce8a81edb72f3e381b",
            "0x00000000000000000000000058c969172fa3a1d8379eb942bae4693d3b9cd58c"
          ],
          "data": "0x0000000000000000000000000000000000000000000000000000000005f5e100",
          "blockHash": "0xc60752042f27d19e9a4d5d19a2afc66b1221fb92a0d1c9cb2649f2bac961bde6",
          "blockNumber": "0x1ab8f42",
          "transactionHash": "0xa5dc11d0d0a4dd147faa52deae925a92c9cf6fcbd8228bf3cfeacff8dc60d9e0",
          "transactionIndex": "0x17",
          "logIndex": "0x124",
          "removed": false
        },
        {
          "address": "0x8da7de3d18747ba6b8a788eb07dd40cd660ec860",
          "topics": [
            "0xddf252ad1be2c89b69c2b068fc378daa952ba7f163c4a11628f55a4df523b3ef",
            "0x00000000000000000000000058c969172fa3a1d8379eb942bae4693d3b9cd58c",
            "0x0000000000000000000000006cdd3cd1c677abbc347a0bde0eaf350311403638"
          ],
          "data": "0x0000000000000000000000000000000000000000000000000000000005f5e100",
          "blockHash": "0xc60752042f27d19e9a4d5d19a2afc66b1221fb92a0d1c9cb2649f2bac961bde6",
          "blockNumber": "0x1ab8f42",
          "transactionHash": "0xa5dc11d0d0a4dd147faa52deae925a92c9cf6fcbd8228bf3cfeacff8dc60d9e0",
          "transactionIndex": "0x17",
          "logIndex": "0x125",
          "removed": false
        },
        {
          "address": "0xf6c09dc46aa90ee3bcbe7ad955c5453d7247295f",
          "topics": [
            "0xddf252ad1be2c89b69c2b068fc378daa952ba7f163c4a11628f55a4df523b3ef",
            "0x0000000000000000000000000000000000000000000000000000000000000000",
            "0x00000000000000000000000075bbff2206b6ad50786ee3ce8a81edb72f3e381b"
          ],
          "data": "0x0000000000000000000000000000000000000000000000000000000005f5e100",
          "blockHash": "0xc60752042f27d19e9a4d5d19a2afc66b1221fb92a0d1c9cb2649f2bac961bde6",
          "blockNumber": "0x1ab8f42",
          "transactionHash": "0xa5dc11d0d0a4dd147faa52deae925a92c9cf6fcbd8228bf3cfeacff8dc60d9e0",
          "transactionIndex": "0x17",
          "logIndex": "0x126",
          "removed": false
        },
        {
          "address": "0x58c969172fa3a1d8379eb942bae4693d3b9cd58c",
          "topics": [
            "0xc0e3ea8d64c7b1024c2bff4eea99cd9bf7b3a8512020dcde824c6f09496a04f5",
            "0x00000000000000000000000075bbff2206b6ad50786ee3ce8a81edb72f3e381b",
            "0x0000000000000000000000008da7de3d18747ba6b8a788eb07dd40cd660ec860"
          ],
          "data": "0x0000000000000000000000000000000000000000000000000000000005f5e1000000000000000000000000000000000000000000000000000000000005f5e100",
          "blockHash": "0xc60752042f27d19e9a4d5d19a2afc66b1221fb92a0d1c9cb2649f2bac961bde6",
          "blockNumber": "0x1ab8f42",
          "transactionHash": "0xa5dc11d0d0a4dd147faa52deae925a92c9cf6fcbd8228bf3cfeacff8dc60d9e0",
          "transactionIndex": "0x17",
          "logIndex": "0x127",
          "removed": false
        }
      ],
      "logsBloom": "0x00800000000000000000000000000000000000000000000010000000000000000000000000000000000000002010000000000000000000400000000000000000000000000000000000000008000100000000000000000000000000000000000000000000020004000000400000000800000000000000000000000110000000000000000000000000000000200000020000000004000000000000000000000100000000000001000000000001000000000001000000000000001000000000000000000102204000000000000000800000000000000000004000000000000020000000000001000000000000000000000800000000000000000000000000000000",
      "type": "0x2",
      "transactionHash": "0xa5dc11d0d0a4dd147faa52deae925a92c9cf6fcbd8228bf3cfeacff8dc60d9e0",
      "transactionIndex": "0x17",
      "blockHash": "0xc60752042f27d19e9a4d5d19a2afc66b1221fb92a0d1c9cb2649f2bac961bde6",
      "blockNumber": "0x1ab8f42",
      "gasUsed": "0x19924",
      "effectiveGasPrice": "0xf07fc",
      "from": "0x75bbff2206b6ad50786ee3ce8a81edb72f3e381b",
      "to": "0x58c969172fa3a1d8379eb942bae4693d3b9cd58c",
      "contractAddress": null,
      "l1BaseFeeScalar": "0x44d",
      "l1BlobBaseFee": "0x1",
      "l1BlobBaseFeeScalar": "0xa118b",
      "l1Fee": "0x262b8937",
      "l1GasPrice": "0x15aaf740",
      "l1GasUsed": "0x640"
    }
  ],
  "libraries": [],
  "pending": [],
  "returns": {},
  "timestamp": 1751809381,
  "chain": 84532,
  "commit": "64f3194"
}