{
  "transactions": [
    {
      "hash": "0x65b2e7b7289a44470143f7d97082999931fb9d1cab78313204ece26b090f3534",
      "transactionType": "CALL",
      "contractName": null,
      "contractAddress": "0x8da7de3d18747ba6b8a788eb07dd40cd660ec860",
      "function": "approve(address,uint256)",
      "arguments": [
        "0x58c969172fa3A1D8379Eb942Bae4693d3b9cd58c",
        "100000000"
      ],
      "transaction": {
        "from": "0xf09494dda63f062856d3f166af4f2629c0ead56e",
        "to": "0x8da7de3d18747ba6b8a788eb07dd40cd660ec860",
        "gas": "0x10aa4",
        "value": "0x0",
        "input": "0x095ea7b300000000000000000000000058c969172fa3a1d8379eb942bae4693d3b9cd58c0000000000000000000000000000000000000000000000000000000005f5e100",
        "nonce": "0xa",
        "chainId": "0x14a34"
      },
      "additionalContracts": [],
      "isFixedGasLimit": false
    },
    {
      "hash": "0x161ef1899bd68f0c8b50f6efff95dfd1b3ac892abc69f027c07dc7c2f0882887",
      "transactionType": "CALL",
      "contractName": null,
      "contractAddress": "0x58c969172fa3a1d8379eb942bae4693d3b9cd58c",
      "function": "deposit(address,uint256)",
      "arguments": [
        "0x8dA7DE3D18747ba6b8A788Eb07dD40cD660eC860",
        "100000000"
      ],
      "transaction": {
        "from": "0xf09494dda63f062856d3f166af4f2629c0ead56e",
        "to": "0x58c969172fa3a1d8379eb942bae4693d3b9cd58c",
        "gas": "0x2351f",
        "value": "0x0",
        "input": "0x47e7ef240000000000000000000000008da7de3d18747ba6b8a788eb07dd40cd660ec8600000000000000000000000000000000000000000000000000000000005f5e100",
        "nonce": "0xb",
        "chainId": "0x14a34"
      },
      "additionalContracts": [],
      "isFixedGasLimit": false
    }
  ],
  "receipts": [
    {
      "status": "0x1",
      "cumulativeGasUsed": "0x3811e1",
      "logs": [
        {
          "address": "0x8da7de3d18747ba6b8a788eb07dd40cd660ec860",
          "topics": [
            "0x8c5be1e5ebec7d5bd14f71427d1e84f3dd0314c0f7b2291e5b200ac8c7c3b925",
            "0x000000000000000000000000f09494dda63f062856d3f166af4f2629c0ead56e",
            "0x00000000000000000000000058c969172fa3a1d8379eb942bae4693d3b9cd58c"
          ],
          "data": "0x0000000000000000000000000000000000000000000000000000000005f5e100",
          "blockHash": "0x2b09118ade6eb39fed4438e605a3e3e0c73721e2e0ff59bf9c82701a55809824",
          "blockNumber": "0x1ac6fc6",
          "blockTimestamp": "0x686c3e6c",
          "transactionHash": "0x65b2e7b7289a44470143f7d97082999931fb9d1cab78313204ece26b090f3534",
          "transactionIndex": "0x10",
          "logIndex": "0xab",
          "removed": false
        }
      ],
      "logsBloom": "0x00000000000000000000000000000000000000000000000000000000000000000000000000000000000000000010000000000000000000000000000000200000000000000000000000000000000000000000000000000000000000000000000000000000000000000000000000000000000000000000000000000000000000000000000000000000000000200000020000000000000000000000000080000000020040000001000000000001000000000000000000000000001000000000000000000000000000000000000000800000000000000000000000000000000000000010000000000000000000000000000000000000000000000000000000000000",
      "type": "0x2",
      "transactionHash": "0x65b2e7b7289a44470143f7d97082999931fb9d1cab78313204ece26b090f3534",
      "transactionIndex": "0x10",
      "blockHash": "0x2b09118ade6eb39fed4438e605a3e3e0c73721e2e0ff59bf9c82701a55809824",
      "blockNumber": "0x1ac6fc6",
      "gasUsed": "0xb652",
      "effectiveGasPrice": "0xf42b6",
      "from": "0xf09494dda63f062856d3f166af4f2629c0ead56e",
      "to": "0x8da7de3d18747ba6b8a788eb07dd40cd660ec860",
      "contractAddress": null,
      "l1BaseFeeScalar": "0x44d",
      "l1BlobBaseFee": "0x1",
      "l1BlobBaseFeeScalar": "0xa118b",
      "l1Fee": "0x933f",
      "l1GasPrice": "0x5371",
      "l1GasUsed": "0x640"
    },
    {
      "status": "0x1",
      "cumulativeGasUsed": "0x39ab05",
      "logs": [
        {
          "address": "0x8da7de3d18747ba6b8a788eb07dd40cd660ec860",
          "topics": [
            "0xddf252ad1be2c89b69c2b068fc378daa952ba7f163c4a11628f55a4df523b3ef",
            "0x000000000000000000000000f09494dda63f062856d3f166af4f2629c0ead56e",
            "0x00000000000000000000000058c969172fa3a1d8379eb942bae4693d3b9cd58c"
          ],
          "data": "0x0000000000000000000000000000000000000000000000000000000005f5e100",
          "blockHash": "0x2b09118ade6eb39fed4438e605a3e3e0c73721e2e0ff59bf9c82701a55809824",
          "blockNumber": "0x1ac6fc6",
          "blockTimestamp": "0x686c3e6c",
          "transactionHash": "0x161ef1899bd68f0c8b50f6efff95dfd1b3ac892abc69f027c07dc7c2f0882887",
          "transactionIndex": "0x11",
          "logIndex": "0xac",
          "removed": false
        },
        {
          "address": "0x8da7de3d18747ba6b8a788eb07dd40cd660ec860",
          "topics": [
            "0xddf252ad1be2c89b69c2b068fc378daa952ba7f163c4a11628f55a4df523b3ef",
            "0x00000000000000000000000058c969172fa3a1d8379eb942bae4693d3b9cd58c",
            "0x0000000000000000000000006cdd3cd1c677abbc347a0bde0eaf350311403638"
          ],
          "data": "0x0000000000000000000000000000000000000000000000000000000005f5e100",
          "blockHash": "0x2b09118ade6eb39fed4438e605a3e3e0c73721e2e0ff59bf9c82701a55809824",
          "blockNumber": "0x1ac6fc6",
          "blockTimestamp": "0x686c3e6c",
          "transactionHash": "0x161ef1899bd68f0c8b50f6efff95dfd1b3ac892abc69f027c07dc7c2f0882887",
          "transactionIndex": "0x11",
          "logIndex": "0xad",
          "removed": false
        },
        {
          "address": "0xf6c09dc46aa90ee3bcbe7ad955c5453d7247295f",
          "topics": [
            "0xddf252ad1be2c89b69c2b068fc378daa952ba7f163c4a11628f55a4df523b3ef",
            "0x0000000000000000000000000000000000000000000000000000000000000000",
            "0x000000000000000000000000f09494dda63f062856d3f166af4f2629c0ead56e"
          ],
          "data": "0x0000000000000000000000000000000000000000000000000000000005f5e100",
          "blockHash": "0x2b09118ade6eb39fed4438e605a3e3e0c73721e2e0ff59bf9c82701a55809824",
          "blockNumber": "0x1ac6fc6",
          "blockTimestamp": "0x686c3e6c",
          "transactionHash": "0x161ef1899bd68f0c8b50f6efff95dfd1b3ac892abc69f027c07dc7c2f0882887",
          "transactionIndex": "0x11",
          "logIndex": "0xae",
          "removed": false
        },
        {
          "address": "0x58c969172fa3a1d8379eb942bae4693d3b9cd58c",
          "topics": [
            "0xc0e3ea8d64c7b1024c2bff4eea99cd9bf7b3a8512020dcde824c6f09496a04f5",
            "0x000000000000000000000000f09494dda63f062856d3f166af4f2629c0ead56e",
            "0x0000000000000000000000008da7de3d18747ba6b8a788eb07dd40cd660ec860"
          ],
          "data": "0x0000000000000000000000000000000000000000000000000000000005f5e1000000000000000000000000000000000000000000000000000000000005f5e100",
          "blockHash": "0x2b09118ade6eb39fed4438e605a3e3e0c73721e2e0ff59bf9c82701a55809824",
          "blockNumber": "0x1ac6fc6",
          "blockTimestamp": "0x686c3e6c",
          "transactionHash": "0x161ef1899bd68f0c8b50f6efff95dfd1b3ac892abc69f027c07dc7c2f0882887",
          "transactionIndex": "0x11",
          "logIndex": "0xaf",
          "removed": false
        }
      ],
      "logsBloom": "0x00800000000000000000000000000000000000000000000010000000000000000000000000000000000000002010000000000000000000400000000000000000000000000000000000000008000000000000000000000000000000000000000000000000020004000000400000000800000000000000000000000110000000000000000000000000000000200000020000000004000000000000000080000100000040000001000000000001000000000001000000000000001000000000000000000102200000000000000000800000000000000000004000000000000020000000000001000000000000000000000800000000000000000000000000000000",
      "type": "0x2",
      "transactionHash": "0x161ef1899bd68f0c8b50f6efff95dfd1b3ac892abc69f027c07dc7c2f0882887",
      "transactionIndex": "0x11",
      "blockHash": "0x2b09118ade6eb39fed4438e605a3e3e0c73721e2e0ff59bf9c82701a55809824",
      "blockNumber": "0x1ac6fc6",
      "gasUsed": "0x19924",
      "effectiveGasPrice": "0xf42b6",
      "from": "0xf09494dda63f062856d3f166af4f2629c0ead56e",
      "to": "0x58c969172fa3a1d8379eb942bae4693d3b9cd58c",
      "contractAddress": null,
      "l1BaseFeeScalar": "0x44d",
      "l1BlobBaseFee": "0x1",
      "l1BlobBaseFeeScalar": "0xa118b",
      "l1Fee": "0x933f",
      "l1GasPrice": "0x5371",
      "l1GasUsed": "0x640"
    }
  ],
  "libraries": [],
  "pending": [],
  "returns": {},
  "timestamp": 1751924331,
  "chain": 84532,
  "commit": "ceedac3"
}