{
  "transactions": [
    {
      "hash": "0xfe112bda0ed7890a151496c09a111103e90295ed68dbb315895c90427f028b1a",
      "transactionType": "CALL",
      "contractName": "SovaBTCOFT",
      "contractAddress": "0x1b7227a7a6bcae6c64907b1b51dd0801c3e8ba30",
      "function": "setPeer(uint32,bytes32)",
      "arguments": [
        "40245",
        "0x00000000000000000000000043a8a1ff7b7bc32acbcca638b2b40cadf45cd82d"
      ],
      "transaction": {
        "from": "0xf09494dda63f062856d3f166af4f2629c0ead56e",
        "to": "0x1b7227a7a6bcae6c64907b1b51dd0801c3e8ba30",
        "gas": "0x10128",
        "value": "0x0",
        "input": "0x3400288b0000000000000000000000000000000000000000000000000000000000009d3500000000000000000000000043a8a1ff7b7bc32acbcca638b2b40cadf45cd82d",
        "nonce": "0x1b",
        "chainId": "0xaa37dc"
      },
      "additionalContracts": [],
      "isFixedGasLimit": false
    }
  ],
  "receipts": [
    {
      "status": "0x1",
      "cumulativeGasUsed": "0x16e62",
      "logs": [
        {
          "address": "0x1b7227a7a6bcae6c64907b1b51dd0801c3e8ba30",
          "topics": [
            "0x238399d427b947898edb290f5ff0f9109849b1c3ba196a42e35f00c50a54b98b"
          ],
          "data": "0x0000000000000000000000000000000000000000000000000000000000009d3500000000000000000000000043a8a1ff7b7bc32acbcca638b2b40cadf45cd82d",
          "blockHash": "0xb3aa16448b6a7307646b16677d571edbf9878ba53167a08f21bd1dc0baa2a202",
          "blockNumber": "0x1cac9bb",
          "blockTimestamp": "0x686c6f22",
          "transactionHash": "0xfe112bda0ed7890a151496c09a111103e90295ed68dbb315895c90427f028b1a",
          "transactionIndex": "0x1",
          "logIndex": "0x0",
          "removed": false
        }
      ],
      "logsBloom": "0x00000000000000000000000000000000000000000000000000000000000000000000000000000000000000000000000000000000010000000800000000000000000000000000000000000000000000000000000000000000000000000000000000000000000000000000000000000000000000000000000000000000000000000000000000000000000000008000000000000000000000000000000000000000000000000000000000000000000000000000000000000000000002000000000000000000000000000000000000000000000000000000400000040000000000000000000000000000000000000000000000000000000000000000000000000000",
      "type": "0x2",
      "transactionHash": "0xfe112bda0ed7890a151496c09a111103e90295ed68dbb315895c90427f028b1a",
      "transactionIndex": "0x1",
      "blockHash": "0xb3aa16448b6a7307646b16677d571edbf9878ba53167a08f21bd1dc0baa2a202",
      "blockNumber": "0x1cac9bb",
      "gasUsed": "0xba2e",
      "effectiveGasPrice": "0xf433a",
      "from": "0xf09494dda63f062856d3f166af4f2629c0ead56e",
      "to": "0x1b7227a7a6bcae6c64907b1b51dd0801c3e8ba30",
      "contractAddress": null,
      "l1BaseFeeScalar": "0x1db0",
      "l1BlobBaseFee": "0x1",
      "l1BlobBaseFeeScalar": "0xd2730",
      "l1Fee": "0x190846",
      "l1GasPrice": "0x20ef8",
      "l1GasUsed": "0x640"
    }
  ],
  "libraries": [],
  "pending": [],
  "returns": {},
  "timestamp": 1751936803,
  "chain": 11155420,
  "commit": "b0335c7"
}