{
  "transactions": [
    {
      "hash": "0x344e66020db6ad4598a94c37cbe593e696b3264ecc790511a1594b6cca361552",
      "transactionType": "CALL",
      "contractName": null,
      "contractAddress": "0x7a08af83566724f59d81413f3bd572e58711de7b",
      "function": "setRedemptionQueue(address)",
      "arguments": [
        "0xdD4284D33fFf9cBbe4c852664cB0496830ca46Ab"
      ],
      "transaction": {
        "from": "0xf09494dda63f062856d3f166af4f2629c0ead56e",
        "to": "0x7a08af83566724f59d81413f3bd572e58711de7b",
        "gas": "0xae22",
        "value": "0x0",
        "input": "0x3b4c46d0000000000000000000000000dd4284d33fff9cbbe4c852664cb0496830ca46ab",
        "nonce": "0x1f",
        "chainId": "0x14a34"
      },
      "additionalContracts": [],
      "isFixedGasLimit": false
    }
  ],
  "receipts": [
    {
      "status": "0x1",
      "cumulativeGasUsed": "0x9d9c2",
      "logs": [
        {
          "address": "0x7a08af83566724f59d81413f3bd572e58711de7b",
          "topics": [
            "0x8007ef0a9ea9bb02ffa304176988cddfef71147b01a3159a9b311422923bddf9",
            "0x000000000000000000000000bb95e1e4dbaab783264947c19fa4e7398621af23",
            "0x000000000000000000000000dd4284d33fff9cbbe4c852664cb0496830ca46ab"
          ],
          "data": "0x",
          "blockHash": "0x0f1c78c7b5e7e32e063d51ada28a3c734cf74d3321162d1dc7df7b5afdf209b0",
          "blockNumber": "0x1ac7441",
          "blockTimestamp": "0x686c4762",
          "transactionHash": "0x344e66020db6ad4598a94c37cbe593e696b3264ecc790511a1594b6cca361552",
          "transactionIndex": "0x5",
          "logIndex": "0x12",
          "removed": false
        }
      ],
      "logsBloom": "0x00000000000000000002000000004000000000000000000000000000000000000000000000000000000000000001800000000000000000001000000000000000000000000000000000000000000000000000000000010000000000000000000000000000000020000000000000002000000000000000000000000000000000000000000000000000000000000000000000000000000000000000000000000000000000000000000000000000000000000000000000000000000000000010000000000000000800000000000000000000000000000000000000040000000000000000000080000000000000000000000000000000000000000000000000000000",
      "type": "0x2",
      "transactionHash": "0x344e66020db6ad4598a94c37cbe593e696b3264ecc790511a1594b6cca361552",
      "transactionIndex": "0x5",
      "blockHash": "0x0f1c78c7b5e7e32e063d51ada28a3c734cf74d3321162d1dc7df7b5afdf209b0",
      "blockNumber": "0x1ac7441",
      "gasUsed": "0x7711",
      "effectiveGasPrice": "0xecd96",
      "from": "0xf09494dda63f062856d3f166af4f2629c0ead56e",
      "to": "0x7a08af83566724f59d81413f3bd572e58711de7b",
      "contractAddress": null,
      "l1BaseFeeScalar": "0x44d",
      "l1BlobBaseFee": "0x1",
      "l1BlobBaseFeeScalar": "0xa118b",
      "l1Fee": "0xb100",
      "l1GasPrice": "0x6455",
      "l1GasUsed": "0x640"
    }
  ],
  "libraries": [],
  "pending": [],
  "returns": {},
  "timestamp": 1751926624,
  "chain": 84532,
  "commit": "ceedac3"
}