{
  "transactions": [
    {
      "hash": "0x3d91ed3e7b00ccfb972017da650ce7899cd2bc2229b4057d8138e96d5b96dddd",
      "transactionType": "CALL",
      "contractName": null,
      "contractAddress": "0x8da7de3d18747ba6b8a788eb07dd40cd660ec860",
      "function": "mint(address,uint256)",
      "arguments": [
        "0xF09494DDA63F062856d3f166Af4F2629C0eAd56e",
        "10000000000"
      ],
      "transaction": {
        "from": "0xf09494dda63f062856d3f166af4f2629c0ead56e",
        "to": "0x8da7de3d18747ba6b8a788eb07dd40cd660ec860",
        "gas": "0x11771",
        "value": "0x0",
        "input": "0x40c10f19000000000000000000000000f09494dda63f062856d3f166af4f2629c0ead56e00000000000000000000000000000000000000000000000000000002540be400",
        "nonce": "0x4",
        "chainId": "0x14a34"
      },
      "additionalContracts": [],
      "isFixedGasLimit": false
    },
    {
      "hash": "0x21751edcf48eb7b005ce084cb6535952a3171d1ef678c7d15af7311f27fdbbed",
      "transactionType": "CALL",
      "contractName": null,
      "contractAddress": "0x51d539a147d92a00a040b8a43981a51f29b765f6",
      "function": "mint(address,uint256)",
      "arguments": [
        "0xF09494DDA63F062856d3f166Af4F2629C0eAd56e",
        "10000000000"
      ],
      "transaction": {
        "from": "0xf09494dda63f062856d3f166af4f2629c0ead56e",
        "to": "0x51d539a147d92a00a040b8a43981a51f29b765f6",
        "gas": "0x11771",
        "value": "0x0",
        "input": "0x40c10f19000000000000000000000000f09494dda63f062856d3f166af4f2629c0ead56e00000000000000000000000000000000000000000000000000000002540be400",
        "nonce": "0x5",
        "chainId": "0x14a34"
      },
      "additionalContracts": [],
      "isFixedGasLimit": false
    },
    {
      "hash": "0x5908ff3da0c1dccea0a859ebc8d78a2b9f75163435ea231eaf776928c1647aa1",
      "transactionType": "CALL",
      "contractName": null,
      "contractAddress": "0xd6ea412149b7cbb80f9a81c0a99e5bda0434fbc7",
      "function": "mint(address,uint256)",
      "arguments": [
        "0xF09494DDA63F062856d3f166Af4F2629C0eAd56e",
        "10000000000"
      ],
      "transaction": {
        "from": "0xf09494dda63f062856d3f166af4f2629c0ead56e",
        "to": "0xd6ea412149b7cbb80f9a81c0a99e5bda0434fbc7",
        "gas": "0x11771",
        "value": "0x0",
        "input": "0x40c10f19000000000000000000000000f09494dda63f062856d3f166af4f2629c0ead56e00000000000000000000000000000000000000000000000000000002540be400",
        "nonce": "0x6",
        "chainId": "0x14a34"
      },
      "additionalContracts": [],
      "isFixedGasLimit": false
    }
  ],
  "receipts": [
    {
      "status": "0x1",
      "cumulativeGasUsed": "0x299e8b",
      "logs": [
        {
          "address": "0x8da7de3d18747ba6b8a788eb07dd40cd660ec860",
          "topics": [
            "0xddf252ad1be2c89b69c2b068fc378daa952ba7f163c4a11628f55a4df523b3ef",
            "0x0000000000000000000000000000000000000000000000000000000000000000",
            "0x000000000000000000000000f09494dda63f062856d3f166af4f2629c0ead56e"
          ],
          "data": "0x00000000000000000000000000000000000000000000000000000002540be400",
          "blockHash": "0x540481dd63529c1f721f6342c2577cfdf4906fd76c873c7e076406f6d319aa15",
          "blockNumber": "0x1ac6faf",
          "blockTimestamp": "0x686c3e3e",
          "transactionHash": "0x3d91ed3e7b00ccfb972017da650ce7899cd2bc2229b4057d8138e96d5b96dddd",
          "transactionIndex": "0x9",
          "logIndex": "0x62",
          "removed": false
        }
      ],
      "logsBloom": "0x00000000000000000000000000000000000000000000000000000000000000000000000000000000000000000000000000000000000000000000000000000000000000000000000000000008000000000000000000000000000000000000000000000000020000000000000000000800000000000000000000000010000000000000000000000000000000000000000000000000000000000000000080000000000040000001000000000001000000000000000000000000001000000000000000000002000000000000000000800000000000000000000000000000000020000000000000000000000000000000000000000000000000000000000000000000",
      "type": "0x2",
      "transactionHash": "0x3d91ed3e7b00ccfb972017da650ce7899cd2bc2229b4057d8138e96d5b96dddd",
      "transactionIndex": "0x9",
      "blockHash": "0x540481dd63529c1f721f6342c2577cfdf4906fd76c873c7e076406f6d319aa15",
      "blockNumber": "0x1ac6faf",
      "gasUsed": "0xca50",
      "effectiveGasPrice": "0xecd86",
      "from": "0xf09494dda63f062856d3f166af4f2629c0ead56e",
      "to": "0x8da7de3d18747ba6b8a788eb07dd40cd660ec860",
      "contractAddress": null,
      "l1BaseFeeScalar": "0x44d",
      "l1BlobBaseFee": "0x1",
      "l1BlobBaseFeeScalar": "0xa118b",
      "l1Fee": "0x7f25",
      "l1GasPrice": "0x4808",
      "l1GasUsed": "0x640"
    },
    {
      "status": "0x1",
      "cumulativeGasUsed": "0x2a68db",
      "logs": [
        {
          "address": "0x51d539a147d92a00a040b8a43981a51f29b765f6",
          "topics": [
            "0xddf252ad1be2c89b69c2b068fc378daa952ba7f163c4a11628f55a4df523b3ef",
            "0x0000000000000000000000000000000000000000000000000000000000000000",
            "0x000000000000000000000000f09494dda63f062856d3f166af4f2629c0ead56e"
          ],
          "data": "0x00000000000000000000000000000000000000000000000000000002540be400",
          "blockHash": "0xacf4e52932d37a9eec704dcd53ca75fb34448dc6e91765de2b16a019c33aa97f",
          "blockNumber": "0x1ac6faf",
          "blockTimestamp": "0x686c3e3e",
          "transactionHash": "0x21751edcf48eb7b005ce084cb6535952a3171d1ef678c7d15af7311f27fdbbed",
          "transactionIndex": "0xa",
          "logIndex": "0x63",
          "removed": false
        }
      ],
      "logsBloom": "0x00000000000000000000000000000000000000000000000000000008000000000000000001000000000000000000000000000000000000000000000000000000000000000000000000000008000000000000000000000000000000000000000000000000020000000000000000000800000000000000000008000010000000000000000000000000000000000000000000000000000000000000000080000000000040000000000000000001000000000000000000000000000000000000000000000002000000000000000000000000000000000000000000000000000020000000000000000000000000000000000000000000000000000000000000000000",
      "type": "0x2",
      "transactionHash": "0x21751edcf48eb7b005ce084cb6535952a3171d1ef678c7d15af7311f27fdbbed",
      "transactionIndex": "0xa",
      "blockHash": "0xacf4e52932d37a9eec704dcd53ca75fb34448dc6e91765de2b16a019c33aa97f",
      "blockNumber": "0x1ac6faf",
      "gasUsed": "0xca50",
      "effectiveGasPrice": "0xecd86",
      "from": "0xf09494dda63f062856d3f166af4f2629c0ead56e",
      "to": "0x51d539a147d92a00a040b8a43981a51f29b765f6",
      "contractAddress": null,
      "l1BaseFeeScalar": "0x44d",
      "l1BlobBaseFee": "0x1",
      "l1BlobBaseFeeScalar": "0xa118b",
      "l1Fee": "0x7f25",
      "l1GasPrice": "0x4808",
      "l1GasUsed": "0x640"
    },
    {
      "status": "0x1",
      "cumulativeGasUsed": "0x2b332b",
      "logs": [
        {
          "address": "0xd6ea412149b7cbb80f9a81c0a99e5bda0434fbc7",
          "topics": [
            "0xddf252ad1be2c89b69c2b068fc378daa952ba7f163c4a11628f55a4df523b3ef",
            "0x0000000000000000000000000000000000000000000000000000000000000000",
            "0x000000000000000000000000f09494dda63f062856d3f166af4f2629c0ead56e"
          ],
          "data": "0x00000000000000000000000000000000000000000000000000000002540be400",
          "blockHash": "0x540481dd63529c1f721f6342c2577cfdf4906fd76c873c7e076406f6d319aa15",
          "blockNumber": "0x1ac6faf",
          "blockTimestamp": "0x686c3e3e",
          "transactionHash": "0x5908ff3da0c1dccea0a859ebc8d78a2b9f75163435ea231eaf776928c1647aa1",
          "transactionIndex": "0xb",
          "logIndex": "0x64",
          "removed": false
        }
      ],
      "logsBloom": "0x00000000000000000000000000000000000000000000000000000000002000000000000000000400000000000000000000000000000000000000000000000000000000000000000000000008000000000000000000000000000000000000000000000100020000000000000000000800000000000000000000000010000000000000000000000000000000000000000000000000000000000000000080000000000040000000000000000001000000000000000000000000000000000000000000000002000000000000000000000000000000000000000000000000000020000000000000000000000000000000000000000000000000000000000000000000",
      "type": "0x2",
      "transactionHash": "0x5908ff3da0c1dccea0a859ebc8d78a2b9f75163435ea231eaf776928c1647aa1",
      "transactionIndex": "0xb",
      "blockHash": "0x540481dd63529c1f721f6342c2577cfdf4906fd76c873c7e076406f6d319aa15",
      "blockNumber": "0x1ac6faf",
      "gasUsed": "0xca50",
      "effectiveGasPrice": "0xecd86",
      "from": "0xf09494dda63f062856d3f166af4f2629c0ead56e",
      "to": "0xd6ea412149b7cbb80f9a81c0a99e5bda0434fbc7",
      "contractAddress": null,
      "l1BaseFeeScalar": "0x44d",
      "l1BlobBaseFee": "0x1",
      "l1BlobBaseFeeScalar": "0xa118b",
      "l1Fee": "0x7f25",
      "l1GasPrice": "0x4808",
      "l1GasUsed": "0x640"
    }
  ],
  "libraries": [],
  "pending": [],
  "returns": {},
  "timestamp": 1751924284,
  "chain": 84532,
  "commit": "ceedac3"
}