{
  "transactions": [
    {
      "hash": "0xc88a25be669ea16cc99f0e9d68d95aeb5008af40713d51ed51cb7a3d03f4e7e4",
      "transactionType": "CALL",
      "contractName": null,
      "contractAddress": "0x4ffde609b6655e66299d97d347a8dc7fb26ae062",
      "function": "setPeer(uint32,bytes32)",
      "arguments": [
        "40245",
        "0x000000000000000000000000ad36450e98e3aea8d79fbc6d55c47c85ebcbb807"
      ],
      "transaction": {
        "from": "0xf09494dda63f062856d3f166af4f2629c0ead56e",
        "to": "0x4ffde609b6655e66299d97d347a8dc7fb26ae062",
        "gas": "0x10128",
        "value": "0x0",
        "input": "0x3400288b0000000000000000000000000000000000000000000000000000000000009d35000000000000000000000000ad36450e98e3aea8d79fbc6d55c47c85ebcbb807",
        "nonce": "0x1f",
        "chainId": "0xaa37dc"
      },
      "additionalContracts": [],
      "isFixedGasLimit": false
    }
  ],
  "receipts": [
    {
      "status": "0x1",
      "cumulativeGasUsed": "0x16e62",
      "logs": [
        {
          "address": "0x4ffde609b6655e66299d97d347a8dc7fb26ae062",
          "topics": [
            "0x238399d427b947898edb290f5ff0f9109849b1c3ba196a42e35f00c50a54b98b"
          ],
          "data": "0x0000000000000000000000000000000000000000000000000000000000009d35000000000000000000000000ad36450e98e3aea8d79fbc6d55c47c85ebcbb807",
          "blockHash": "0x4db4db7035e7cefa6cc3f823243c225f484248bcaed3fd43112591c9530efe70",
          "blockNumber": "0x1cad499",
          "blockTimestamp": "0x686c84de",
          "transactionHash": "0xc88a25be669ea16cc99f0e9d68d95aeb5008af40713d51ed51cb7a3d03f4e7e4",
          "transactionIndex": "0x1",
          "logIndex": "0x0",
          "removed": false
        }
      ],
      "logsBloom": "0x00000000000000000000000000000000000000000000000000000000000000000000000000000000000000000000000000000010000000000800000000000000000000000000000000000000000000000000000000000000000000000000000000000000000000000000000000000000000000000000000000000000000000000000000000000000000000000000000000000000000000000000000000000000000000004000000000000000000000000000000000000000000002000000000000000000000000000000000000000000000000000000000000040000000000000000000000000000000000000400000000000000000000000000000000000000",
      "type": "0x2",
      "transactionHash": "0xc88a25be669ea16cc99f0e9d68d95aeb5008af40713d51ed51cb7a3d03f4e7e4",
      "transactionIndex": "0x1",
      "blockHash": "0x4db4db7035e7cefa6cc3f823243c225f484248bcaed3fd43112591c9530efe70",
      "blockNumber": "0x1cad499",
      "gasUsed": "0xba2e",
      "effectiveGasPrice": "0xf433a",
      "from": "0xf09494dda63f062856d3f166af4f2629c0ead56e",
      "to": "0x4ffde609b6655e66299d97d347a8dc7fb26ae062",
      "contractAddress": null,
      "l1BaseFeeScalar": "0x1db0",
      "l1BlobBaseFee": "0x1",
      "l1BlobBaseFeeScalar": "0xd2730",
      "l1Fee": "0x16bc086",
      "l1GasPrice": "0x1de9e9",
      "l1GasUsed": "0x640"
    }
  ],
  "libraries": [],
  "pending": [],
  "returns": {},
  "timestamp": 1751942367,
  "chain": 11155420,
  "commit": "b0335c7"
}