{
  "transactions": [
    {
      "hash": "0x33b6cb28d4b87698c2f1efcdb18a9a4d8d96c175f220eaf18d446965c77ac1d6",
      "transactionType": "CALL",
      "contractName": null,
      "contractAddress": "0x802ea91b5aaf53d067b0bb72bad4cc714e1855be",
      "function": "setMinter(address)",
      "arguments": [
        "0x30cc05366CC687c0ab75e3908Fe2b2C5BB679db8"
      ],
      "transaction": {
        "from": "0x75bbff2206b6ad50786ee3ce8a81edb72f3e381b",
        "to": "0x802ea91b5aaf53d067b0bb72bad4cc714e1855be",
        "gas": "0xb0b1",
        "value": "0x0",
        "input": "0xfca3b5aa00000000000000000000000030cc05366cc687c0ab75e3908fe2b2c5bb679db8",
        "nonce": "0xd8",
        "chainId": "0x14a34"
      },
      "additionalContracts": [],
      "isFixedGasLimit": false
    }
  ],
  "receipts": [
    {
      "status": "0x1",
      "cumulativeGasUsed": "0x555b5",
      "logs": [
        {
          "address": "0x802ea91b5aaf53d067b0bb72bad4cc714e1855be",
          "topics": [
            "0x1cf2de25c5bf439ac0287061c3a0fa69b3b02867d0ccfd2ded34e42577050b73",
            "0x000000000000000000000000a73550548804cff5dd23f1c67e360c3a22433f53",
            "0x00000000000000000000000030cc05366cc687c0ab75e3908fe2b2c5bb679db8"
          ],
          "data": "0x",
          "blockHash": "0xeb994acfce77166a059fae9cb769ddbf108b1788fc42f8cd8c8aea4fb2b263cf",
          "blockNumber": "0x1abea30",
          "blockTimestamp": "0x686b3340",
          "transactionHash": "0x33b6cb28d4b87698c2f1efcdb18a9a4d8d96c175f220eaf18d446965c77ac1d6",
          "transactionIndex": "0x3",
          "logIndex": "0xc",
          "removed": false
        }
      ],
      "logsBloom": "0x00000000000000200000000000000000000000000000000000010000000000000000000000000000000000000000000000000000000000000000000000000000000800000000000200000010008000000000000000000000000001000000000000000000000001000000000000000000000000080000000000000000000000000000000000000000000000000000000000000000000000000000000000800000008000000000000000000000000000000000000000000000000000000000000000000000000000000000000004000000000000000000000000000000000000000000000000000000000000000000000000000000000000000000000000000000",
      "type": "0x2",
      "transactionHash": "0x33b6cb28d4b87698c2f1efcdb18a9a4d8d96c175f220eaf18d446965c77ac1d6",
      "transactionIndex": "0x3",
      "blockHash": "0xeb994acfce77166a059fae9cb769ddbf108b1788fc42f8cd8c8aea4fb2b263cf",
      "blockNumber": "0x1abea30",
      "gasUsed": "0x78d1",
      "effectiveGasPrice": "0xf42c8",
      "from": "0x75bbff2206b6ad50786ee3ce8a81edb72f3e381b",
      "to": "0x802ea91b5aaf53d067b0bb72bad4cc714e1855be",
      "contractAddress": null,
      "l1BaseFeeScalar": "0x44d",
      "l1BlobBaseFee": "0x1",
      "l1BlobBaseFeeScalar": "0xa118b",
      "l1Fee": "0x1d335c",
      "l1GasPrice": "0x10935c",
      "l1GasUsed": "0x640"
    }
  ],
  "libraries": [],
  "pending": [],
  "returns": {},
  "timestamp": 1751855934,
  "chain": 84532,
  "commit": "a88e290"
}