{
  "transactions": [
    {
      "hash": "0x4f66c18ec0353747b1af660a3c9c82fa4580a98ee3566afcd9a2481a4cd5ac31",
      "transactionType": "CALL",
      "contractName": null,
      "contractAddress": "0x802ea91b5aaf53d067b0bb72bad4cc714e1855be",
      "function": "setMinter(address)",
      "arguments": [
        "0x30cc05366CC687c0ab75e3908Fe2b2C5BB679db8"
      ],
      "transaction": {
        "from": "0x75bbff2206b6ad50786ee3ce8a81edb72f3e381b",
        "to": "0x802ea91b5aaf53d067b0bb72bad4cc714e1855be",
        "gas": "0xb0b1",
        "value": "0x0",
        "input": "0xfca3b5aa00000000000000000000000030cc05366cc687c0ab75e3908fe2b2c5bb679db8",
        "nonce": "0xcb",
        "chainId": "0x14a34"
      },
      "additionalContracts": [],
      "isFixedGasLimit": false
    }
  ],
  "receipts": [
    {
      "status": "0x1",
      "cumulativeGasUsed": "0x86633a",
      "logs": [
        {
          "address": "0x802ea91b5aaf53d067b0bb72bad4cc714e1855be",
          "topics": [
            "0x1cf2de25c5bf439ac0287061c3a0fa69b3b02867d0ccfd2ded34e42577050b73",
            "0x00000000000000000000000075bbff2206b6ad50786ee3ce8a81edb72f3e381b",
            "0x00000000000000000000000030cc05366cc687c0ab75e3908fe2b2c5bb679db8"
          ],
          "data": "0x",
          "blockHash": "0xaaae8d4e316cac0d4ca0599f4e0046b4b3495c27bcc57d7f8bfa6f28a9f01aac",
          "blockNumber": "0x1abe2f3",
          "transactionHash": "0x4f66c18ec0353747b1af660a3c9c82fa4580a98ee3566afcd9a2481a4cd5ac31",
          "transactionIndex": "0x15",
          "logIndex": "0x170",
          "removed": false
        }
      ],
      "logsBloom": "0x00000000000000200000000000000000000000000000000000000000000000000000000000000000000000000000000000000000000000000000000000000000000800000000000000000010000100000000000000000000000001000000000000000000000001000000000000000000000000080000000000000000000000000000000000000000000000000000000000000000000000000000000000800000008000000000000000000001000000000000000000000000000000000000000000000000004000000000000004000000000000000000000000000000000000000000000000000000000000000000000000000000000000000000000000000000",
      "type": "0x2",
      "transactionHash": "0x4f66c18ec0353747b1af660a3c9c82fa4580a98ee3566afcd9a2481a4cd5ac31",
      "transactionIndex": "0x15",
      "blockHash": "0xaaae8d4e316cac0d4ca0599f4e0046b4b3495c27bcc57d7f8bfa6f28a9f01aac",
      "blockNumber": "0x1abe2f3",
      "gasUsed": "0x78d1",
      "effectiveGasPrice": "0xf4286",
      "from": "0x75bbff2206b6ad50786ee3ce8a81edb72f3e381b",
      "to": "0x802ea91b5aaf53d067b0bb72bad4cc714e1855be",
      "contractAddress": null,
      "l1BaseFeeScalar": "0x44d",
      "l1BlobBaseFee": "0x1",
      "l1BlobBaseFeeScalar": "0xa118b",
      "l1Fee": "0x2ba4a0",
      "l1GasPrice": "0x18c62c",
      "l1GasUsed": "0x640"
    }
  ],
  "libraries": [],
  "pending": [],
  "returns": {},
  "timestamp": 1751852231,
  "chain": 84532,
  "commit": "a88e290"
}