{
  "transactions": [
    {
      "hash": "0xe39c8f7ddffb5f2869e6a40de2396be13d6f92f0eaf32534f4c5d7a6937e3297",
      "transactionType": "CALL",
      "contractName": null,
      "contractAddress": "0x00626ed5fe6bf77ae13bea79e304cf6a5554903b",
      "function": "setPeer(uint32,bytes32)",
      "arguments": [
        "40161",
        "0x000000000000000000000000f059c386ba88da3c3919ede0e6209b66c4d3dee1"
      ],
      "transaction": {
        "from": "0x75bbff2206b6ad50786ee3ce8a81edb72f3e381b",
        "to": "0x00626ed5fe6bf77ae13bea79e304cf6a5554903b",
        "gas": "0x1037e",
        "value": "0x0",
        "input": "0x3400288b0000000000000000000000000000000000000000000000000000000000009ce1000000000000000000000000f059c386ba88da3c3919ede0e6209b66c4d3dee1",
        "nonce": "0x38",
        "chainId": "0xaa37dc"
      },
      "additionalContracts": [],
      "isFixedGasLimit": false
    },
    {
      "hash": "0x14e9e09bb1b6c1af73112a30aaa3d6bd769bf585a351e0e6930632ccb727c7a9",
      "transactionType": "CALL",
      "contractName": null,
      "contractAddress": "0x00626ed5fe6bf77ae13bea79e304cf6a5554903b",
      "function": "setPeer(uint32,bytes32)",
      "arguments": [
        "40245",
        "0x000000000000000000000000802ea91b5aaf53d067b0bb72bad4cc714e1855be"
      ],
      "transaction": {
        "from": "0x75bbff2206b6ad50786ee3ce8a81edb72f3e381b",
        "to": "0x00626ed5fe6bf77ae13bea79e304cf6a5554903b",
        "gas": "0x1037e",
        "value": "0x0",
        "input": "0x3400288b0000000000000000000000000000000000000000000000000000000000009d35000000000000000000000000802ea91b5aaf53d067b0bb72bad4cc714e1855be",
        "nonce": "0x39",
        "chainId": "0xaa37dc"
      },
      "additionalContracts": [],
      "isFixedGasLimit": false
    }
  ],
  "receipts": [
    {
      "status": "0x1",
      "cumulativeGasUsed": "0x3b5654",
      "logs": [
        {
          "address": "0x00626ed5fe6bf77ae13bea79e304cf6a5554903b",
          "topics": [
            "0x238399d427b947898edb290f5ff0f9109849b1c3ba196a42e35f00c50a54b98b"
          ],
          "data": "0x0000000000000000000000000000000000000000000000000000000000009ce1000000000000000000000000f059c386ba88da3c3919ede0e6209b66c4d3dee1",
          "blockHash": "0xec0e1d178a99ab5ef9250979742b1be30c50ba247830f98356aef8f799151489",
          "blockNumber": "0x1ca2171",
          "blockTimestamp": "0x686b1e8e",
          "transactionHash": "0xe39c8f7ddffb5f2869e6a40de2396be13d6f92f0eaf32534f4c5d7a6937e3297",
          "transactionIndex": "0x3",
          "logIndex": "0x4",
          "removed": false
        }
      ],
      "logsBloom": "0x00000000000000000000000000000000000000000000000000000000000000000000000000000000000000000000000020000000000000000800000000000000000000000200000000000000000000000000000000000000000000000000000000000000000000000000000000000000000000000000000000000000000000000000000000000000000000000000000000000000000000000000000000000000000000000000000000000000000000000000000000000000000002000000000000000000000000200000000000000000000000000000000000040000000000000000000000000000000000000000000000000000000000000000000000000000",
      "type": "0x2",
      "transactionHash": "0xe39c8f7ddffb5f2869e6a40de2396be13d6f92f0eaf32534f4c5d7a6937e3297",
      "transactionIndex": "0x3",
      "blockHash": "0xec0e1d178a99ab5ef9250979742b1be30c50ba247830f98356aef8f799151489",
      "blockNumber": "0x1ca2171",
      "gasUsed": "0xbbdf",
      "effectiveGasPrice": "0xf433a",
      "from": "0x75bbff2206b6ad50786ee3ce8a81edb72f3e381b",
      "to": "0x00626ed5fe6bf77ae13bea79e304cf6a5554903b",
      "contractAddress": null,
      "l1BaseFeeScalar": "0x1db0",
      "l1BlobBaseFee": "0x1",
      "l1BlobBaseFeeScalar": "0xd2730",
      "l1Fee": "0x7837ae",
      "l1GasPrice": "0x9e2de",
      "l1GasUsed": "0x640"
    },
    {
      "status": "0x1",
      "cumulativeGasUsed": "0x3c1233",
      "logs": [
        {
          "address": "0x00626ed5fe6bf77ae13bea79e304cf6a5554903b",
          "topics": [
            "0x238399d427b947898edb290f5ff0f9109849b1c3ba196a42e35f00c50a54b98b"
          ],
          "data": "0x0000000000000000000000000000000000000000000000000000000000009d35000000000000000000000000802ea91b5aaf53d067b0bb72bad4cc714e1855be",
          "blockHash": "0xec0e1d178a99ab5ef9250979742b1be30c50ba247830f98356aef8f799151489",
          "blockNumber": "0x1ca2171",
          "transactionHash": "0x14e9e09bb1b6c1af73112a30aaa3d6bd769bf585a351e0e6930632ccb727c7a9",
          "transactionIndex": "0x4",
          "logIndex": "0x5",
          "removed": false
        }
      ],
      "logsBloom": "0x00000000000000000000000000000000000000000000000000000000000000000000000000000000000000000000000020000000000000000800000000000000000000000200000000000000000000000000000000000000000000000000000000000000000000000000000000000000000000000000000000000000000000000000000000000000000000000000000000000000000000000000000000000000000000000000000000000000000000000000000000000000000002000000000000000000000000200000000000000000000000000000000000040000000000000000000000000000000000000000000000000000000000000000000000000000",
      "type": "0x2",
      "transactionHash": "0x14e9e09bb1b6c1af73112a30aaa3d6bd769bf585a351e0e6930632ccb727c7a9",
      "transactionIndex": "0x4",
      "blockHash": "0xec0e1d178a99ab5ef9250979742b1be30c50ba247830f98356aef8f799151489",
      "blockNumber": "0x1ca2171",
      "gasUsed": "0xbbdf",
      "effectiveGasPrice": "0xf433a",
      "from": "0x75bbff2206b6ad50786ee3ce8a81edb72f3e381b",
      "to": "0x00626ed5fe6bf77ae13bea79e304cf6a5554903b",
      "contractAddress": null,
      "l1BaseFeeScalar": "0x1db0",
      "l1BlobBaseFee": "0x1",
      "l1BlobBaseFeeScalar": "0xd2730",
      "l1Fee": "0x7837ae",
      "l1GasPrice": "0x9e2de",
      "l1GasUsed": "0x640"
    }
  ],
  "libraries": [],
  "pending": [],
  "returns": {},
  "timestamp": 1751850639,
  "chain": 11155420,
  "commit": "a88e290"
}