{
  "transactions": [
    {
      "hash": "0x15978ddb100e4a0020ee4e983603f4f3971a6c2d1064eb15bac126bb973ce279",
      "transactionType": "CALL",
      "contractName": null,
      "contractAddress": "0x00626ed5fe6bf77ae13bea79e304cf6a5554903b",
      "function": "setPeer(uint32,bytes32)",
      "arguments": [
        "40161",
        "0x000000000000000000000000f059c386ba88da3c3919ede0e6209b66c4d3dee1"
      ],
      "transaction": {
        "from": "0x75bbff2206b6ad50786ee3ce8a81edb72f3e381b",
        "to": "0x00626ed5fe6bf77ae13bea79e304cf6a5554903b",
        "gas": "0xa112",
        "value": "0x0",
        "input": "0x3400288b0000000000000000000000000000000000000000000000000000000000009ce1000000000000000000000000f059c386ba88da3c3919ede0e6209b66c4d3dee1",
        "nonce": "0x57",
        "chainId": "0xaa37dc"
      },
      "additionalContracts": [],
      "isFixedGasLimit": false
    },
    {
      "hash": "0xa200194e4dc52a8f48624c9d9b52402c27f604f2c4261afde7d2c59eaf4322aa",
      "transactionType": "CALL",
      "contractName": null,
      "contractAddress": "0x00626ed5fe6bf77ae13bea79e304cf6a5554903b",
      "function": "setPeer(uint32,bytes32)",
      "arguments": [
        "40245",
        "0x000000000000000000000000802ea91b5aaf53d067b0bb72bad4cc714e1855be"
      ],
      "transaction": {
        "from": "0x75bbff2206b6ad50786ee3ce8a81edb72f3e381b",
        "to": "0x00626ed5fe6bf77ae13bea79e304cf6a5554903b",
        "gas": "0xa112",
        "value": "0x0",
        "input": "0x3400288b0000000000000000000000000000000000000000000000000000000000009d35000000000000000000000000802ea91b5aaf53d067b0bb72bad4cc714e1855be",
        "nonce": "0x58",
        "chainId": "0xaa37dc"
      },
      "additionalContracts": [],
      "isFixedGasLimit": false
    }
  ],
  "receipts": [
    {
      "status": "0x1",
      "cumulativeGasUsed": "0x3dba4",
      "logs": [
        {
          "address": "0x00626ed5fe6bf77ae13bea79e304cf6a5554903b",
          "topics": [
            "0x238399d427b947898edb290f5ff0f9109849b1c3ba196a42e35f00c50a54b98b"
          ],
          "data": "0x0000000000000000000000000000000000000000000000000000000000009ce1000000000000000000000000f059c386ba88da3c3919ede0e6209b66c4d3dee1",
          "blockHash": "0x92638da6e0290acf6227a5b29dfab0e782c821bdbe0930c23fbe2e36b5580cbb",
          "blockNumber": "0x1ca87f5",
          "transactionHash": "0x15978ddb100e4a0020ee4e983603f4f3971a6c2d1064eb15bac126bb973ce279",
          "transactionIndex": "0x3",
          "logIndex": "0x4",
          "removed": false
        }
      ],
      "logsBloom": "0x00000000000000000000000000000000000000000000000000000000000000000000000000000000000000000000000020000000000000000800000000000000000000000200000000000000000000000000000000000000000000000000000000000000000000000000000000000000000000000000000000000000000000000000000000000000000000000000000000000000000000000000000000000000000000000000000000000000000000000000000000000000000002000000000000000000000000200000000000000000000000000000000000040000000000000000000000000000000000000000000000000000000000000000000000000000",
      "type": "0x0",
      "transactionHash": "0x15978ddb100e4a0020ee4e983603f4f3971a6c2d1064eb15bac126bb973ce279",
      "transactionIndex": "0x3",
      "blockHash": "0x92638da6e0290acf6227a5b29dfab0e782c821bdbe0930c23fbe2e36b5580cbb",
      "blockNumber": "0x1ca87f5",
      "gasUsed": "0x6e23",
      "effectiveGasPrice": "0xf433a",
      "from": "0x75bbff2206b6ad50786ee3ce8a81edb72f3e381b",
      "to": "0x00626ed5fe6bf77ae13bea79e304cf6a5554903b",
      "contractAddress": null,
      "l1BaseFeeScalar": "0x1db0",
      "l1BlobBaseFee": "0x1",
      "l1BlobBaseFeeScalar": "0xd2730",
      "l1Fee": "0x54f021a1a",
      "l1GasPrice": "0x6fc2b2f6",
      "l1GasUsed": "0x640"
    },
    {
      "status": "0x1",
      "cumulativeGasUsed": "0x449c7",
      "logs": [
        {
          "address": "0x00626ed5fe6bf77ae13bea79e304cf6a5554903b",
          "topics": [
            "0x238399d427b947898edb290f5ff0f9109849b1c3ba196a42e35f00c50a54b98b"
          ],
          "data": "0x0000000000000000000000000000000000000000000000000000000000009d35000000000000000000000000802ea91b5aaf53d067b0bb72bad4cc714e1855be",
          "blockHash": "0x92638da6e0290acf6227a5b29dfab0e782c821bdbe0930c23fbe2e36b5580cbb",
          "blockNumber": "0x1ca87f5",
          "transactionHash": "0xa200194e4dc52a8f48624c9d9b52402c27f604f2c4261afde7d2c59eaf4322aa",
          "transactionIndex": "0x4",
          "logIndex": "0x5",
          "removed": false
        }
      ],
      "logsBloom": "0x00000000000000000000000000000000000000000000000000000000000000000000000000000000000000000000000020000000000000000800000000000000000000000200000000000000000000000000000000000000000000000000000000000000000000000000000000000000000000000000000000000000000000000000000000000000000000000000000000000000000000000000000000000000000000000000000000000000000000000000000000000000000002000000000000000000000000200000000000000000000000000000000000040000000000000000000000000000000000000000000000000000000000000000000000000000",
      "type": "0x0",
      "transactionHash": "0xa200194e4dc52a8f48624c9d9b52402c27f604f2c4261afde7d2c59eaf4322aa",
      "transactionIndex": "0x4",
      "blockHash": "0x92638da6e0290acf6227a5b29dfab0e782c821bdbe0930c23fbe2e36b5580cbb",
      "blockNumber": "0x1ca87f5",
      "gasUsed": "0x6e23",
      "effectiveGasPrice": "0xf433a",
      "from": "0x75bbff2206b6ad50786ee3ce8a81edb72f3e381b",
      "to": "0x00626ed5fe6bf77ae13bea79e304cf6a5554903b",
      "contractAddress": null,
      "l1BaseFeeScalar": "0x1db0",
      "l1BlobBaseFee": "0x1",
      "l1BlobBaseFeeScalar": "0xd2730",
      "l1Fee": "0x54f021a1a",
      "l1GasPrice": "0x6fc2b2f6",
      "l1GasUsed": "0x640"
    }
  ],
  "libraries": [],
  "pending": [],
  "returns": {},
  "timestamp": 1751903127,
  "chain": 11155420,
  "commit": "ceedac3"
}