{
  "transactions": [
    {
      "hash": "0x46ecf44945be3288ed886fc0417b2315e0970c23e2fe7217323f63ab71b1ec19",
      "transactionType": "CALL",
      "contractName": null,
      "contractAddress": "0x43a8a1ff7b7bc32acbcca638b2b40cadf45cd82d",
      "function": "setRedemptionQueue(address)",
      "arguments": [
        "0x3793FaA1bD71258336c877427b105B2E74e8C030"
      ],
      "transaction": {
        "from": "0xf09494dda63f062856d3f166af4f2629c0ead56e",
        "to": "0x43a8a1ff7b7bc32acbcca638b2b40cadf45cd82d",
        "gas": "0xae22",
        "value": "0x0",
        "input": "0x3b4c46d00000000000000000000000003793faa1bd71258336c877427b105b2e74e8c030",
        "nonce": "0x16",
        "chainId": "0xaa37dc"
      },
      "additionalContracts": [],
      "isFixedGasLimit": false
    }
  ],
  "receipts": [
    {
      "status": "0x1",
      "cumulativeGasUsed": "0x12b39",
      "logs": [
        {
          "address": "0x43a8a1ff7b7bc32acbcca638b2b40cadf45cd82d",
          "topics": [
            "0x8007ef0a9ea9bb02ffa304176988cddfef71147b01a3159a9b311422923bddf9",
            "0x000000000000000000000000205b8115068801576901a544e96e4c051834fbe4",
            "0x0000000000000000000000003793faa1bd71258336c877427b105b2e74e8c030"
          ],
          "data": "0x",
          "blockHash": "0x8980e39f7ea6513d0aa9e124d088e57e80fe097063a42a6ad7de387d094cccdc",
          "blockNumber": "0x1cab5ee",
          "blockTimestamp": "0x686c4788",
          "transactionHash": "0x46ecf44945be3288ed886fc0417b2315e0970c23e2fe7217323f63ab71b1ec19",
          "transactionIndex": "0x1",
          "logIndex": "0x0",
          "removed": false
        }
      ],
      "logsBloom": "0x00000000000000000000100000000000000000000000000000000000000000000000000000000000000000000000000000000000000000000000000000000000000000000000000000000010000000000000000000010200000000000000000000000000000020000000000000000000000000000000000000000000000000000000000000000000000000000000000000000000000000000000000000000000000000000000000000000000000000000000000000000000000000010010080000000000000000000020008000000000000000000000000000000004000000000000000000000000000000000000000000000001000000000000000000000000",
      "type": "0x2",
      "transactionHash": "0x46ecf44945be3288ed886fc0417b2315e0970c23e2fe7217323f63ab71b1ec19",
      "transactionIndex": "0x1",
      "blockHash": "0x8980e39f7ea6513d0aa9e124d088e57e80fe097063a42a6ad7de387d094cccdc",
      "blockNumber": "0x1cab5ee",
      "gasUsed": "0x7711",
      "effectiveGasPrice": "0xf433a",
      "from": "0xf09494dda63f062856d3f166af4f2629c0ead56e",
      "to": "0x43a8a1ff7b7bc32acbcca638b2b40cadf45cd82d",
      "contractAddress": null,
      "l1BaseFeeScalar": "0x1db0",
      "l1BlobBaseFee": "0x1",
      "l1BlobBaseFeeScalar": "0xd2730",
      "l1Fee": "0x2a7c6",
      "l1GasPrice": "0x37e0",
      "l1GasUsed": "0x640"
    }
  ],
  "libraries": [],
  "pending": [],
  "returns": {},
  "timestamp": 1751926664,
  "chain": 11155420,
  "commit": "ceedac3"
}