{
  "transactions": [
    {
      "hash": "0x6c571c8f3bb3ab27f02bdee4758499bce410dae83ec4c7d2910726724dd48ba8",
      "transactionType": "CALL",
      "contractName": null,
      "contractAddress": "0x2e03b35276003e3c3060c8bd5ec736bb8061a686",
      "function": "setRedemptionDelay(uint256)",
      "arguments": [
        "864000"
      ],
      "transaction": {
        "from": "0x75bbff2206b6ad50786ee3ce8a81edb72f3e381b",
        "to": "0x2e03b35276003e3c3060c8bd5ec736bb8061a686",
        "gas": "0xa42f",
        "value": "0x0",
        "input": "0xf1a9ee0300000000000000000000000000000000000000000000000000000000000d2f00",
        "nonce": "0x81",
        "chainId": "0x14a34"
      },
      "additionalContracts": [],
      "isFixedGasLimit": false
    }
  ],
  "receipts": [
    {
      "status": "0x1",
      "cumulativeGasUsed": "0x701a7e",
      "logs": [
        {
          "address": "0x2e03b35276003e3c3060c8bd5ec736bb8061a686",
          "topics": [
            "0x35d5f64991849d3a2e56aea3a3fe0a4a67da2d7967a3ec083e0c4311ee0565a4"
          ],
          "data": "0x0000000000000000000000000000000000000000000000000000000000000e1000000000000000000000000000000000000000000000000000000000000d2f00",
          "blockHash": "0x8e09a3d8211c43c1387bbb0d2d0c9262e79d1608845b796a80f4633a0ea418fe",
          "blockNumber": "0x1ab8bbf",
          "transactionHash": "0x6c571c8f3bb3ab27f02bdee4758499bce410dae83ec4c7d2910726724dd48ba8",
          "transactionIndex": "0x12",
          "logIndex": "0x167",
          "removed": false
        }
      ],
      "logsBloom": "0x00000000000000000000000000000000000000000000000000000000000000000000000000000010000000000000000000000000000000000000000000000000000000000000000000000000000000000000000000000000000000000000000000000000000004000000000000000000000020000000000000000000000000000000000000000000000000000010000000000000000000000000010000000000000000000000000000000000000000000000000000000000000000000000000000000000000000000000000000000000000000000000000000000000000000000000000000000000000000000000000000000000000000002000000000000000",
      "type": "0x2",
      "transactionHash": "0x6c571c8f3bb3ab27f02bdee4758499bce410dae83ec4c7d2910726724dd48ba8",
      "transactionIndex": "0x12",
      "blockHash": "0x8e09a3d8211c43c1387bbb0d2d0c9262e79d1608845b796a80f4633a0ea418fe",
      "blockNumber": "0x1ab8bbf",
      "gasUsed": "0x76df",
      "effectiveGasPrice": "0x10cae9",
      "from": "0x75bbff2206b6ad50786ee3ce8a81edb72f3e381b",
      "to": "0x2e03b35276003e3c3060c8bd5ec736bb8061a686",
      "contractAddress": null,
      "l1BaseFeeScalar": "0x44d",
      "l1BlobBaseFee": "0x1",
      "l1BlobBaseFeeScalar": "0xa118b",
      "l1Fee": "0x6b468bf1",
      "l1GasPrice": "0x3ce58bfb",
      "l1GasUsed": "0x640"
    }
  ],
  "libraries": [],
  "pending": [],
  "returns": {},
  "timestamp": 1751807582,
  "chain": 84532,
  "commit": "64f3194"
}