{
  "transactions": [
    {
      "hash": "0x3bf17552fd058dacea3a0c84c0ed790328673414cf22ecc04311c5cd8f1b1776",
      "transactionType": "CALL",
      "contractName": null,
      "contractAddress": "0x0a3745b48f350949ef5d024a01ee143741ea2ce0",
      "function": "approve(address,uint256)",
      "arguments": [
        "0x30cc05366CC687c0ab75e3908Fe2b2C5BB679db8",
        "100000000000"
      ],
      "transaction": {
        "from": "0x75bbff2206b6ad50786ee3ce8a81edb72f3e381b",
        "to": "0x0a3745b48f350949ef5d024a01ee143741ea2ce0",
        "gas": "0xa50f",
        "value": "0x0",
        "input": "0x095ea7b300000000000000000000000030cc05366cc687c0ab75e3908fe2b2c5bb679db8000000000000000000000000000000000000000000000000000000174876e800",
        "nonce": "0xc7",
        "chainId": "0x14a34"
      },
      "additionalContracts": [],
      "isFixedGasLimit": false
    }
  ],
  "receipts": [
    {
      "status": "0x1",
      "cumulativeGasUsed": "0x3afa75",
      "logs": [
        {
          "address": "0x0a3745b48f350949ef5d024a01ee143741ea2ce0",
          "topics": [
            "0x8c5be1e5ebec7d5bd14f71427d1e84f3dd0314c0f7b2291e5b200ac8c7c3b925",
            "0x00000000000000000000000075bbff2206b6ad50786ee3ce8a81edb72f3e381b",
            "0x00000000000000000000000030cc05366cc687c0ab75e3908fe2b2c5bb679db8"
          ],
          "data": "0x000000000000000000000000000000000000000000000000000000174876e800",
          "blockHash": "0x1d2dd9b48e921e95cbc83c4ac178cb02ab4bc3f5025f4fdec2b783fd8257cc7f",
          "blockNumber": "0x1abe099",
          "transactionHash": "0x3bf17552fd058dacea3a0c84c0ed790328673414cf22ecc04311c5cd8f1b1776",
          "transactionIndex": "0x14",
          "logIndex": "0x80",
          "removed": false
        }
      ],
      "logsBloom": "0x00000000000000000000000000000000000000000000000000000000000000000000000000000000000002000000000000080000000000000000000000200000000800000000000000000000000100000000000020000000000000000000000000000000000000000000000000000000000000080000000000000000000000000000000000000000000000000000000000000000000000000000000000800000020000000000000000000001000000000000000000000000000000000000000000000000004000000000000000000000000000000000000000000000000000000010000000000000000000000000000000000000000000000000000000000000",
      "type": "0x2",
      "transactionHash": "0x3bf17552fd058dacea3a0c84c0ed790328673414cf22ecc04311c5cd8f1b1776",
      "transactionIndex": "0x14",
      "blockHash": "0x1d2dd9b48e921e95cbc83c4ac178cb02ab4bc3f5025f4fdec2b783fd8257cc7f",
      "blockNumber": "0x1abe099",
      "gasUsed": "0x7780",
      "effectiveGasPrice": "0xf4289",
      "from": "0x75bbff2206b6ad50786ee3ce8a81edb72f3e381b",
      "to": "0x0a3745b48f350949ef5d024a01ee143741ea2ce0",
      "contractAddress": null,
      "l1BaseFeeScalar": "0x44d",
      "l1BlobBaseFee": "0x1",
      "l1BlobBaseFeeScalar": "0xa118b",
      "l1Fee": "0x18c8c8",
      "l1GasPrice": "0xe1192",
      "l1GasUsed": "0x640"
    }
  ],
  "libraries": [],
  "pending": [],
  "returns": {},
  "timestamp": 1751851026,
  "chain": 84532,
  "commit": "a88e290"
}