{
  "transactions": [
    {
      "hash": "0x53a449943b17fd3e0c91dceb794fbc20470c6253ac5f79c92009701f09ff3231",
      "transactionType": "CALL",
      "contractName": null,
      "contractAddress": "0x802ea91b5aaf53d067b0bb72bad4cc714e1855be",
      "function": "setPeer(uint32,bytes32)",
      "arguments": [
        "40161",
        "0x000000000000000000000000f059c386ba88da3c3919ede0e6209b66c4d3dee1"
      ],
      "transaction": {
        "from": "0x75bbff2206b6ad50786ee3ce8a81edb72f3e381b",
        "to": "0x802ea91b5aaf53d067b0bb72bad4cc714e1855be",
        "gas": "0x1037e",
        "value": "0x0",
        "input": "0x3400288b0000000000000000000000000000000000000000000000000000000000009ce1000000000000000000000000f059c386ba88da3c3919ede0e6209b66c4d3dee1",
        "nonce": "0xc0",
        "chainId": "0x14a34"
      },
      "additionalContracts": [],
      "isFixedGasLimit": false
    },
    {
      "hash": "0xa4869b541cb92fcc834c55994acdc673459006de17af19af4e6f0b777dac4309",
      "transactionType": "CALL",
      "contractName": null,
      "contractAddress": "0x802ea91b5aaf53d067b0bb72bad4cc714e1855be",
      "function": "setPeer(uint32,bytes32)",
      "arguments": [
        "40232",
        "0x00000000000000000000000000626ed5fe6bf77ae13bea79e304cf6a5554903b"
      ],
      "transaction": {
        "from": "0x75bbff2206b6ad50786ee3ce8a81edb72f3e381b",
        "to": "0x802ea91b5aaf53d067b0bb72bad4cc714e1855be",
        "gas": "0x112b0",
        "value": "0x0",
        "input": "0x3400288b0000000000000000000000000000000000000000000000000000000000009d2800000000000000000000000000626ed5fe6bf77ae13bea79e304cf6a5554903b",
        "nonce": "0xc1",
        "chainId": "0x14a34"
      },
      "additionalContracts": [],
      "isFixedGasLimit": false
    }
  ],
  "receipts": [
    {
      "status": "0x1",
      "cumulativeGasUsed": "0x45b49",
      "logs": [
        {
          "address": "0x802ea91b5aaf53d067b0bb72bad4cc714e1855be",
          "topics": [
            "0x238399d427b947898edb290f5ff0f9109849b1c3ba196a42e35f00c50a54b98b"
          ],
          "data": "0x0000000000000000000000000000000000000000000000000000000000009ce1000000000000000000000000f059c386ba88da3c3919ede0e6209b66c4d3dee1",
          "blockHash": "0x44c08f81d5fe66cd6d2a1bfd8b6775d1843f1e98c375f968b251573658aeddd3",
          "blockNumber": "0x1abdfcd",
          "transactionHash": "0x53a449943b17fd3e0c91dceb794fbc20470c6253ac5f79c92009701f09ff3231",
          "transactionIndex": "0x4",
          "logIndex": "0x6",
          "removed": false
        }
      ],
      "logsBloom": "0x00000000000000000000000000000000000000000000000000000000000000000000000000000000000000000000000000000000000000000800000000000000000000000000000000000000000000000000000000000000000000000000000000000000000001000000000000000000000000000000000000000000000000000000000000000000000000000000000000000000000000000000000000000000008000000000000000000000000000000000000000000000000002000000000000000000000000000000000004000000000000000000000000040000000000000000000000000000000000000000000000000000000000000000000000000000",
      "type": "0x2",
      "transactionHash": "0x53a449943b17fd3e0c91dceb794fbc20470c6253ac5f79c92009701f09ff3231",
      "transactionIndex": "0x4",
      "blockHash": "0x44c08f81d5fe66cd6d2a1bfd8b6775d1843f1e98c375f968b251573658aeddd3",
      "blockNumber": "0x1abdfcd",
      "gasUsed": "0xbbdf",
      "effectiveGasPrice": "0xf4282",
      "from": "0x75bbff2206b6ad50786ee3ce8a81edb72f3e381b",
      "to": "0x802ea91b5aaf53d067b0bb72bad4cc714e1855be",
      "contractAddress": null,
      "l1BaseFeeScalar": "0x44d",
      "l1BlobBaseFee": "0x1",
      "l1BlobBaseFeeScalar": "0xa118b",
      "l1Fee": "0x14dd00",
      "l1GasPrice": "0xbd7c2",
      "l1GasUsed": "0x640"
    },
    {
      "status": "0x1",
      "cumulativeGasUsed": "0x5171c",
      "logs": [
        {
          "address": "0x802ea91b5aaf53d067b0bb72bad4cc714e1855be",
          "topics": [
            "0x238399d427b947898edb290f5ff0f9109849b1c3ba196a42e35f00c50a54b98b"
          ],
          "data": "0x0000000000000000000000000000000000000000000000000000000000009d2800000000000000000000000000626ed5fe6bf77ae13bea79e304cf6a5554903b",
          "blockHash": "0x44c08f81d5fe66cd6d2a1bfd8b6775d1843f1e98c375f968b251573658aeddd3",
          "blockNumber": "0x1abdfcd",
          "transactionHash": "0xa4869b541cb92fcc834c55994acdc673459006de17af19af4e6f0b777dac4309",
          "transactionIndex": "0x5",
          "logIndex": "0x7",
          "removed": false
        }
      ],
      "logsBloom": "0x00000000000000000000000000000000000000000000000000000000000000000000000000000000000000000000000000000000000000000800000000000000000000000000000000000000000000000000000000000000000000000000000000000000000001000000000000000000000000000000000000000000000000000000000000000000000000000000000000000000000000000000000000000000008000000000000000000000000000000000000000000000000002000000000000000000000000000000000004000000000000000000000000040000000000000000000000000000000000000000000000000000000000000000000000000000",
      "type": "0x2",
      "transactionHash": "0xa4869b541cb92fcc834c55994acdc673459006de17af19af4e6f0b777dac4309",
      "transactionIndex": "0x5",
      "blockHash": "0x44c08f81d5fe66cd6d2a1bfd8b6775d1843f1e98c375f968b251573658aeddd3",
      "blockNumber": "0x1abdfcd",
      "gasUsed": "0xbbd3",
      "effectiveGasPrice": "0xf4282",
      "from": "0x75bbff2206b6ad50786ee3ce8a81edb72f3e381b",
      "to": "0x802ea91b5aaf53d067b0bb72bad4cc714e1855be",
      "contractAddress": null,
      "l1BaseFeeScalar": "0x44d",
      "l1BlobBaseFee": "0x1",
      "l1BlobBaseFeeScalar": "0xa118b",
      "l1Fee": "0x14dd00",
      "l1GasPrice": "0xbd7c2",
      "l1GasUsed": "0x640"
    }
  ],
  "libraries": [],
  "pending": [],
  "returns": {},
  "timestamp": 1751850619,
  "chain": 84532,
  "commit": "a88e290"
}