{
  "transactions": [
    {
      "hash": "0xd437320c1a510364d43ce90bddb5897e8ea24d645fa470e90fa7ae3e14fc352f",
      "transactionType": "CALL",
      "contractName": null,
      "contractAddress": "0x80c0ee2cb545b9e9c739b5fda17578b1f0340004",
      "function": "send((uint32,bytes32,uint256,uint256,bytes,bytes),(uint256,uint256),address)",
      "arguments": [
        "(40161, 0x00000000000000000000000075bbff2206b6ad50786ee3ce8a81edb72f3e381b, 100000, 100000, 0x, 0x)",
        "(1000000000000000, 0)",
        "0x75BbFf2206b6Ad50786Ee3ce8A81eDb72f3e381b"
      ],
      "transaction": {
        "from": "0x75bbff2206b6ad50786ee3ce8a81edb72f3e381b",
        "to": "0x80c0ee2cb545b9e9c739b5fda17578b1f0340004",
        "gas": "0x1c28e",
        "value": "0x38d7ea4c68000",
        "input": "0x9794e78b000000000000000000000000000000000000000000000000000000000000008000000000000000000000000000000000000000000000000000038d7ea4c68000000000000000000000000000000000000000000000000000000000000000000000000000000000000000000075bbff2206b6ad50786ee3ce8a81edb72f3e381b0000000000000000000000000000000000000000000000000000000000009ce100000000000000000000000075bbff2206b6ad50786ee3ce8a81edb72f3e381b00000000000000000000000000000000000000000000000000000000000186a000000000000000000000000000000000000000000000000000000000000186a000000000000000000000000000000000000000000000000000000000000000c000000000000000000000000000000000000000000000000000000000000000e000000000000000000000000000000000000000000000000000000000000000000000000000000000000000000000000000000000000000000000000000000000",
        "nonce": "0xb1",
        "chainId": "0x14a34"
      },
      "additionalContracts": [],
      "isFixedGasLimit": false
    },
    {
      "hash": "0xa818d25ce3a26be85352a7bd16c211355d10cd54d040743399dd30cef35b2377",
      "transactionType": "CALL",
      "contractName": null,
      "contractAddress": "0x80c0ee2cb545b9e9c739b5fda17578b1f0340004",
      "function": "send((uint32,bytes32,uint256,uint256,bytes,bytes),(uint256,uint256),address)",
      "arguments": [
        "(40232, 0x00000000000000000000000075bbff2206b6ad50786ee3ce8a81edb72f3e381b, 100000, 100000, 0x, 0x)",
        "(1000000000000000, 0)",
        "0x75BbFf2206b6Ad50786Ee3ce8A81eDb72f3e381b"
      ],
      "transaction": {
        "from": "0x75bbff2206b6ad50786ee3ce8a81edb72f3e381b",
        "to": "0x80c0ee2cb545b9e9c739b5fda17578b1f0340004",
        "gas": "0x13e27",
        "value": "0x38d7ea4c68000",
        "input": "0x9794e78b000000000000000000000000000000000000000000000000000000000000008000000000000000000000000000000000000000000000000000038d7ea4c68000000000000000000000000000000000000000000000000000000000000000000000000000000000000000000075bbff2206b6ad50786ee3ce8a81edb72f3e381b0000000000000000000000000000000000000000000000000000000000009d2800000000000000000000000075bbff2206b6ad50786ee3ce8a81edb72f3e381b00000000000000000000000000000000000000000000000000000000000186a000000000000000000000000000000000000000000000000000000000000186a000000000000000000000000000000000000000000000000000000000000000c000000000000000000000000000000000000000000000000000000000000000e000000000000000000000000000000000000000000000000000000000000000000000000000000000000000000000000000000000000000000000000000000000",
        "nonce": "0xb2",
        "chainId": "0x14a34"
      },
      "additionalContracts": [],
      "isFixedGasLimit": false
    }
  ],
  "receipts": [
    {
      "status": "0x1",
      "cumulativeGasUsed": "0x657455",
      "logs": [
        {
          "address": "0x80c0ee2cb545b9e9c739b5fda17578b1f0340004",
          "topics": [
            "0xddf252ad1be2c89b69c2b068fc378daa952ba7f163c4a11628f55a4df523b3ef",
            "0x00000000000000000000000075bbff2206b6ad50786ee3ce8a81edb72f3e381b",
            "0x0000000000000000000000000000000000000000000000000000000000000000"
          ],
          "data": "0x00000000000000000000000000000000000000000000000000000000000186a0",
          "blockHash": "0x8f6f1299a416c3bbe4a23d8f731b828b885a278be4f7977dc52dd1d0daf3a89f",
          "blockNumber": "0x1abcb74",
          "blockTimestamp": "0x686af5c8",
          "transactionHash": "0xd437320c1a510364d43ce90bddb5897e8ea24d645fa470e90fa7ae3e14fc352f",
          "transactionIndex": "0xc",
          "logIndex": "0x10a",
          "removed": false
        },
        {
          "address": "0x80c0ee2cb545b9e9c739b5fda17578b1f0340004",
          "topics": [
            "0x85496b760a4b7f8d66384b9df21b381f5d1b1e79f229a47aaf4c232edc2fe59a",
            "0x532e04c80005c9f321981991137cbfe6dcbb8c3e5eab9f3053424f1d219bd67b",
            "0x00000000000000000000000075bbff2206b6ad50786ee3ce8a81edb72f3e381b"
          ],
          "data": "0x0000000000000000000000000000000000000000000000000000000000009ce100000000000000000000000000000000000000000000000000000000000186a000000000000000000000000000000000000000000000000000000000000186a0",
          "blockHash": "0x8f6f1299a416c3bbe4a23d8f731b828b885a278be4f7977dc52dd1d0daf3a89f",
          "blockNumber": "0x1abcb74",
          "blockTimestamp": "0x686af5c8",
          "transactionHash": "0xd437320c1a510364d43ce90bddb5897e8ea24d645fa470e90fa7ae3e14fc352f",
          "transactionIndex": "0xc",
          "logIndex": "0x10b",
          "removed": false
        },
        {
          "address": "0x80c0ee2cb545b9e9c739b5fda17578b1f0340004",
          "topics": [
            "0x8a14f405c6eb44507c74d36cd4284b0f5ec4e81d11c691fca8f81a8617abb39c",
            "0x0000000000000000000000000000000000000000000000000000000000009ce1",
            "0x00000000000000000000000075bbff2206b6ad50786ee3ce8a81edb72f3e381b"
          ],
          "data": "0x00000000000000000000000000000000000000000000000000000000000186a0",
          "blockHash": "0x8f6f1299a416c3bbe4a23d8f731b828b885a278be4f7977dc52dd1d0daf3a89f",
          "blockNumber": "0x1abcb74",
          "blockTimestamp": "0x686af5c8",
          "transactionHash": "0xd437320c1a510364d43ce90bddb5897e8ea24d645fa470e90fa7ae3e14fc352f",
          "transactionIndex": "0xc",
          "logIndex": "0x10c",
          "removed": false
        }
      ],
      "logsBloom": "0x00000000000000800000000000000000000000000000000000000000000000000000000000000000000000000000000400000000000000000000000000000000000002000080000000000008000100000000000000000040000000000000000000000000020000000000200000800800000000100000010000000010000000000000000000000000000000000000000000000000000000000000000000002000000000000000000000000001000000000000000000000000200000000000000000000002004000000000000080000000000000000000000000000000004020000000000000000000000000000000000200000000008000000000000000000000",
      "type": "0x2",
      "transactionHash": "0xd437320c1a510364d43ce90bddb5897e8ea24d645fa470e90fa7ae3e14fc352f",
      "transactionIndex": "0xc",
      "blockHash": "0x8f6f1299a416c3bbe4a23d8f731b828b885a278be4f7977dc52dd1d0daf3a89f",
      "blockNumber": "0x1abcb74",
      "gasUsed": "0x13413",
      "effectiveGasPrice": "0xecd9c",
      "from": "0x75bbff2206b6ad50786ee3ce8a81edb72f3e381b",
      "to": "0x80c0ee2cb545b9e9c739b5fda17578b1f0340004",
      "contractAddress": null,
      "l1BaseFeeScalar": "0x44d",
      "l1BlobBaseFee": "0x1",
      "l1BlobBaseFeeScalar": "0xa118b",
      "l1Fee": "0x1d7868",
      "l1GasPrice": "0xcbafb",
      "l1GasUsed": "0x836"
    },
    {
      "status": "0x1",
      "cumulativeGasUsed": "0x665aac",
      "logs": [
        {
          "address": "0x80c0ee2cb545b9e9c739b5fda17578b1f0340004",
          "topics": [
            "0xddf252ad1be2c89b69c2b068fc378daa952ba7f163c4a11628f55a4df523b3ef",
            "0x00000000000000000000000075bbff2206b6ad50786ee3ce8a81edb72f3e381b",
            "0x0000000000000000000000000000000000000000000000000000000000000000"
          ],
          "data": "0x00000000000000000000000000000000000000000000000000000000000186a0",
          "blockHash": "0x8f6f1299a416c3bbe4a23d8f731b828b885a278be4f7977dc52dd1d0daf3a89f",
          "blockNumber": "0x1abcb74",
          "blockTimestamp": "0x686af5c8",
          "transactionHash": "0xa818d25ce3a26be85352a7bd16c211355d10cd54d040743399dd30cef35b2377",
          "transactionIndex": "0xd",
          "logIndex": "0x10d",
          "removed": false
        },
        {
          "address": "0x80c0ee2cb545b9e9c739b5fda17578b1f0340004",
          "topics": [
            "0x85496b760a4b7f8d66384b9df21b381f5d1b1e79f229a47aaf4c232edc2fe59a",
            "0x532e04c80005c9f321981991137cbfe6dcbb8c3e5eab9f3053424f1d219bd67b",
            "0x00000000000000000000000075bbff2206b6ad50786ee3ce8a81edb72f3e381b"
          ],
          "data": "0x0000000000000000000000000000000000000000000000000000000000009d2800000000000000000000000000000000000000000000000000000000000186a000000000000000000000000000000000000000000000000000000000000186a0",
          "blockHash": "0x8f6f1299a416c3bbe4a23d8f731b828b885a278be4f7977dc52dd1d0daf3a89f",
          "blockNumber": "0x1abcb74",
          "blockTimestamp": "0x686af5c8",
          "transactionHash": "0xa818d25ce3a26be85352a7bd16c211355d10cd54d040743399dd30cef35b2377",
          "transactionIndex": "0xd",
          "logIndex": "0x10e",
          "removed": false
        },
        {
          "address": "0x80c0ee2cb545b9e9c739b5fda17578b1f0340004",
          "topics": [
            "0x8a14f405c6eb44507c74d36cd4284b0f5ec4e81d11c691fca8f81a8617abb39c",
            "0x0000000000000000000000000000000000000000000000000000000000009d28",
            "0x00000000000000000000000075bbff2206b6ad50786ee3ce8a81edb72f3e381b"
          ],
          "data": "0x00000000000000000000000000000000000000000000000000000000000186a0",
          "blockHash": "0x8f6f1299a416c3bbe4a23d8f731b828b885a278be4f7977dc52dd1d0daf3a89f",
          "blockNumber": "0x1abcb74",
          "blockTimestamp": "0x686af5c8",
          "transactionHash": "0xa818d25ce3a26be85352a7bd16c211355d10cd54d040743399dd30cef35b2377",
          "transactionIndex": "0xd",
          "logIndex": "0x10f",
          "removed": false
        }
      ],
      "logsBloom": "0x00000000000000800000000000000000000000000000000000000000000000000000000000000000000000000000000400000081000000000000000000000000000002040080000000000008000100000000000000000040000000000000000000000000020000000000200000000800000000000000010000000010000000000000000000000000000000000000000000000000000000000000000000002000000000000000000000000001000000000000000000000000200000000000000000000002004000000000000080000000000000000000000000000000004020000000000000000000000000000000000000000000008000000000000000000000",
      "type": "0x2",
      "transactionHash": "0xa818d25ce3a26be85352a7bd16c211355d10cd54d040743399dd30cef35b2377",
      "transactionIndex": "0xd",
      "blockHash": "0x8f6f1299a416c3bbe4a23d8f731b828b885a278be4f7977dc52dd1d0daf3a89f",
      "blockNumber": "0x1abcb74",
      "gasUsed": "0xe657",
      "effectiveGasPrice": "0xecd9c",
      "from": "0x75bbff2206b6ad50786ee3ce8a81edb72f3e381b",
      "to": "0x80c0ee2cb545b9e9c739b5fda17578b1f0340004",
      "contractAddress": null,
      "l1BaseFeeScalar": "0x44d",
      "l1BlobBaseFee": "0x1",
      "l1BlobBaseFeeScalar": "0xa118b",
      "l1Fee": "0x1d7868",
      "l1GasPrice": "0xcbafb",
      "l1GasUsed": "0x836"
    }
  ],
  "libraries": [],
  "pending": [],
  "returns": {},
  "timestamp": 1751840198,
  "chain": 84532,
  "commit": "a88e290"
}