{
  "transactions": [
    {
      "hash": "0x450f176e24c737ca1f8394e324cf7611de38606009a876d3a08cfa1193c39732",
      "transactionType": "CALL",
      "contractName": null,
      "contractAddress": "0x80c0ee2cb545b9e9c739b5fda17578b1f0340004",
      "function": "send((uint32,bytes32,uint256,uint256,bytes,bytes),(uint256,uint256),address)",
      "arguments": [
        "(40161, 0x00000000000000000000000075bbff2206b6ad50786ee3ce8a81edb72f3e381b, 100000, 100000, 0x, 0x)",
        "(1000000000000000, 0)",
        "0x75BbFf2206b6Ad50786Ee3ce8A81eDb72f3e381b"
      ],
      "transaction": {
        "from": "0x75bbff2206b6ad50786ee3ce8a81edb72f3e381b",
        "to": "0x80c0ee2cb545b9e9c739b5fda17578b1f0340004",
        "gas": "0x13e27",
        "value": "0x38d7ea4c68000",
        "input": "0x9794e78b000000000000000000000000000000000000000000000000000000000000008000000000000000000000000000000000000000000000000000038d7ea4c68000000000000000000000000000000000000000000000000000000000000000000000000000000000000000000075bbff2206b6ad50786ee3ce8a81edb72f3e381b0000000000000000000000000000000000000000000000000000000000009ce100000000000000000000000075bbff2206b6ad50786ee3ce8a81edb72f3e381b00000000000000000000000000000000000000000000000000000000000186a000000000000000000000000000000000000000000000000000000000000186a000000000000000000000000000000000000000000000000000000000000000c000000000000000000000000000000000000000000000000000000000000000e000000000000000000000000000000000000000000000000000000000000000000000000000000000000000000000000000000000000000000000000000000000",
        "nonce": "0xe5",
        "chainId": "0x14a34"
      },
      "additionalContracts": [],
      "isFixedGasLimit": false
    },
    {
      "hash": "0xc4912387001591a6d8f6324045b23ff05a7fd6e5848a8bd6405438d4bafb6b23",
      "transactionType": "CALL",
      "contractName": null,
      "contractAddress": "0x80c0ee2cb545b9e9c739b5fda17578b1f0340004",
      "function": "send((uint32,bytes32,uint256,uint256,bytes,bytes),(uint256,uint256),address)",
      "arguments": [
        "(40232, 0x00000000000000000000000075bbff2206b6ad50786ee3ce8a81edb72f3e381b, 100000, 100000, 0x, 0x)",
        "(1000000000000000, 0)",
        "0x75BbFf2206b6Ad50786Ee3ce8A81eDb72f3e381b"
      ],
      "transaction": {
        "from": "0x75bbff2206b6ad50786ee3ce8a81edb72f3e381b",
        "to": "0x80c0ee2cb545b9e9c739b5fda17578b1f0340004",
        "gas": "0x13e27",
        "value": "0x38d7ea4c68000",
        "input": "0x9794e78b000000000000000000000000000000000000000000000000000000000000008000000000000000000000000000000000000000000000000000038d7ea4c68000000000000000000000000000000000000000000000000000000000000000000000000000000000000000000075bbff2206b6ad50786ee3ce8a81edb72f3e381b0000000000000000000000000000000000000000000000000000000000009d2800000000000000000000000075bbff2206b6ad50786ee3ce8a81edb72f3e381b00000000000000000000000000000000000000000000000000000000000186a000000000000000000000000000000000000000000000000000000000000186a000000000000000000000000000000000000000000000000000000000000000c000000000000000000000000000000000000000000000000000000000000000e000000000000000000000000000000000000000000000000000000000000000000000000000000000000000000000000000000000000000000000000000000000",
        "nonce": "0xe6",
        "chainId": "0x14a34"
      },
      "additionalContracts": [],
      "isFixedGasLimit": false
    }
  ],
  "receipts": [
    {
      "status": "0x1",
      "cumulativeGasUsed": "0x7715a3",
      "logs": [
        {
          "address": "0x80c0ee2cb545b9e9c739b5fda17578b1f0340004",
          "topics": [
            "0xddf252ad1be2c89b69c2b068fc378daa952ba7f163c4a11628f55a4df523b3ef",
            "0x00000000000000000000000075bbff2206b6ad50786ee3ce8a81edb72f3e381b",
            "0x0000000000000000000000000000000000000000000000000000000000000000"
          ],
          "data": "0x00000000000000000000000000000000000000000000000000000000000186a0",
          "blockHash": "0x717893ce4cf13a4bda62dca7f8800e5c917611eaff4876e9c796208ea9c293cf",
          "blockNumber": "0x1ac468a",
          "blockTimestamp": "0x686bebf4",
          "transactionHash": "0x450f176e24c737ca1f8394e324cf7611de38606009a876d3a08cfa1193c39732",
          "transactionIndex": "0x1b",
          "logIndex": "0xfc",
          "removed": false
        },
        {
          "address": "0x80c0ee2cb545b9e9c739b5fda17578b1f0340004",
          "topics": [
            "0x85496b760a4b7f8d66384b9df21b381f5d1b1e79f229a47aaf4c232edc2fe59a",
            "0xe22a34d9c8d77b3e0fc3c41ecda26690e0eccfa6453759ceb474dcd122ec5941",
            "0x00000000000000000000000075bbff2206b6ad50786ee3ce8a81edb72f3e381b"
          ],
          "data": "0x0000000000000000000000000000000000000000000000000000000000009ce100000000000000000000000000000000000000000000000000000000000186a000000000000000000000000000000000000000000000000000000000000186a0",
          "blockHash": "0x717893ce4cf13a4bda62dca7f8800e5c917611eaff4876e9c796208ea9c293cf",
          "blockNumber": "0x1ac468a",
          "blockTimestamp": "0x686bebf4",
          "transactionHash": "0x450f176e24c737ca1f8394e324cf7611de38606009a876d3a08cfa1193c39732",
          "transactionIndex": "0x1b",
          "logIndex": "0xfd",
          "removed": false
        },
        {
          "address": "0x80c0ee2cb545b9e9c739b5fda17578b1f0340004",
          "topics": [
            "0x8a14f405c6eb44507c74d36cd4284b0f5ec4e81d11c691fca8f81a8617abb39c",
            "0x0000000000000000000000000000000000000000000000000000000000009ce1",
            "0x00000000000000000000000075bbff2206b6ad50786ee3ce8a81edb72f3e381b"
          ],
          "data": "0x00000000000000000000000000000000000000000000000000000000000186a0",
          "blockHash": "0x717893ce4cf13a4bda62dca7f8800e5c917611eaff4876e9c796208ea9c293cf",
          "blockNumber": "0x1ac468a",
          "blockTimestamp": "0x686bebf4",
          "transactionHash": "0x450f176e24c737ca1f8394e324cf7611de38606009a876d3a08cfa1193c39732",
          "transactionIndex": "0x1b",
          "logIndex": "0xfe",
          "removed": false
        }
      ],
      "logsBloom": "0x00000000000000800000000000000000000000000000000000000000000000000000000000000000000000000000000400000000000000000000000000000000000002000000000000000008000100000000000000000040000000000000000000000000020000000000200000800800000000100000010000000010000000000000000000000000000000000000000000000000000000000000000000000000000000000000000000000001000000000000000040000000200000000000000080000002004000000000000080000000000000000000000000000000000020000000000000000000000000000000000200100000008000000000000000000000",
      "type": "0x0",
      "transactionHash": "0x450f176e24c737ca1f8394e324cf7611de38606009a876d3a08cfa1193c39732",
      "transactionIndex": "0x1b",
      "blockHash": "0x717893ce4cf13a4bda62dca7f8800e5c917611eaff4876e9c796208ea9c293cf",
      "blockNumber": "0x1ac468a",
      "gasUsed": "0xe657",
      "effectiveGasPrice": "0xf42ac",
      "from": "0x75bbff2206b6ad50786ee3ce8a81edb72f3e381b",
      "to": "0x80c0ee2cb545b9e9c739b5fda17578b1f0340004",
      "contractAddress": null,
      "l1BaseFeeScalar": "0x44d",
      "l1BlobBaseFee": "0x1",
      "l1BlobBaseFeeScalar": "0xa118b",
      "l1Fee": "0x1034198f1",
      "l1GasPrice": "0x7538584e",
      "l1GasUsed": "0x7d8"
    },
    {
      "status": "0x1",
      "cumulativeGasUsed": "0x77fbfa",
      "logs": [
        {
          "address": "0x80c0ee2cb545b9e9c739b5fda17578b1f0340004",
          "topics": [
            "0xddf252ad1be2c89b69c2b068fc378daa952ba7f163c4a11628f55a4df523b3ef",
            "0x00000000000000000000000075bbff2206b6ad50786ee3ce8a81edb72f3e381b",
            "0x0000000000000000000000000000000000000000000000000000000000000000"
          ],
          "data": "0x00000000000000000000000000000000000000000000000000000000000186a0",
          "blockHash": "0x717893ce4cf13a4bda62dca7f8800e5c917611eaff4876e9c796208ea9c293cf",
          "blockNumber": "0x1ac468a",
          "blockTimestamp": "0x686bebf4",
          "transactionHash": "0xc4912387001591a6d8f6324045b23ff05a7fd6e5848a8bd6405438d4bafb6b23",
          "transactionIndex": "0x1c",
          "logIndex": "0xff",
          "removed": false
        },
        {
          "address": "0x80c0ee2cb545b9e9c739b5fda17578b1f0340004",
          "topics": [
            "0x85496b760a4b7f8d66384b9df21b381f5d1b1e79f229a47aaf4c232edc2fe59a",
            "0xe22a34d9c8d77b3e0fc3c41ecda26690e0eccfa6453759ceb474dcd122ec5941",
            "0x00000000000000000000000075bbff2206b6ad50786ee3ce8a81edb72f3e381b"
          ],
          "data": "0x0000000000000000000000000000000000000000000000000000000000009d2800000000000000000000000000000000000000000000000000000000000186a000000000000000000000000000000000000000000000000000000000000186a0",
          "blockHash": "0x717893ce4cf13a4bda62dca7f8800e5c917611eaff4876e9c796208ea9c293cf",
          "blockNumber": "0x1ac468a",
          "blockTimestamp": "0x686bebf4",
          "transactionHash": "0xc4912387001591a6d8f6324045b23ff05a7fd6e5848a8bd6405438d4bafb6b23",
          "transactionIndex": "0x1c",
          "logIndex": "0x100",
          "removed": false
        },
        {
          "address": "0x80c0ee2cb545b9e9c739b5fda17578b1f0340004",
          "topics": [
            "0x8a14f405c6eb44507c74d36cd4284b0f5ec4e81d11c691fca8f81a8617abb39c",
            "0x0000000000000000000000000000000000000000000000000000000000009d28",
            "0x00000000000000000000000075bbff2206b6ad50786ee3ce8a81edb72f3e381b"
          ],
          "data": "0x00000000000000000000000000000000000000000000000000000000000186a0",
          "blockHash": "0x717893ce4cf13a4bda62dca7f8800e5c917611eaff4876e9c796208ea9c293cf",
          "blockNumber": "0x1ac468a",
          "blockTimestamp": "0x686bebf4",
          "transactionHash": "0xc4912387001591a6d8f6324045b23ff05a7fd6e5848a8bd6405438d4bafb6b23",
          "transactionIndex": "0x1c",
          "logIndex": "0x101",
          "removed": false
        }
      ],
      "logsBloom": "0x00000000000000800000000000000000000000000000000000000000000000000000000000000000000000000000000400000081000000000000000000000000000002040000000000000008000100000000000000000040000000000000000000000000020000000000200000000800000000000000010000000010000000000000000000000000000000000000000000000000000000000000000000000000000000000000000000000001000000000000000040000000200000000000000080000002004000000000000080000000000000000000000000000000000020000000000000000000000000000000000000100000008000000000000000000000",
      "type": "0x0",
      "transactionHash": "0xc4912387001591a6d8f6324045b23ff05a7fd6e5848a8bd6405438d4bafb6b23",
      "transactionIndex": "0x1c",
      "blockHash": "0x717893ce4cf13a4bda62dca7f8800e5c917611eaff4876e9c796208ea9c293cf",
      "blockNumber": "0x1ac468a",
      "gasUsed": "0xe657",
      "effectiveGasPrice": "0xf42ac",
      "from": "0x75bbff2206b6ad50786ee3ce8a81edb72f3e381b",
      "to": "0x80c0ee2cb545b9e9c739b5fda17578b1f0340004",
      "contractAddress": null,
      "l1BaseFeeScalar": "0x44d",
      "l1BlobBaseFee": "0x1",
      "l1BlobBaseFeeScalar": "0xa118b",
      "l1Fee": "0x1034198f1",
      "l1GasPrice": "0x7538584e",
      "l1GasUsed": "0x7d8"
    }
  ],
  "libraries": [],
  "pending": [],
  "returns": {},
  "timestamp": 1751903219,
  "chain": 84532,
  "commit": "ceedac3"
}