{
  "transactions": [
    {
      "hash": "0x4ed2cc120d5123f260d5cdedd949a0b0184de028ae28e64d83416af1cbc4f7a5",
      "transactionType": "CALL",
      "contractName": null,
      "contractAddress": "0xad36450e98e3aea8d79fbc6d55c47c85ebcbb807",
      "function": "adminMint(address,uint256)",
      "arguments": [
        "0xF09494DDA63F062856d3f166Af4F2629C0eAd56e",
        "100000000"
      ],
      "transaction": {
        "from": "0xf09494dda63f062856d3f166af4f2629c0ead56e",
        "to": "0xad36450e98e3aea8d79fbc6d55c47c85ebcbb807",
        "gas": "0x18fb0",
        "value": "0x0",
        "input": "0xe58306f9000000000000000000000000f09494dda63f062856d3f166af4f2629c0ead56e0000000000000000000000000000000000000000000000000000000005f5e100",
        "nonce": "0x38",
        "chainId": "0x14a34"
      },
      "additionalContracts": [],
      "isFixedGasLimit": false
    }
  ],
  "receipts": [
    {
      "status": "0x1",
      "cumulativeGasUsed": "0x52b944",
      "logs": [
        {
          "address": "0xad36450e98e3aea8d79fbc6d55c47c85ebcbb807",
          "topics": [
            "0xddf252ad1be2c89b69c2b068fc378daa952ba7f163c4a11628f55a4df523b3ef",
            "0x0000000000000000000000000000000000000000000000000000000000000000",
            "0x000000000000000000000000f09494dda63f062856d3f166af4f2629c0ead56e"
          ],
          "data": "0x0000000000000000000000000000000000000000000000000000000005f5e100",
          "blockHash": "0x06f3f87618adfa834249c12c7c01145eace9ff42f9e7999b8dc1e0963e483902",
          "blockNumber": "0x1ac9315",
          "blockTimestamp": "0x686c850a",
          "transactionHash": "0x4ed2cc120d5123f260d5cdedd949a0b0184de028ae28e64d83416af1cbc4f7a5",
          "transactionIndex": "0x1b",
          "logIndex": "0xa0",
          "removed": false
        },
        {
          "address": "0xad36450e98e3aea8d79fbc6d55c47c85ebcbb807",
          "topics": [
            "0xb95721a138d27da82cf85d0a1081e8753ff7229d98779aaf27125068c1d5f90a",
            "0x000000000000000000000000f09494dda63f062856d3f166af4f2629c0ead56e"
          ],
          "data": "0x0000000000000000000000000000000000000000000000000000000005f5e100",
          "blockHash": "0x06f3f87618adfa834249c12c7c01145eace9ff42f9e7999b8dc1e0963e483902",
          "blockNumber": "0x1ac9315",
          "blockTimestamp": "0x686c850a",
          "transactionHash": "0x4ed2cc120d5123f260d5cdedd949a0b0184de028ae28e64d83416af1cbc4f7a5",
          "transactionIndex": "0x1b",
          "logIndex": "0xa1",
          "removed": false
        }
      ],
      "logsBloom": "0x00000000000000000000000000000000000000000000000000000000000000000000000000000000000000000000000000000000000000000080000000000004000000000000000000000008000000000000000000000000000000000000000000000000020000000000000000000800000000000008000000000010000000000000000000000000000000000020000000000000000000008000000080000000000040000000000000000001000000000000000000000000000000000000000000000002000000000000000000000000000000000000000000000000000020000000000000000000000000000000000000000000000000000000000000000200",
      "type": "0x2",
      "transactionHash": "0x4ed2cc120d5123f260d5cdedd949a0b0184de028ae28e64d83416af1cbc4f7a5",
      "transactionIndex": "0x1b",
      "blockHash": "0x06f3f87618adfa834249c12c7c01145eace9ff42f9e7999b8dc1e0963e483902",
      "blockNumber": "0x1ac9315",
      "gasUsed": "0x1215f",
      "effectiveGasPrice": "0xf42a4",
      "from": "0xf09494dda63f062856d3f166af4f2629c0ead56e",
      "to": "0xad36450e98e3aea8d79fbc6d55c47c85ebcbb807",
      "contractAddress": null,
      "l1BaseFeeScalar": "0x44d",
      "l1BlobBaseFee": "0x1",
      "l1BlobBaseFeeScalar": "0xa118b",
      "l1Fee": "0x340aa9",
      "l1GasPrice": "0x1d8aac",
      "l1GasUsed": "0x640"
    }
  ],
  "libraries": [],
  "pending": [],
  "returns": {},
  "timestamp": 1751942411,
  "chain": 84532,
  "commit": "b0335c7"
}