{
  "transactions": [
    {
      "hash": "0x3bffd8d6443f019a01964174c20a7b6235a255451940b18412d52c54473d11ef",
      "transactionType": "CALL",
      "contractName": null,
      "contractAddress": "0xad36450e98e3aea8d79fbc6d55c47c85ebcbb807",
      "function": "adminMint(address,uint256)",
      "arguments": [
        "0xF09494DDA63F062856d3f166Af4F2629C0eAd56e",
        "100000000"
      ],
      "transaction": {
        "from": "0xf09494dda63f062856d3f166af4f2629c0ead56e",
        "to": "0xad36450e98e3aea8d79fbc6d55c47c85ebcbb807",
        "gas": "0xd72a",
        "value": "0x0",
        "input": "0xe58306f9000000000000000000000000f09494dda63f062856d3f166af4f2629c0ead56e0000000000000000000000000000000000000000000000000000000005f5e100",
        "nonce": "0x3d",
        "chainId": "0x14a34"
      },
      "additionalContracts": [],
      "isFixedGasLimit": false
    }
  ],
  "receipts": [
    {
      "status": "0x1",
      "cumulativeGasUsed": "0x72554",
      "logs": [
        {
          "address": "0xad36450e98e3aea8d79fbc6d55c47c85ebcbb807",
          "topics": [
            "0xddf252ad1be2c89b69c2b068fc378daa952ba7f163c4a11628f55a4df523b3ef",
            "0x0000000000000000000000000000000000000000000000000000000000000000",
            "0x000000000000000000000000f09494dda63f062856d3f166af4f2629c0ead56e"
          ],
          "data": "0x0000000000000000000000000000000000000000000000000000000005f5e100",
          "blockHash": "0x4c136c27d933c7a4d48c802295cbef894d85023eb692a698d932f5b17fff977f",
          "blockNumber": "0x1acee75",
          "blockTimestamp": "0x686d3bca",
          "transactionHash": "0x3bffd8d6443f019a01964174c20a7b6235a255451940b18412d52c54473d11ef",
          "transactionIndex": "0x2",
          "logIndex": "0xb",
          "removed": false
        },
        {
          "address": "0xad36450e98e3aea8d79fbc6d55c47c85ebcbb807",
          "topics": [
            "0xb95721a138d27da82cf85d0a1081e8753ff7229d98779aaf27125068c1d5f90a",
            "0x000000000000000000000000f09494dda63f062856d3f166af4f2629c0ead56e"
          ],
          "data": "0x0000000000000000000000000000000000000000000000000000000005f5e100",
          "blockHash": "0x4c136c27d933c7a4d48c802295cbef894d85023eb692a698d932f5b17fff977f",
          "blockNumber": "0x1acee75",
          "blockTimestamp": "0x686d3bca",
          "transactionHash": "0x3bffd8d6443f019a01964174c20a7b6235a255451940b18412d52c54473d11ef",
          "transactionIndex": "0x2",
          "logIndex": "0xc",
          "removed": false
        }
      ],
      "logsBloom": "0x00000000000000000000000000000000000000000000000000000000000000000000000000000000000000000000000000000000000000000080000000000004000000000000000000000008000000000000000000000000000000000000000000000000020000000000000000000800000000000008000000000010000000000000000000000000000000000020000000000000000000008000000080000000000040000000000000000001000000000000000000000000000000000000000000000002000000000000000000000000000000000000000000000000000020000000000000000000000000000000000000000000000000000000000000000200",
      "type": "0x2",
      "transactionHash": "0x3bffd8d6443f019a01964174c20a7b6235a255451940b18412d52c54473d11ef",
      "transactionIndex": "0x2",
      "blockHash": "0x4c136c27d933c7a4d48c802295cbef894d85023eb692a698d932f5b17fff977f",
      "blockNumber": "0x1acee75",
      "gasUsed": "0x9bc7",
      "effectiveGasPrice": "0xf42d0",
      "from": "0xf09494dda63f062856d3f166af4f2629c0ead56e",
      "to": "0xad36450e98e3aea8d79fbc6d55c47c85ebcbb807",
      "contractAddress": null,
      "l1BaseFeeScalar": "0x44d",
      "l1BlobBaseFee": "0x1",
      "l1BlobBaseFeeScalar": "0xa118b",
      "l1Fee": "0x1ccab6fcb",
      "l1GasPrice": "0x10581a34c",
      "l1GasUsed": "0x640"
    }
  ],
  "libraries": [],
  "pending": [],
  "returns": {},
  "timestamp": 1751989193,
  "chain": 84532,
  "commit": "b0335c7"
}