{
  "transactions": [
    {
      "hash": "0x13304310e7fe48385623a350221576bc684a563f7c60881fe03fadb996ccaed3",
      "transactionType": "CALL",
      "contractName": null,
      "contractAddress": "0xad36450e98e3aea8d79fbc6d55c47c85ebcbb807",
      "function": "setPeer(uint32,bytes32)",
      "arguments": [
        "40232",
        "0x0000000000000000000000004ffde609b6655e66299d97d347a8dc7fb26ae062"
      ],
      "transaction": {
        "from": "0xf09494dda63f062856d3f166af4f2629c0ead56e",
        "to": "0xad36450e98e3aea8d79fbc6d55c47c85ebcbb807",
        "gas": "0x10128",
        "value": "0x0",
        "input": "0x3400288b0000000000000000000000000000000000000000000000000000000000009d280000000000000000000000004ffde609b6655e66299d97d347a8dc7fb26ae062",
        "nonce": "0x37",
        "chainId": "0x14a34"
      },
      "additionalContracts": [],
      "isFixedGasLimit": false
    }
  ],
  "receipts": [
    {
      "status": "0x1",
      "cumulativeGasUsed": "0x1858f1",
      "logs": [
        {
          "address": "0xad36450e98e3aea8d79fbc6d55c47c85ebcbb807",
          "topics": [
            "0x238399d427b947898edb290f5ff0f9109849b1c3ba196a42e35f00c50a54b98b"
          ],
          "data": "0x0000000000000000000000000000000000000000000000000000000000009d280000000000000000000000004ffde609b6655e66299d97d347a8dc7fb26ae062",
          "blockHash": "0xaf747a6a5e29ad77d2bedec84d0f45232d40834ccf32e94e2f95079f2865edad",
          "blockNumber": "0x1ac92f6",
          "blockTimestamp": "0x686c84cc",
          "transactionHash": "0x13304310e7fe48385623a350221576bc684a563f7c60881fe03fadb996ccaed3",
          "transactionIndex": "0x9",
          "logIndex": "0x2c",
          "removed": false
        }
      ],
      "logsBloom": "0x00000000000000000000000000000000000000000000000000000000000000000000000000000000000000000000000000000000000000000880000000000000000000000000000000000000000000000000000000000000000000000000000000000000000000000000000000000000000000000008000000000000000000000000000000000000000000000000000000000000000000008000000000000000000000000000000000000000000000000000000000000000000002000000000000000000000000000000000000000000000000000000000000040000000000000000000000000000000000000000000000000000000000000000000000000000",
      "type": "0x2",
      "transactionHash": "0x13304310e7fe48385623a350221576bc684a563f7c60881fe03fadb996ccaed3",
      "transactionIndex": "0x9",
      "blockHash": "0xaf747a6a5e29ad77d2bedec84d0f45232d40834ccf32e94e2f95079f2865edad",
      "blockNumber": "0x1ac92f6",
      "gasUsed": "0xba2e",
      "effectiveGasPrice": "0xf42a4",
      "from": "0xf09494dda63f062856d3f166af4f2629c0ead56e",
      "to": "0xad36450e98e3aea8d79fbc6d55c47c85ebcbb807",
      "contractAddress": null,
      "l1BaseFeeScalar": "0x44d",
      "l1BlobBaseFee": "0x2",
      "l1BlobBaseFeeScalar": "0xa118b",
      "l1Fee": "0x39ea00",
      "l1GasPrice": "0x20dfec",
      "l1GasUsed": "0x640"
    }
  ],
  "libraries": [],
  "pending": [],
  "returns": {},
  "timestamp": 1751942350,
  "chain": 84532,
  "commit": "b0335c7"
}