{
  "transactions": [
    {
      "hash": "0x82344dd4ec2ebb598adedb46cd5028e2ddda87fb469ab287fe684ac9a48b1e2c",
      "transactionType": "CALL",
      "contractName": null,
      "contractAddress": "0x43a8a1ff7b7bc32acbcca638b2b40cadf45cd82d",
      "function": "setEnforcedOptions((uint32,uint16,bytes)[])",
      "arguments": [
        "[(40232, 1, 0x00030100000c00030d400000000000000000)]"
      ],
      "transaction": {
        "from": "0xf09494dda63f062856d3f166af4f2629c0ead56e",
        "to": "0x43a8a1ff7b7bc32acbcca638b2b40cadf45cd82d",
        "gas": "0xbf48",
        "value": "0x0",
        "input": "0xb98bd0700000000000000000000000000000000000000000000000000000000000000020000000000000000000000000000000000000000000000000000000000000000100000000000000000000000000000000000000000000000000000000000000200000000000000000000000000000000000000000000000000000000000009d2800000000000000000000000000000000000000000000000000000000000000010000000000000000000000000000000000000000000000000000000000000060000000000000000000000000000000000000000000000000000000000000001200030100000c00030d4000000000000000000000000000000000000000000000",
        "nonce": "0x33",
        "chainId": "0x14a34"
      },
      "additionalContracts": [],
      "isFixedGasLimit": false
    }
  ],
  "receipts": [
    {
      "status": "0x1",
      "cumulativeGasUsed": "0x75915b",
      "logs": [
        {
          "address": "0x43a8a1ff7b7bc32acbcca638b2b40cadf45cd82d",
          "topics": [
            "0xbe4864a8e820971c0247f5992e2da559595f7bf076a21cb5928d443d2a13b674"
          ],
          "data": "0x0000000000000000000000000000000000000000000000000000000000000020000000000000000000000000000000000000000000000000000000000000000100000000000000000000000000000000000000000000000000000000000000200000000000000000000000000000000000000000000000000000000000009d2800000000000000000000000000000000000000000000000000000000000000010000000000000000000000000000000000000000000000000000000000000060000000000000000000000000000000000000000000000000000000000000001200030100000c00030d4000000000000000000000000000000000000000000000",
          "blockHash": "0x21b650a6081bd1d07fd5c9f53bb3556c3f851e15ab20be247b226d49aeca6514",
          "blockNumber": "0x1ac8ff6",
          "blockTimestamp": "0x686c7ecc",
          "transactionHash": "0x82344dd4ec2ebb598adedb46cd5028e2ddda87fb469ab287fe684ac9a48b1e2c",
          "transactionIndex": "0x19",
          "logIndex": "0x10f",
          "removed": false
        }
      ],
      "logsBloom": "0x00000000000000000000000000000000000000000000000000000000000000000000000000000000000000000000000000000000000000000000400000000000000000000000000000000000000000000000000000000200000000000000000000000000000000000000000000000000000000000000000000000000000000000000000000000000000000000000000000000000000000000000000000080000000000000000000000000000000000000000000000000000000000000000000000000000000000000000008002000000000000000000000000000000000000000000000000000000000000000000000000000001000000000000000000000000",
      "type": "0x2",
      "transactionHash": "0x82344dd4ec2ebb598adedb46cd5028e2ddda87fb469ab287fe684ac9a48b1e2c",
      "transactionIndex": "0x19",
      "blockHash": "0x21b650a6081bd1d07fd5c9f53bb3556c3f851e15ab20be247b226d49aeca6514",
      "blockNumber": "0x1ac8ff6",
      "gasUsed": "0x8a7d",
      "effectiveGasPrice": "0xecd86",
      "from": "0xf09494dda63f062856d3f166af4f2629c0ead56e",
      "to": "0x43a8a1ff7b7bc32acbcca638b2b40cadf45cd82d",
      "contractAddress": null,
      "l1BaseFeeScalar": "0x44d",
      "l1BlobBaseFee": "0x1",
      "l1BlobBaseFeeScalar": "0xa118b",
      "l1Fee": "0x1c18d9",
      "l1GasPrice": "0xf5d70",
      "l1GasUsed": "0x67c"
    }
  ],
  "libraries": [],
  "pending": [],
  "returns": {},
  "timestamp": 1751940811,
  "chain": 84532,
  "commit": "b0335c7"
}