{
  "transactions": [
    {
      "hash": "0xc59f046599a3dd745dd20516015199de712dcb6de80dd3a30ac850af8d96b947",
      "transactionType": "CALL",
      "contractName": null,
      "contractAddress": "0x6edce65403992e310a62460808c4b910d972f10f",
      "function": "setConfig(address,address,(uint32,uint32,bytes)[])",
      "arguments": [
        "0x1b7227A7A6BcAe6c64907b1B51dD0801C3E8ba30",
        "0xB31D2cb502E25B30C651842C7C3293c51Fe6d16f",
        "[(40245, 1, 0x00000000000000000000000000000000000000000000000000000000000027100000000000000000000000004208d6e27538189bb48e603d6123a94b8abe0a0b), (40245, 2, 0x0000000000000000000000000000000000000000000000000000000000000020000000000000000000000000000000000000000000000000000000000000000100000000000000000000000000000000000000000000000000000000000000010000000000000000000000000000000000000000000000000000000000000000000000000000000000000000000000000000000000000000000000000000000000000000000000000000000000000000000000000000000000000000000000c00000000000000000000000000000000000000000000000000000000000000100000000000000000000000000000000000000000000000000000000000000000100000000000000000000000088b27057a9e00c5f05dda29241027aff63f9e6e00000000000000000000000000000000000000000000000000000000000000000)]"
      ],
      "transaction": {
        "from": "0xf09494dda63f062856d3f166af4f2629c0ead56e",
        "to": "0x6edce65403992e310a62460808c4b910d972f10f",
        "gas": "0x3060b",
        "value": "0x0",
        "input": "0x6dbd9f900000000000000000000000001b7227a7a6bcae6c64907b1b51dd0801c3e8ba30000000000000000000000000b31d2cb502e25b30c651842c7c3293c51fe6d16f00000000000000000000000000000000000000000000000000000000000000600000000000000000000000000000000000000000000000000000000000000002000000000000000000000000000000000000000000000000000000000000004000000000000000000000000000000000000000000000000000000000000001000000000000000000000000000000000000000000000000000000000000009d3500000000000000000000000000000000000000000000000000000000000000010000000000000000000000000000000000000000000000000000000000000060000000000000000000000000000000000000000000000000000000000000004000000000000000000000000000000000000000000000000000000000000027100000000000000000000000004208d6e27538189bb48e603d6123a94b8abe0a0b0000000000000000000000000000000000000000000000000000000000009d350000000000000000000000000000000000000000000000000000000000000002000000000000000000000000000000000000000000000000000000000000006000000000000000000000000000000000000000000000000000000000000001400000000000000000000000000000000000000000000000000000000000000020000000000000000000000000000000000000000000000000000000000000000100000000000000000000000000000000000000000000000000000000000000010000000000000000000000000000000000000000000000000000000000000000000000000000000000000000000000000000000000000000000000000000000000000000000000000000000000000000000000000000000000000000000000c00000000000000000000000000000000000000000000000000000000000000100000000000000000000000000000000000000000000000000000000000000000100000000000000000000000088b27057a9e00c5f05dda29241027aff63f9e6e00000000000000000000000000000000000000000000000000000000000000000",
        "nonce": "0x1c",
        "chainId": "0xaa37dc"
      },
      "additionalContracts": [],
      "isFixedGasLimit": false
    }
  ],
  "receipts": [
    {
      "status": "0x1",
      "cumulativeGasUsed": "0x3055d",
      "logs": [
        {
          "address": "0xb31d2cb502e25b30c651842c7c3293c51fe6d16f",
          "topics": [
            "0x779cb2dd9d2bb1be1737d05435d744facbfb84a2a4912e21379d39beddcdc805"
          ],
          "data": "0x0000000000000000000000001b7227a7a6bcae6c64907b1b51dd0801c3e8ba300000000000000000000000000000000000000000000000000000000000009d3500000000000000000000000000000000000000000000000000000000000027100000000000000000000000004208d6e27538189bb48e603d6123a94b8abe0a0b",
          "blockHash": "0xdc7c338c2650a1351a5019a33d99a4c4ff8be70ef21020b1fb5604511e81e68a",
          "blockNumber": "0x1cacacc",
          "transactionHash": "0xc59f046599a3dd745dd20516015199de712dcb6de80dd3a30ac850af8d96b947",
          "transactionIndex": "0x1",
          "logIndex": "0x0",
          "removed": false
        },
        {
          "address": "0xb31d2cb502e25b30c651842c7c3293c51fe6d16f",
          "topics": [
            "0x82118522aa536ac0e96cc5c689407ae42b89d592aa133890a01f1509842f5081"
          ],
          "data": "0x0000000000000000000000001b7227a7a6bcae6c64907b1b51dd0801c3e8ba300000000000000000000000000000000000000000000000000000000000009d350000000000000000000000000000000000000000000000000000000000000060000000000000000000000000000000000000000000000000000000000000000100000000000000000000000000000000000000000000000000000000000000010000000000000000000000000000000000000000000000000000000000000000000000000000000000000000000000000000000000000000000000000000000000000000000000000000000000000000000000000000000000000000000000c00000000000000000000000000000000000000000000000000000000000000100000000000000000000000000000000000000000000000000000000000000000100000000000000000000000088b27057a9e00c5f05dda29241027aff63f9e6e00000000000000000000000000000000000000000000000000000000000000000",
          "blockHash": "0xdc7c338c2650a1351a5019a33d99a4c4ff8be70ef21020b1fb5604511e81e68a",
          "blockNumber": "0x1cacacc",
          "transactionHash": "0xc59f046599a3dd745dd20516015199de712dcb6de80dd3a30ac850af8d96b947",
          "transactionIndex": "0x1",
          "logIndex": "0x1",
          "removed": false
        }
      ],
      "logsBloom": "0x00000100000000000000000000000000000000000000000000000000000000000000000000004000000000000000000000000000000000000000000000000000000000000000000000000040000000000000000000000000002000000000000000000000000000000000000000000000000000000000000000000000000000000000000000000000000000000000000000000000000000000000000000000000000000000000000000000002000000000000000000000000000000000000000200000000000000000000100000000000000000000000000000000000000000000008000000000000000000000000000000000000000000000000000000000010",
      "type": "0x2",
      "transactionHash": "0xc59f046599a3dd745dd20516015199de712dcb6de80dd3a30ac850af8d96b947",
      "transactionIndex": "0x1",
      "blockHash": "0xdc7c338c2650a1351a5019a33d99a4c4ff8be70ef21020b1fb5604511e81e68a",
      "blockNumber": "0x1cacacc",
      "gasUsed": "0x23065",
      "effectiveGasPrice": "0x76c",
      "from": "0xf09494dda63f062856d3f166af4f2629c0ead56e",
      "to": "0x6edce65403992e310a62460808c4b910d972f10f",
      "contractAddress": null,
      "l1BaseFeeScalar": "0x1db0",
      "l1BlobBaseFee": "0x1",
      "l1BlobBaseFeeScalar": "0xd2730",
      "l1Fee": "0x301931",
      "l1GasPrice": "0x1bcde",
      "l1GasUsed": "0xe39"
    }
  ],
  "libraries": [],
  "pending": [],
  "returns": {},
  "timestamp": 1751937348,
  "chain": 11155420,
  "commit": "b0335c7"
}